:1000000080311428080001347E1480314101161E0D
:100010000A280B2812280C1E0E280F2812288A31B5
:100020001F2280317E100900803116288031032084
:100030008031F900FB308400883085006B30860009
:1000400000308700033089313C218031F830840052
:1000500088308500ED30860000308700033089311C
:100060003C2180311A308400893085006030860060
:1000700001308700043089313C218031F601F701DD
:10008000F801593084000030850012308931362162
:10009000803155308400013085000B3089313621A4
:1000A0008031A03084000130850040308931362114
:1000B00080317E1040018331E02B4101DD000830AA
:1000C00040012E02031C6528662868280030912A0A
:1000D0004101E60140012E08023E4101D9004001E4
:1000E0002F08031974287528AB2855304101C0002A
:1000F00001304001B30033084101E6076608C03E05
:10010000860087015530810001304001B30033087B
:100110004101E6076608C03E860087018101013083
:100120004001B30033084101E6076608C03E86007F
:100130008701810101304001B30033084101E60726
:100140006608C03E86008701810101304001B3008E
:1001500033084101E60741016608C03E8600870179
:10016000810101304001B30033084101E607660810
:10017000C03E86008701810101304001B300330891
:100180004101E6076608C03E86008701FF30810016
:1001900001304001B30033084101E6076608C03E64
:1001A000860087015908810001304001B3003308FF
:1001B0004101E6076608C03E860087015908003CF9
:1001C000810001304001B30033084101E607D4301B
:1001D000E1006608C03E86008701D430810001300E
:1001E0004001B30033084101E6076608C03E8600BF
:1001F00087015D08810001304001B30033084101EF
:10020000E60761085D07E100DE0129296608C03EB6
:10021000860087015E0840012D07B3003308840083
:100220008501000881000130B30033084101E60771
:100230005E0840012D07B3003308860087010108DE
:1002400041016107E10001304001B3003308410181
:10025000DE0740012E0841015E02031C30293129CE
:1002600006296608C03E860087016108003C8100BF
:1002700001304001B30033084101E6076608C03E83
:1002800086008701810101304001B300330841013C
:10029000E60766084001A000A030A1002030A200BF
:1002A000E830A3000330A400C03086312D26803111
:1002B0004101E2000630620203185F2960296129CA
:1002C0006628A0304001A0000030A1007030A200DC
:1002D0009030A3000630A4000030A5008C318F249C
:1002E00080314001200821040319772978297929D0
:1002F000662806304101E500A22941016508A03EBB
:10030000860087010108031D862987299C29650825
:10031000013EA03E860087010108031D9029912916
:100320009C296508023EA03E86008701010A031D44
:100330009A299B299C29AE2901304001B30033083A
:100340004101E507023065074001B3004101620841
:1003500040013302031CAD29AE297D290230410141
:1003600065074001B3004101620840013302031CEC
:10037000BA29BB29BC29662841016508053E6202ED
:100380000318C329C429C52966286508033EA03E71
:10039000860087010108E4006508043EA03E86004F
:1003A00087010108D700640857070319D829D929FC
:1003B000DA296628023064020318DF29E029E129DE
:1003C00066286408073ED500003003180130D600C7
:1003D000650855074001B300410156080318560A45
:1003E0004001B400410162084001B500B601340883
:1003F0003602031DFD29330835020318002A012A9D
:10040000022A662841016508053EE3006308A03E14
:1004100086008701D530010603190F2A102A112AF8
:1004200066286308013EA03E860087015D0A01063A
:1004300003191B2A1C2A1D2A6628DB01DC01362A27
:10044000A0305C074001B30041016308400133075D
:10045000B400340886008701010841015B07DB0016
:1004600001304001B30033084101DC0764085C023D
:10047000031C3B2A3C2A202A63086407DA005A0836
:10048000A03E8600870101085B070319482A492A14
:100490004A2A66285A08013ED8005808A03E86001D
:1004A000870101080319552A562A572A6628640825
:1004B000FE3EDF005F08400131020318602A612A16
:1004C000642A31084101DF004101E001832A60080C
:1004D00040013007B300330886008701A030410196
:1004E00060074001B4004101630840013407B500D2
:1004F0003508023E84008501000881000130B30008
:1005000033084101E0075F086002031C882A892A3A
:10051000672A400132088600870141015F08810097
:10052000013008004001C200033029020318992A53
:100530009A2A9C2A0030DF2B42088600013087006F
:100540000108BB003B080739B3003B1AA82AAA2AB6
:100550000130AB2A0030B400BB19AF2AB12A0130F8
:10056000B22A0030B500C301C30A42088600013038
:1005700087000130413FBC000130AC002C08C307AC
:1005800034080319C42AC52ADF2A29084302031C98
:10059000CA2ACB2ACC2A9A2A43084207AC002C0844
:1005A0008600013087000108AD00AE012D08BE00B5
:1005B0002E08BF000130AC002C08C307162B4308DF
:1005C000043EAC00003003180130AD002908AE0035
:1005D000AF012D082F02031DEF2A2C082E02031C49
:1005E000F22AF32A9A2A43084207AC002C08033E59
:1005F0008600013087000108AD00AE0143084207C4
:10060000AF002F08023E8600013087000108B000CD
:10061000B1013008B100B0012D083004BE002E0831
:100620003104BF000430AC002C08C307B801350802
:1006300003191B2B1C2B302B29084302031C212BD5
:10064000222B232B9A2A43084207AC002C08860051
:10065000013087000108B8000130AC002C08C30746
:1006600043083C07AC00AD01AD0D2908AE00AF0159
:100670002D082F02031D3E2B2C082E020318412BA0
:10068000422B432B9A2AB9013303031D482B492BD4
:100690005D2B3C03031D4D2B4E2B5D2B4308420766
:1006A000AC002C0886000130870054300106031D81
:1006B0005A2B5B2B5D2BB901B90A3908031D612B3D
:1006C000632B0130642B0030B60043083C07380729
:1006D000C3003608031D6D2B6E2B6F2B9A2A43081F
:1006E0003E07AC003F0803183F0AAD002908AE00E2
:1006F000AF012D082F02031D7F2B2C082E0203189B
:10070000822B832B842B9A2A42084307BA003A088B
:100710008600013087000108B70037083F39BD0067
:100720003D08013EAC00003003180130AD002D083B
:100730003F02031D9D2B2C083E020318A02BA12B6A
:10074000A22B9A2A3F08AD003D083E02AC00031CD4
:10075000AD032C08FF3EC000FF302D3DC1002B082B
:10076000FF3EAC00FF3003180030AD0041082D0201
:10077000031DBC2B40082C020318BF2BC02BC72B1A
:100780002B08FF3EC000FF3003180030C1003A08BC
:100790003D07013EA0000130A1004108A300400830
:1007A000A2002A088B31D0238231400140082A0759
:1007B000AC002C0886000130870081010130080060
:1007C0008A310F2283318B170B1740019210981436
:1007D00029304001D8009630D7007F30890BEE2BAE
:1007E000D70BEE2BD80BEE2B8F3112278331420122
:1007F000D30053080319FD2BFE2B382C4201CF01E7
:10080000252C4001981409304001D8001E30D70033
:10081000E430890B092CD70B092CD80B092C0000CC
:100820004001981009304001D8001E30D700E43054
:10083000890B182CD70B182CD80B182C0000013062
:100840004001D70057084201CF0753084F02031C4D
:100850002A2C2B2C012C29304001D8009630D700AF
:100860007F30890B312CD70B312CD80B312CFE2B40
:10087000400198108931512183316B304001A00033
:100880000A30A1008C31252483318E313826833102
:10089000790803194C2C4D2CCE2C54304001B70054
:1008A00047308D3179258331003A0319582C592C62
:1008B000CE2C400198144201D001D00A54085806A9
:1008C000031D632C642C822C47304001A0000130B2
:1008D000A1005930A2000130A30042015408400198
:1008E000D700D8015708A4005808A5008C318F24E0
:1008F0008331400120082104031D7F2C802C822C91
:100900004201D00142015008031D872C892C01307F
:100910008A2C0030CE004E0803198F2C902CDB2C33
:1009200020304001D10027308431EB248331003A5C
:1009300003199B2C9C2CB82C27308A31F32283314D
:10094000400130084201D20040012F084201D1008D
:10095000510852040319AD2CAE2CB82C520840019A
:10096000C400420151084001C3008931792183311B
:1009700047304001A0000130A1004201540840016D
:10098000D700D8015708A2005808A30059308B316E
:10099000D023833142015408D800DB2C420158088F
:1009A0000319D32CD42CD72C8B31542383314201FF
:1009B000D8014001981007304001D8001730D70007
:1009C0006A30890BE12CD70BE12CD80BE12C00000D
:1009D000452C803114284201A000A6010430A30058
:1009E000A501792D42012608A03E4001B700420131
:1009F00023088C3150248431003A031D002D012D31
:100A0000032D0030922D42012608103EA600230837
:100A1000043EA300732D2508A03E86000130870008
:100A20000108A1002108031D162D172D1E2D0130D0
:100A30004001D20052084201A507732DFE30210665
:100A4000031D232D242D252D012D013025074001C7
:100A5000D2004201260840015202031C302D312DE4
:100A6000322D792D42012508A13E860001308700F4
:100A70000108A400240A031D3E2D3F2D402D012D09
:100A80002508023EA200220824074001D200D3011B
:100A9000D30D420126084001D400D5015308550268
:100AA000031D542D520854020318572D582D592D4B
:100AB000792D033042012106031D5F2D602D702D1D
:100AC00024084001A900420120084001AA00510861
:100AD000AB0042012208A03E823192228431922D45
:100AE00022082407A50026082502031C782D792D4D
:100AF0000B2D29304201230203187F2D802D012D5B
:100B00002608103E4001D200003003180130D30007
:100B100000305302413003195202031C902D912DD5
:100B2000F22C012D08004001A4002408A70022088F
:100B30002304031D9C2D9D2D9E2D2C2E2708860001
:100B4000013087002008810022082707F40074087C
:100B5000FF3E86000130870020088100003023021C
:100B60000330031922020318B62DB72DB82D2C2EF1
:100B7000270A860001308700200881002708023EEE
:100B80008600013087002008810022082707F40032
:100B90007408FE3E8600013087002008810022088C
:100BA0002707F4007408FD3E860001308700200806
:100BB0008100003023020730031922020318E12DBF
:100BC000E22DE32D2C2E2708033E860001308700FE
:100BD0002008810022082707F4007408FC3E8600E4
:100BE00001308700200881000030230209300319FA
:100BF00022020318FC2DFD2DFE2D2C2E2709F400BA
:100C00002809F500F40A0319F50A03307405A50054
:100C100000307505A6002508F4007408A70725080C
:100C2000A2022608A33BFC30A205FF30A305262E16
:100C30002708860001308700200881000130A202C9
:100C40000030A33B0130F4007408A70722082304F6
:100C5000031D2B2E2C2E182E08004001A500AC01E0
:100C6000A901AA01A601A701A8014C019A1C392ECD
:100C70003A2E402E1A121A16402E8B31A623863198
:100C80008731FB278631003A031D472E482E3D2E23
:100C90004001AB01642E8A3100228631003A0319EB
:100CA000522E532E4B2E40012B082507F5007508B8
:100CB000860087010108F400893116218631013050
:100CC000F50075084001AB0720082B02031C692EB4
:100CD0006A2E4B2E893112218631003A0319712E6A
:100CE000722E6A2EB62E8731FB278631003A031901
:100CF0007A2E7B2E902E40012C082107F5007508D6
:100D0000860087018B31A623863181000130F500F2
:100D100075084001AC07A801A80AA901AA01B62ECE
:100D20001A30890B912E003240012808031D992E9C
:100D30009A2EA82E0130A6070030A73D27302702A3
:100D4000103003192602031CA62EA72EB62EBD2E88
:100D50000130A9070030AA3D27302A0210300319BC
:100D60002902031CB42EB52EB62EBD2E400122083A
:100D70002C02031CBC2EBD2E732E2C080800400133
:100D8000AC00AA01AB01A801A901CA2E0130A6003E
:100D90002608AC072C0886000130870020300106A9
:100DA0000319D32ED42EC62E2C08860001308700BE
:100DB0000108F73EA600FF3003180030A7000030FE
:100DC0002702053003192602031CE72EE82EC62E43
:100DD000F22E0130A8000030A9000130A60026083C
:100DE000AC07242F2C088600013087000108A600DC
:100DF000A7012708003A0319FE2E242F26082B3AB4
:100E00000319ED2E063A0319E92E242F2C0886002B
:100E1000013087002B08A1002A08A0000A30A20098
:100E20000030A3008B311223863140012108A70036
:100E300001082002A600031CA7032608303EAA00D2
:100E40000030273DAB00ED2E2C08860001308700D6
:100E50000108D03EA600FF3003180030A700003084
:100E600027020A3003192602031C372F382F062FBA
:100E700028082904031D3D2F3E2F4A2F2A09A600CA
:100E80002B09A700A60A0319A70A2608A400270809
:100E9000A5004E2F2B08A5002A08A40008008931C0
:100EA000492187314001B301A32F89314221873184
:100EB000003A03195C2F5D2F6C2F40013308283E48
:100EC000860087018B317C2387318100013040010E
:100ED000A4002408B307A32F3530890B6D2F000021
:100EE00040012308031D7F2F2208031D7F2F2108A7
:100EF000031D7F2F1530200203187F2F802F8A2F8C
:100F000000304001A3000030A2000030A1000030FA
:100F1000A000A32FEC304001A400FF30A500FF305B
:100F2000A600FF30A7002008A4072108A53D22083D
:100F3000A63D2308A73D2708A3002608A2002508F0
:100F4000A1002408A0000A3033020318A82FA92FFB
:100F5000B12F2308220421042004031DB02FB12F38
:100F6000552F0A3033020318B62FB72FB92F003090
:100F7000CF2FB2017E302806031DBF2FC02FCE2FEA
:100F800041302B06031DC52FC62FCE2FEF30310663
:100F9000031DCB2FCC2FCE2FB201B20A320808008E
:100FA0004001C8006D084807C900CA010318CA0AF1
:100FB000C81FDB2FCA034001CA1FDF2FE02FE22F1B
:100FC000C901CA014A08803AC70080304702031DA0
:100FD000EB2F1A304902031CEE2FEF2FF42F19309C
:100FE0004001C9000030CA004001C30149088A31EC
:100FF00051228731080041010F0E890C0139080088
:1011E80008000800080008000134143400340134F1
:1011F8000034083401304001EA0008004C01110CA9
:101208000139080074084C018D0008004C011A12BD
:101218001A1608004C011012101608004C011B0C7D
:101228000139080074084C01970008000534FF34A0
:101238000134023475084101EC007408EB00080021
:1012480075084101EA007408E900080075084101C1
:10125800E8007408E700080075084001E800740811
:10126800E7000800640080010131890B3729003448
:10127800FE0012001E00FE0B3D29003441010F0C38
:10128800F400F40C740C013908004C01901C4D2931
:101298004E2950291012101608004001C301C30A34
:1012A80008308A3151228931080044018E018F01AA
:1012B80091010530930090019201940108000030DB
:1012C8004001B400B500B601B60A16308F31872741
:1012D8008931080041010C100B140030F400003073
:1012E800F500893130218931080040014408B500F2
:1012F8004308B400B601B60A12308F318727893106
:1013080008007408750403198A298B29902975081F
:101318004001E4007408E300080074087504031928
:10132800962997299C2975084001E2007408E10074
:101338000800740875040319A229A329A8297508A7
:101348004001DE007408DD00080074087504031904
:10135800AE29AF29B42975084001DC007408DB0008
:10136800080041016B086C040319BB29BC29C12979
:101378006C088A006B080A0089317D019311080006
:10138800410169086A040319CA29CB29D0296A08C6
:101398008A0069080A0089317D01A7110800410106
:1013A800670868040319D929DA29DF2968088A0037
:1013B80067080A0089317D0127120800F4014101FC
:1013C8000F1DE729E829EF294C01911EEC29ED2989
:1013D800EF29F401F40A74080800F5008931E221C4
:1013E8008931003A0319F929FA29F2297508F40014
:1013F8008931062189310800F40141010F1E052AAF
:10140800062A0D2A4C019B1E0A2A0B2A0D2AF401D2
:10141800F40A74080800893159218A318E31A526C9
:101428008A318A31D6228A318A31BA228A3189317F
:101438006E218A3108007D01931D232A242A272A38
:101448008931B5218A317D01A71D2B2A2C2A2F2A03
:101458008931C4218A317D01271E332A342A372A4B
:101468008931D3218A3108007408D03E4001A00098
:10147800FF30753DA100003021020A300319200217
:10148800031C472A492A01304A2A0030A200A30136
:101498002208F4002308F50008004001C6001A30AD
:1014A8004602031C582A592A5B2A1930C6004608E6
:1014B800ED004608C400C5014408B4004508B5005D
:1014C8004308B60006308F3187278A3108008931F2
:1014D80063218A3100304001A000A1000730A2003A
:1014E8000030A3005930853193258A314201D80153
:1014F80079080319802A822A0130832A0030F900EA
:1015080008004001A000200886000130870001087B
:101518007406031D902A912A932A20089E2A2008DF
:10152800860001308700A00A0108031D9C2A9D2A15
:10153800872A0030080075084001A2007408A1003D
:10154800A92A0130F4070030F53D740884007508B5
:1015580085001200031DB12AB22AA52A40012108DC
:101568007402F4002208753BF500080048304C016D
:101578009C0090309A0026309B00443098009901D6
:10158800F730F4000830F50089319D218A310A309E
:10159800F4000930F5008931A9218A314001DF01C1
:1015A800E001080048304C0192009030900026304D
:1015B800910040308E0003308F000230F40000307C
:1015C800F500893185218A310E30F4000930F500A3
:1015D800893191218A314001E501E6010800400185
:1015E800B1007630A8009030A90031088C31D3249E
:1015F8008A314001B2003208031D032B042B072B4C
:10160800AF01B001112B3208023E8631BF268A3164
:1016180040012508B0002408AF000800F401F501D6
:101628004001201C182B192B1D2B2208F407230816
:10163800F53D0130A235A30D890B1E2B0130A136D3
:10164800A00C890B232B20082104031D2C2B2D2BE8
:10165800142B7508A1007408A00008004001A2011D
:10166800A20A20307406750403193B2B3C2B4C2B23
:101678007408F73EA000FF30753DA100003021023C
:10168800053003192002031C4A2B4B2B4C2BA201BB
:101698002208A000A1012008F4002108F500080094
:1016A80040016D08C9006B2BC3016D08FF3E8A31EC
:1016B80051228B3104304001C8004030C700263029
:1016C800890B642BC70B642BC80B642B00004001EB
:1016D8006D08031D702B712B582B893163218B31B9
:1016E8004001C301C30A49088A3151228B310800DD
:1016F8004001E501E6014C01901C832B842B912BC2
:10170800400165156108620403198B2B8C2B912B02
:1017180062088A0061080A008B314C01101D952B64
:10172800962BA32B4001E5146308640403199D2B31
:101738009E2BA32B64088A0063080A008B314C0196
:101748000C0808004001DF01E0014C019A1CAD2B98
:10175800AE2BBB2B40015F155B085C040319B52B4E
:10176800B62BBB2B5C088A005B080A008B314C0146
:101778001A1DBF2BC02BCD2B4001DF145D085E0462
:101788000319C72BC82BCD2B5E088A005D080A00F9
:101798008B314C01160808004001A8002108A6005A
:1017A8002008A5002808A700ED2B25088600260894
:1017B80087000108A4000130A5070030A63D2708CE
:1017C800860001308700240881000130F400740885
:1017D800A7070130A2020030A33B220A031DF82B01
:1017E800230A031DF82BF92BD92B080040010E0EF4
:1017F8000139F0000E0CF100F10C710C01390907E8
:101808007004F3007808F0000130F035FF3E031D46
:10181800092C70357304F2007208603E8400903021
:101828000318013E85000008F000F101F01BF103E8
:1018380076087007F6007708713DF7007308F8001E
:10184800080040012108DA002008D9007D01A1150F
:1018580021168D1540010E0E0139A2000E0CA300B1
:10186800A30C230C013909072204F800FA30F4000C
:101878000B30F500893124218C31FA30F4000B301B
:10188800F50089312A218C31FE30F4000830F5004A
:1018980089311E218C3108004001CC000030CD0078
:1018A8000030CE000030CF00CD01CD0A3030CE0060
:1018B8004C08CF004D30AD000330AE00AF013830DA
:1018C800B0001430B1005030B200403080315D209B
:1018D8008C31003A031D712C722C742C00308E2C24
:1018E800113040015002031C7A2C7B2C722C3808D2
:1018F80003197F2C802C812C722C3930A0000030E9
:10190800A1001030A2000030A30037088B31D0238B
:101918008C310130080040012108A7002008A600EA
:101928002308A9002208A800A52C0130A402003031
:10193800A53B0130A6070030A73D0130A8070030BD
:10194800A93D240825040319AA2CAB2CBB2C280874
:101958008400290885000008F40026088600270866
:101968008700010874060319BA2CBB2C992C24088B
:101978002504031DC02CC12CC42CA001A101D22C0C
:10198800260886002708870028088400290885007B
:1019980000080102A000A101031CA10308004001E6
:1019A800AE00280829040319DA2CDB2C1D2D290880
:1019B800F5002808F4008A319F228C31750840010F
:1019C800AD007408AC000F2D2908A1002808A0005C
:1019D8002D08A3002C08A2002E088D311F258C315C
:1019E800400120082104031DFA2CFB2CFD2C2E0895
:1019F8001E2D28088400290885000008AA00AB01CC
:101A08002A08F4002B08F5002E08013E8A318522A9
:101A18008C314001AE002E080319132D142D1D2DF5
:101A28002E088600013087000108031D1C2D1D2D7E
:101A3800E82C003008004001A4002408A700210871
:101A4800A6002008A5000130A2020030A33B220A0C
:101A5800031D322D230A031D322D332D422DA001E3
:101A6800A101782D0130F4007408A7070130A507FB
:101A78000030A63D0130A2020030A33B27088600B3
:101A880001308700010803194A2D4B2D6A2D2508BE
:101A980084002608850012000319532D542D6A2D41
:101AA800220823040319592D5A2D6A2D250884006C
:101AB800260885000008F400270886000130870002
:101AC800010874060319692D6A2D362D270886002A
:101AD80001308700250884002608850000080102D7
:101AE800A000A101031CA10308004001D3006C0859
:101AF800D2006B08D1005130AD000230AE00AF010A
:101B08003930B0001830B1005430B2004A3080315A
:101B18005D208D31003A031D922D932D952D0030B7
:101B2800D72D4001540803199A2D9B2D932D390860
:101B3800031D9F2DA02DA12D932D3E08D6005608DC
:101B48000319A72DA82D932D083056020318AD2D83
:101B5800AE2D932D5608063E54020318B42DB52D0C
:101B6800B62D932DD501CA2D55085307B80038084E
:101B78008600013087005508063E393E84008501FD
:101B8800000881000130B8003808D507560855020A
:101B9800031CCF2DD02DB82D3708860001308700C3
:101BA80056088100013008004001A501A11FDD2D64
:101BB800DE2DE52DA009A109A00A0319A10AA50196
:101BC800A50AA31FE82DE92DF22DA209A309A20A4F
:101BD8000319A30A0130F4007408A506A601A70199
:101BE800200821040319F92DFA2D292EA401A40A8D
:101BF800062E0130A035A10D890BFE2D0130F40011
:101C08007408A407A11F092E0A2EFD2D0130A63540
:101C1800A70D890B0B2E21082302031D152E200862
:101C28002202031C182E192E1E2E2008A20221089B
:101C3800A33B26140130A136A00C890B1F2E0130BE
:101C4800A402031D282E292E0A2E250803192D2E3D
:101C58002E2E332EA609A709A60A0319A70A2708B4
:101C6800A1002608A00008004101161277084001CB
:101C7800CE007608CD000430A0000030A1004E0848
:101C8800A3004D08A2008D31D8258E3140012008CF
:101C9800CF004F08CB00CC01CB1BCC03CB35CC0DF0
:101CA800CB35CC0D4B084D02F6004C084E3BF700E7
:101CB8004101161640014F080319632E642E682E41
:101CC8004F088731D0278E3140016A0803196D2EDD
:101CD8006E2E992E410116124001EA014101161695
:101CE80040016908031D792E7A2E992E0230400191
:101CF800CC003830CB00AD30890B802ECB0B802E3A
:101D0800CC0B802E40018C198A2E8B2E992EE9013E
:101D1800E90A59085A040319922E932E992E5A0843
:101D28008A0059080A008E31992E40016908031962
:101D38009E2E9F2EA42E8C1DA22EA32EA42EE9012A
:101D480008004001980199019A019B019C01FD300E
:101D58009200E7309300FF309400FD3095000F307B
:101D68009600F5307D018C00CF309600E730A0005A
:101D7800FB30AA000730B4008D019701A101AB0127
:101D8800B5018E019801A201AC01B601FF308F00A8
:101D9800FF309900FF30A300FF30AD000730B700D7
:101DA800FF309000FF309A00FF30A400FF30AE00F3
:101DB8000F30B8001A307C01C3000D30C10011305B
:101DC8007B0197001130A5000E3098007D0191012C
:101DD8000830920093019B019C019D011830A500D9
:101DE8001830A600A701B901BA01BB01F430F4000C
:101DF8000830F50089311E218E31F630F4000830A4
:101E0800F500893124218E31F530F4000830F500D1
:101E180089312A218E3141011616080068304001A7
:101E2800B700E430890B162FB70B162F00004101BD
:101E38006D084001CC0041016E084001CD00410110
:101E48006F084001CE004C30AD000330AE00AF014A
:101E5800AF0A3830B0001030B1004F30B200143043
:101E680080315D208F31003A031D3B2F3C2F3E2FE0
:101E78000130862F420163084001CB00420162080D
:101E88004001CA00420161084001C90042016008DE
:101E98004001C8004830AD000430AE00AF01383012
:101EA800B0001030B1004F30B200323080315D20C8
:101EB8008F31003A031D612F622F642F0230862F65
:101EC8004001AD01AE01AF013830B0001030B100B3
:101ED8004F30B200023080315D208F31003A031953
:101EE800762F772F832F40014F0803197C2F7D2FE2
:101EF800832F323038060319822F832F852F033022
:101F0800862F003008004001BD003508C0003408A5
:101F1800C100C201C20A3D08B700B801B709B80933
:101F2800B70A0319B80A3808BA0040083702B900D6
:101F3800031CBA033A08BC0041083902BB00031C61
:101F4800BC033B08FA3EBE00FE303C3DBF00AF2F4D
:101F58008B317C238F31893142218F31003A031D27
:101F6800B62FB72FAC2F7E308931F1218F31FF305A
:101F78008931F1218F3106308931F1218F314001CA
:101F88003D088931F1218F31400142088931F12121
:101F98008F31400140088931F1218F3140014108DA
:101FA8008931F1218F3140013F088931F1218F3189
:101FB80040013E088931F1218F31EF308931F1211B
:101FC8008F31893102218F31003A0319EC2FED2F1F
:101FD800E52F40013608031DF22FF32FF42FFF2FB2
:101FE8000030A3000030A200C330A1005030A00090
:101FF80087314F278F310800BA340A34003400344F
:10200800A6340B3416340934FB34073400340A344C
:1020180012340934003400340034003400340034FD
:102028000034003400340034003400340034003408
:1020380000340034003400340034003400340034F8
:1020480000340034003400349D340934A934093490
:102058000034003400340034D6340A3400340034F8
:102068007C340B340634093442340934E2340934FC
:1020780002340934003400340034003400340034AD
:1020880000340034003400340034003400340034A8
:102098000034003400340034003400340034003498
:1020A8000034003400340034853409349134093460
:1020B80000340034003400340034FF340134003478
:1020C800013400340034FF34FF3400340034013468
:1020D80000340134FF34003400340034FF34003459
:0A20E800FF3400343A343A34003477
:020000040001F9
:04000E008F3FE73FFA
:04001400FF3FFF3F6C
:00000001FF
