:1000000080311428080001347E1480314101161E0D
:100010000A280B2812280C1E0E280F2812289731A8
:10002000692780317E100900803116288031032035
:100030008031F9008731FE278031ED008731FF27BD
:100040008031EE005E308400963085005E308600A0
:10005000013087000930963141268031F601F701E1
:10006000F801E701E801E901EA01EB01EC01E73001
:10007000840000308500083096313B2680315030B6
:100080008400013085000E3096313B268031A0304F
:10009000840001308500473096313B2680317E1048
:1000A00040018331D62B4101DD00083040012E0292
:1000B000031C5B285C285E280030872A4101E6018A
:1000C00040012E08023E4101D90040012F080319CA
:1000D0006A286B28A12855304101C0000130400139
:1000E000B30033084101E6076608C03E8600870179
:1000F0005530810001304001B30033084101E6076B
:100100006608C03E86008701810101304001B300CE
:1001100033084101E6076608C03E86008701810179
:1001200001304001B30033084101E6076608C03ED4
:1001300086008701810101304001B300330841018D
:10014000E60741016608C03E860087018101013053
:100150004001B30033084101E6076608C03E86004F
:100160008701810101304001B30033084101E607F6
:100170006608C03E86008701FF30810001304001E3
:10018000B30033084101E6076608C03E86008701D8
:100190005908810001304001B30033084101E607EE
:1001A0006608C03E860087015908003C8100013086
:1001B0004001B30033084101E607D430E10066088E
:1001C000C03E86008701D430810001304001B30079
:1001D00033084101E6076608C03E860087015D08D6
:1001E000810001304001B30033084101E607610896
:1001F0005D07E100DE011F296608C03E8600870119
:100200005E0840012D07B300330884008501000813
:1002100081000130B30033084101E6075E08400168
:100220002D07B300330886008701010841016107EB
:10023000E10001304001B30033084101DE07400115
:100240002E0841015E02031C26292729FC28660886
:10025000C03E860087016108003C810001304001FA
:10026000B30033084101E6076608C03E86008701F7
:10027000810101304001B30033084101E6076608FF
:100280004001A000A030A1002030A200E830A3006F
:100290000330A400C0308631BA2680314101E2002B
:1002A0000630620203185529562957295C28A030C8
:1002B0004001A0000030A1001C30A2009830A30033
:1002C0000630A4000030A5008B313223803140017C
:1002D0002008210403196D296E296F295C28063036
:1002E0004101E500982941016508A03E860087018B
:1002F0000108031D7C297D2992296508013EA03E45
:10030000860087010108031D86298729922965082F
:10031000023EA03E86008701010A031D9029912913
:100320009229A42901304001B30033084101E507B7
:10033000023065074001B300410162084001330209
:10034000031CA329A4297329023041016507400138
:10035000B3004101620840013302031CB029B129F6
:10036000B2295C2841016508053E62020318B929DB
:10037000BA29BB295C286508033EA03E8600870198
:100380000108E4006508043EA03E860087010108DC
:10039000D700640857070319CE29CF29D0295C2834
:1003A000023064020318D529D629D7295C286408AD
:1003B000073ED500003003180130D6006508550708
:1003C0004001B300410156080318560A4001B40029
:1003D000410162084001B500B60134083602031D30
:1003E000F329330835020318F629F729F8295C2880
:1003F00041016508053EE3006308A03E86008701D1
:10040000D53001060319052A062A072A5C28630845
:10041000013EA03E860087015D0A01060319112AEC
:10042000122A132A5C28DB01DC012C2AA0305C078D
:100430004001B3004101630840013307B4003408B0
:1004400086008701010841015B07DB0001304001A4
:10045000B30033084101DC0764085C02031C312A45
:10046000322A162A63086407DA005A08A03E86007A
:10047000870101085B0703193E2A3F2A402A5C28AE
:100480005A08013ED8005808A03E8600870101089E
:1004900003194B2A4C2A4D2A5C286408FE3EDF00D3
:1004A0005F08400131020318562A572A5A2A310898
:1004B0004101DF004101E001792A60084001300775
:1004C000B300330886008701A03041016007400176
:1004D000B4004101630840013407B5003508023E0D
:1004E00084008501000881000130B3003308410118
:1004F000E0075F086002031C7E2A7F2A5D2A400114
:1005000032088600870141015F0881000130080040
:100510004001C2000330290203188F2A902A922A30
:100520000030D52B42088600013087000108BB004F
:100530003B080739B3003B1A9E2AA02A0130A12AA2
:100540000030B400BB19A52AA72A0130A82A003020
:10055000B500C301C30A420886000130870001309C
:10056000413FBC000130AC002C08C307340803191C
:10057000BA2ABB2AD52A29084302031CC02AC12A49
:10058000C22A902A43084207AC002C08860001309A
:1005900087000108AD00AE012D08BE002E08BF0087
:1005A0000130AC002C08C3070C2B4308043EAC0000
:1005B000003003180130AD002908AE00AF012D084E
:1005C0002F02031DE52A2C082E02031CE82AE92A23
:1005D000902A43084207AC002C08033E86000130F5
:1005E00087000108AD00AE0143084207AF002F08A5
:1005F000023E8600013087000108B000B1013008DA
:10060000B100B0012D083004BE002E083104BF0037
:100610000430AC002C08C307B80135080319112BAE
:10062000122B262B29084302031C172B182B192BDE
:10063000902A43084207AC002C088600013087004E
:100640000108B8000130AC002C08C30743083C0780
:10065000AC00AD01AD0D2908AE00AF012D082F0291
:10066000031D342B2C082E020318372B382B392B63
:10067000902AB9013303031D3E2B3F2B532B3C0320
:10068000031D432B442B532B43084207AC002C087B
:1006900086000130870054300106031D502B512B7A
:1006A000532BB901B90A3908031D572B592B0130B7
:1006B0005A2B0030B60043083C073807C300360801
:1006C000031D632B642B652B902A43083E07AC0067
:1006D0003F0803183F0AAD002908AE00AF012D08FE
:1006E0002F02031D752B2C082E020318782B792B53
:1006F0007A2B902A42084307BA003A088600013054
:1007000087000108B70037083F39BD003D08013EAA
:10071000AC00003003180130AD002D083F02031D6E
:10072000932B2C083E020318962B972B982B902A7C
:100730003F08AD003D083E02AC00031CAD032C0891
:10074000FF3EC000FF302D3DC1002B08FF3EAC0036
:10075000FF3003180030AD0041082D02031DB22BFD
:1007600040082C020318B52BB62BBD2B2B08FF3EDF
:10077000C000FF3003180030C1003A083D07013EB9
:10078000A0000130A1004108A3004008A2002A08EF
:1007900089310F218231400140082A07AC002C0822
:1007A0008600013087008101013008009731B427AD
:1007B00083318B170B174001921098142930420196
:1007C000A1009630A0007F30890BE42BA00BE42B16
:1007D000A10BE42B8E311C2683314201CE004E0842
:1007E0000319F32BF42B2D2C4201CA011A2C4001C2
:1007F000981409304201A1001E30A000E430890B9A
:10080000FF2BA00BFF2BA10BFF2B0000400198102A
:1008100009304201A1001E30A000E430890B0E2CEB
:10082000A00B0E2CA10B0E2C000001304201A000E9
:100830002008CA074E084A02031C1F2C202CF72B45
:1008400029304201A1009630A0007F30890B262C70
:10085000A00B262CA10B262CF42B400198109631CE
:10086000562683310B304001A0000830A1008931A9
:10087000E72183319631DB2683318E319126833116
:100880008A31F222833179080319472C482CCD2C68
:100890004F304001B70042308C31D7248331003AC9
:1008A0000319532C542CCD2C400198144201CB0138
:1008B000CB0A4F085D06031D5E2C5F2C7F2C423057
:1008C0004001A0000130A100E030A2000130A300EF
:1008D00042014F08A000A10120084001A4004201EC
:1008E00021084001A5008B313223833140012008CB
:1008F0002104031D7C2C7D2C7F2C4201CB01420165
:100900004B08031D842C862C0130872C0030C90035
:10091000490803198C2C8D2CDA2C20304001D10091
:100920002230863125268331003A0319982C992CE0
:10093000B52C22308831AF2083314001300842018C
:10094000CD0040012F084201CC004C084D04031992
:10095000AA2CAB2CB52C4D084001D80042014C0804
:100960004001D7008A317E22833142304001A0000D
:100970000130A10042014F08A000A1012008400160
:10098000A200420121084001A300E03089310F217B
:10099000833142014F08DD00DA2C42015D08031962
:1009A000D22CD32CD62C8D31A92583314201DD01E7
:1009B0004001981007304201A1001730A0006A30B2
:1009C000890BE02CA00BE02CA10BE02C00003D2CAF
:1009D000803114284001D4005408C000C1014008EF
:1009E000A2004108A3005408C200C3014208A000AD
:1009F0004308A1008831CE20843140012008C40082
:100A00002108C500C601C7014708A7004608A6007F
:100A10004508A5004408A4005408C800C901CA013B
:100A2000CB014B08AB004A08AA004908A9004808B6
:100A3000A8008A311522843140012708CF002608FA
:100A4000CE002508CD002408CC003E08C000C1011E
:100A50004008A2004108A3003E08C200C3014208AA
:100A6000A0004308A1008831CE2084314001200835
:100A7000C4002108C500C601C7014708A7004608F1
:100A8000A6004508A5004408A4003E08C800C90106
:100A9000CA01CB014B08AB004A08AA004908A900CB
:100AA0004808A8008A311522843140012708D30064
:100AB0002608D2002508D1002408D0005308B3002E
:100AC0005208B2005108B1005008B0004F08A7000A
:100AD0004E08A6004D08A5004C08A4000030AB004D
:100AE0000030AA000330A900FF30A8008A31152287
:100AF000843140012708B7002608B6002508B50054
:100B00002408B4008C311C24843140013108BF001A
:100B10003008BE0008004001A4002408A7002208F5
:100B20002304031D942D952D962D242E2708860031
:100B3000013087002008810022082707F40074088C
:100B4000FF3E86000130870020088100003023022C
:100B50000330031922020318AE2DAF2DB02D242E21
:100B6000270A860001308700200881002708023EFE
:100B70008600013087002008810022082707F40042
:100B80007408FE3E8600013087002008810022089C
:100B90002707F4007408FD3E860001308700200816
:100BA0008100003023020730031922020318D92DD7
:100BB000DA2DDB2D242E2708033E86000130870026
:100BC0002008810022082707F4007408FC3E8600F4
:100BD000013087002008810000302302093003190A
:100BE00022020318F42DF52DF62D242E2709F400EA
:100BF0002809F500F40A0319F50A03307405A50065
:100C000000307505A6002508F4007408A70725081C
:100C1000A2022608A33BFC30A205FF30A3051E2E2E
:100C20002708860001308700200881000130A202D9
:100C30000030A33B0130F4007408A7072208230406
:100C4000031D232E242E102E08004001D600DC01A7
:100C50000430D900DB01A22E5C08A03EB700590881
:100C60008A31B3228631003A031D372E382E3A2EB0
:100C70000030B92E40015C08103EDC005908043EEB
:100C8000D9009C2E5B08A03E860001308700010839
:100C9000D7005708031D4D2E4E2E532E0130D20083
:100CA0005208DB079C2EFE305706031D582E592E86
:100CB0005A2E382E01305B07D2005C085202031C0A
:100CC000622E632E642EA22E5B08A13E86000130A8
:100CD00087000108DA005A0A031D6F2E702E712E4C
:100CE000382E5B08023ED80058085A07D200D301BC
:100CF000D30D5C08D400D50153085502031D822E84
:100D0000520854020318852E862E872EA22E0330F9
:100D10005706031D8C2E8D2E992E5A08A9005608B1
:100D2000AA005108AB005808A03E823188228631C3
:100D3000B92E58085A07DB005C085B02031CA12E81
:100D4000A22E422E293059020318A72EA82E382E83
:100D50005C08103ED200003003180130D300003090
:100D60005302413003195202031CB72EB82E2C2E09
:100D7000382E08004001A500AC01A901AA01A60176
:100D8000A701A8014C019A1CC62EC72ECD2E1A12FF
:100D90001A16CD2E8931BB2186319631182686311F
:100DA000003A031DD42ED52ECA2E4001AB01F12EE0
:100DB000973134278631003A0319DF2EE02ED82EE2
:100DC00040012B082507F5007508860087010108FA
:100DD000F4009631142686310130F5007508400183
:100DE000AB0720082B02031CF62EF72ED82E9631C7
:100DF00010268631003A0319FE2EFF2EF72E432FC0
:100E0000963118268631003A0319072F082F1D2F17
:100E100040012C082107F5007508860087018931FB
:100E2000BB21863181000130F50075084001AC0717
:100E3000A801A80AA901AA01432F1A30890B1E2F65
:100E4000003240012808031D262F272F352F01309F
:100E5000A6070030A73D27302702103003192602CD
:100E6000031C332F342F432F4A2F0130A9070030A2
:100E7000AA3D27302A02103003192902031C412FF2
:100E8000422F432F4A2F400122082C02031C492FD6
:100E90004A2F002F2C0808004001AC00AA01AB012A
:100EA000A801A901572F0130A6002608AC072C087D
:100EB000860001308700203001060319602F612F62
:100EC000532F2C088600013087000108F73EA6004A
:100ED000FF3003180030A700003027020530031947
:100EE0002602031C742F752F532F7F2F0130A8006B
:100EF0000030A9000130A6002608AC07B12F2C084D
:100F00008600013087000108A600A7012708003AE3
:100F100003198B2FB12F26082B3A03197A2F063A83
:100F20000319762FB12F2C088600013087002B087B
:100F3000A1002A08A0000A30A2000030A3008831D6
:100F4000CE20873140012108A70001082002A60019
:100F5000031CA7032608303EAA000030273DAB0043
:100F60007A2F2C088600013087000108D03EA600A9
:100F7000FF3003180030A700003027020A300319A1
:100F80002602031CC42FC52F932F28082904031DF4
:100F9000CA2FCB2FD72F2A09A6002B09A700A60AF4
:100FA0000319A70A2608A4002708A500DB2F2B0891
:100FB000A5002A08A40008004001A201A20A2030CE
:100FC000740675040319E52FE62FF62F7408F73E13
:100FD000A000FF30753DA10000302102053003194B
:100FE0002002031CF42FF52FF62FA2012208A000E7
:100FF000A1012008F4002108F50008000334123490
:1010000041010C100B140030F4000030F500963153
:101010002F26883108008D31A92588310030400104
:10102000A000A1000730A2000030A300E03085310D
:101030008B2588314201DD017908031920282228F7
:10104000013023280030F90008004001A0002008EA
:1010500086000130870001087406031D30283128FE
:10106000332820083E282008860001308700A00A87
:101070000108031D3C283D2827280030080075087A
:101080004001A2007408A10049280130F407003093
:10109000F53D74088400750885001200031D512871
:1010A00052284528400121087402F4002208753BAB
:1010B000F50008004001B00030082C02013EAF00EE
:1010C0002F08AD00AE012D08A6002E08A70088311C
:1010D000EE20883140012508A9002408A8008A31A3
:1010E00049228831400126083007080048304C0169
:1010F0009C0090309A0026309B0044309800990163
:10110000F830F4001530F50096319F26883108300C
:10111000F4001630F5009631AB2688314201D90132
:10112000DA01080048304C019200903090002630DF
:10113000910040308E0003308F000230F400003008
:10114000F5009631872688310C30F4001630F50012
:101150009631932688314201DB01DC010800400111
:10116000B1002230A8009830A90031088B317623D5
:1011700088314001B2003208031DBF28C028C328AF
:10118000AF01B001CD283208023E87314C278831AB
:1011900040012508B0002408AF000800F401F50163
:1011A0004001201CD428D528D9282208F407230878
:1011B000F53D0130A235A30D890BDA280130A136A7
:1011C000A00C890BDF2820082104031DE828E9284A
:1011D000D0287508A1007408A00008004201540836
:1011E0004001A100420153084001A0005530A20077
:1011F0006230A3008831CE20883140012008193E9A
:101200004201D30036304001213D4201D400540850
:101210004001A500420153084001A400080040011C
:10122000A8002108A6002008A5002808A7002C294E
:1012300025088600260887000108A4000130A507BC
:101240000030A63D27088600013087002408810071
:101250000130F4007408A7070130A2020030A33B5C
:10126000220A031D3729230A031D37293829182983
:10127000080040010E0E0139F0000E0CF100F10CD7
:10128000710C013909077004F3007808F00001308F
:10129000F035FF3E031D482970357304F2007208D3
:1012A000003E840098300318013E85000008F000DD
:1012B000F101F01BF10376087007F6007708713D25
:1012C000F7007308F80008004001C8006E084807DE
:1012D000C900CA010318CA0AC81F6F29CA034001FE
:1012E000CA1F732974297629C901CA014A08803A9C
:1012F000C70080304702031D7F291A304902031CB2
:1013000082298329882919304001C9000030CA0088
:101310004001C30149089731E6278931080042019D
:10132000DB01DC014C01901C96299729A52942017B
:101330005B1541016B086C0403199F29A029A5299D
:101340006C088A006B080A0089314C01101DA9291C
:10135000AA29B8294201DB1441016D086E04031962
:10136000B229B329B8296E088A006D080A008931AC
:101370004C010C0808004201D901DA014C019A1C09
:10138000C229C329D12942015915410167086804BE
:101390000319CB29CC29D12968088A0067080A00DB
:1013A00089314C011A1DD529D629E4294201D914C5
:1013B000410169086A040319DE29DF29E4296A0862
:1013C0008A0069080A0089314C01160808004001AA
:1013D00021084201D800400120084201D7007D01C8
:1013E000A11521168D1540010E0E0139A2000E0C1B
:1013F000A300A30C230C013909072204F80039309B
:10140000F4000930F5009631232689313930F40093
:101410000930F500963129268931FC30F400153069
:10142000F50096311D268931080000304001AF00DB
:101430000030AE000030AD000030AC00241C212A8A
:10144000222A2A2A2808AC072908AD3D2A08AE3DE1
:101450002B08AF3D0130A835A90DAA0DAB0D890BA6
:101460002B2A0130A736A60CA50CA40C890B322A16
:101470002708260425042404031D3F2A402A1E2A87
:101480002F08A7002E08A6002D08A5002C08A400F0
:10149000080040012608270403194F2A502A792AF8
:1014A000AB01AB0A5C2A0130A635A70D890B542A83
:1014B0000130AA002A08AB07A71F5F2A602A532A17
:1014C00027082902031D662A26082802031C692A08
:1014D0006A2A6E2A2608A8022708A93B0130A736E7
:1014E000A60C890B6F2A0130AB02031D782A792ADA
:1014F000602A2908A7002808A6000800400158080B
:10150000C4005708C3009631CF268A314001DB0161
:10151000DB0A1E30BE005B088431EA248A314001B8
:101520003F08D6003E08D500973143278A31033063
:101530004001DA000830D9007730890B9D2AD90B99
:101540009D2ADA0B9D2A01304001D9005908DB079A
:101550001F305B02031CAD2AAE2A892A0130963166
:101560007C268A3108004001CC000030CD000030DC
:10157000CE000030CF00CD01CD0A3030CE004C0877
:10158000CF004D30AD000330AE00AF013830B000B9
:101590001430B1005030B2004030803153208A31D5
:1015A000003A031DD42AD52AD72A0030F12A113057
:1015B00040015002031CDD2ADE2AD52A380803190F
:1015C000E22AE32AE42AD52A3930A0000030A1001B
:1015D0001030A2000030A300370889310F218A3172
:1015E0000130080040016908031DF72AF82AF92A8A
:1015F000312B6A08031DFD2AFE2A112B46010C0817
:10160000013E4001B100003003180130B200310842
:101610004201D300400132084201D4004001EA01F6
:10162000EA0A6D080319152B162B192B0130ED0250
:10163000312B981609304001B2001E30B100E43061
:10164000890B202BB10B202BB20B202B000040016B
:1016500098120F30AC00033088315A208A31400193
:10166000ED00080040012108A7002008A60023087B
:10167000A9002208A800482B0130A4020030A53B95
:101680000130A6070030A73D0130A8070030A93D72
:101690002408250403194D2B4E2B5E2B28088400AB
:1016A000290885000008F40026088600270887001E
:1016B0000108740603195D2B5E2B3C2B24082504BE
:1016C000031D632B642B672BA001A101752B26083A
:1016D000860027088700280884002908850000085C
:1016E0000102A000A101031CA10308004001AE00FB
:1016F0002808290403197D2B7E2BC02B2908F5000F
:101700002808F40088313F208B3175084001AD0076
:101710007408AC00B22B2908A1002808A0002D08ED
:10172000A3002C08A2002E088B31C2238B3140016C
:1017300020082104031D9D2B9E2BA02B2E08C12BBE
:1017400028088400290885000008AA00AB012A089F
:10175000F4002B08F5002E08013E883125208B313E
:101760004001AE002E080319B62BB72BC02B2E0854
:101770008600013087000108031DBF2BC02B8B2B77
:10178000003008004001A4002408A7002108A6009A
:101790002008A5000130A2020030A33B220A031D4D
:1017A000D52B230A031DD52BD62BE52BA001A10198
:1017B0001B2C0130F4007408A7070130A507003086
:1017C000A63D0130A2020030A33B2708860001306D
:1017D000870001080319ED2BEE2B0D2C2508840042
:1017E0002608850012000319F62BF72B0D2C220872
:1017F00023040319FC2BFD2B0D2C2508840026083F
:1018000085000008F40027088600013087000108E1
:10181000740603190C2C0D2CD92B270886000130D7
:101820008700250884002608850000080102A00022
:10183000A101031CA103080000304001BC000030DE
:10184000BB000030BA000030B90033083204310464
:10185000300403192C2C2D2C6E2CBD01BD0A3B2C01
:101860000130B035B10DB20DB30D890B312C013003
:10187000B8003808BD07B31F3E2C3F2C302C013078
:10188000B935BA0DBB0DBC0D890B402C330837029E
:10189000031D542C32083602031D542C3108350226
:1018A000031D542C30083402031C572C582C612C77
:1018B0003008B4023108B53B3208B63B3308B73BB9
:1018C00039140130B336B20CB10CB00C890B622C58
:1018D0000130BD02031D6D2C6E2C3F2C3C08B30063
:1018E0003B08B2003A08B1003908B00008004001D6
:1018F000A501A11F7C2C7D2C842CA009A109A00A84
:101900000319A10AA501A50AA31F872C882C912CD5
:10191000A209A309A20A0319A30A0130F40074085A
:10192000A506A601A701200821040319982C992CCB
:10193000C82CA401A40AA52C0130A035A10D890B47
:101940009D2C0130F4007408A407A11FA82CA92C19
:101950009C2C0130A635A70D890BAA2C2108230247
:10196000031DB42C20082202031CB72CB82CBD2C5C
:101970002008A2022108A33B26140130A136A00CA6
:10198000890BBE2C0130A402031DC72CC82CA92C26
:1019900025080319CC2CCD2CD22CA609A709A60A00
:1019A0000319A70A2708A1002608A0000800400183
:1019B000D300420166084001D2004201650840019F
:1019C000D1005130AD000230AE00AF013930B0006F
:1019D0001830B1005430B2004A30803153208C317D
:1019E000003A031DF42CF52CF72C0030392D400162
:1019F00054080319FC2CFD2CF52C3908031D012D6E
:101A0000022D032DF52C3E08D60056080319092D8A
:101A10000A2DF52C0830560203180F2D102DF52C29
:101A20005608063E54020318162D172D182DF52CB6
:101A3000D5012C2D55085307B80038088600013011
:101A400087005508063E393E840085010008810064
:101A50000130B8003808D50756085502031C312D4F
:101A6000322D1A2D37088600013087005608810074
:101A7000013008004001980199019A019B019C01E5
:101A8000DD309200EF309300FF309400CD309500B0
:101A90000F309600D5307D018C00CF309600E730B6
:101AA000A000CB30AA000730B4008D019701A1013E
:101AB000AB01B5018E019801A201AC01B601FF3066
:101AC0008F00FF309900FF30A300FF30AD000730DA
:101AD000B700FF309000FF309A00FF30A400FF30C5
:101AE000AE000F30B8001A307C01C3000D30C100C9
:101AF0000B307B01A8000C30A9001130A5000E307E
:101B000098007D0191010830920093019B019C0196
:101B10009D011830A5001830A600A701B901BA012F
:101B2000BB01F530F4001530F50096311D268D31DE
:101B3000F730F4001530F500963123268D31F6305C
:101B4000F4001530F500963129268D314101161625
:101B50000800003096317C268D319531F9258D3184
:101B60004001E2001430E4006408FF3EE30014305A
:101B7000BE0063088431EA248D3140013F08E00053
:101B80003E08DF000030B3000030B2000030B1008A
:101B90001430B0006308D700D8015708A2005808D5
:101BA000A3006208D900DA015908A0005A08A10070
:101BB0008831CE208D3140012008DB002108DC0077
:101BC000DD01DE015E08B7005D08B6005C08B50007
:101BD0005B08B4008C311C248D3140013008E100D9
:101BE0006008D6005F08D500973143278D3140014A
:101BF000C30161089731E6278D3103304001D800D9
:101C00000830D7007730890B032ED70B032ED80B63
:101C1000032E01304001E4026408031D102E112E32
:101C2000B42D963171268D314001C301C30A62087B
:101C30009731E6278D31080068304001B700E43065
:101C4000890B202EB70B202E0000420162084001B4
:101C5000CC00420163084001CD004201640840010C
:101C6000CE004C30AD000330AE00AF01AF0A3830CB
:101C7000B0001030B1004F30B2001430803153202A
:101C80008E31003A031D452E462E482E0130902EEF
:101C9000420161084001CB00420160084001CA00D6
:101CA00042015F084001C90042015E084001C800CE
:101CB0004830AD000430AE00AF013830B000103015
:101CC000B1004F30B2003230803153208E31003AB3
:101CD000031D6B2E6C2E6E2E0230902E4001AD0136
:101CE000AE01AF013830B0001030B1004F30B2005B
:101CF0000230803153208E31003A0319802E812E1C
:101D00008D2E40014F080319862E872E8D2E3230DE
:101D1000380603198C2E8D2E8F2E0330902E003016
:101D20000800410116127708A1007608A0000430CF
:101D30004001A0000030A100410121084001A300A2
:101D4000410120084001A2008C3177248E314001EE
:101D500020084101A20022084001E500E601E51B40
:101D6000E603E535E60DE535E60D6508410120029F
:101D7000F600400166084101213BF70016162208D3
:101D80000319C32EC42EC82E2208893164218E3136
:101D900040016C080319CD2ECE2EFA2E41011612E9
:101DA0004001EC014101161640016B08031DD92EBC
:101DB000DA2EFA2E02304001E6003830E500AD3070
:101DC000890BE02EE50BE02EE60BE02E40018C198E
:101DD000EA2EEB2EFA2EEB01EB0A420157085804CB
:101DE0000319F32EF42EFA2E58088A0057080A0019
:101DF0008E31FA2E40016B080319FF2E002F052F9C
:101E00008C1D032F042F052FEB0108004001BD009E
:101E10003508C0003408C100C201C20A3D08B7003D
:101E2000B801B709B809B70A0319B80A3808BA00DF
:101E300040083702B900031CBA033A08BC00410845
:101E40003902BB00031CBC033B08FA3EBE00FE3057
:101E50003C3DBF002E2F89318F218F31963147268F
:101E60008F31003A031D352F362F2B2F7E309731BF
:101E700025278F31FF30973125278F310630973155
:101E800025278F3140013D08973125278F314001AB
:101E90004208973125278F31400140089731252787
:101EA0008F3140014108973125278F3140013F088C
:101EB000973125278F3140013E08973125278F31F3
:101EC000EF30973125278F31963100268F31003A38
:101ED00003196B2F6C2F642F40013608031D712FDF
:101EE000722F732F7E2F0030A3000030A200C3306A
:101EF000A1005030A0008F317F278F31080096312C
:101F00004E268F314001B301D32F963147268F31B2
:101F1000003A03198C2F8D2F9C2F40013308283E47
:101F20008600870189318F218F3181000130400186
:101F3000A4002408B307D32F3530890B9D2F000050
:101F400040012308031DAF2F2208031DAF2F2108D6
:101F5000031DAF2F153020020318AF2FB02FBA2F5B
:101F600000304001A3000030A2000030A10000308A
:101F7000A000D32FEC304001A400FF30A500FF30BB
:101F8000A600FF30A7002008A4072108A53D2208CD
:101F9000A63D2308A73D2708A3002608A200250880
:101FA000A1002408A0000A3033020318D82FD92F2B
:101FB000E12F2308220421042004031DE02FE12F38
:101FC000852F0A3033020318E62FE72FE92F003060
:101FD000FF2FB2017E302806031DEF2FF02FFE2FBA
:101FE00041302B06031DF52FF62FFE2FEF30310663
:101FF000031DFB2FFC2FFE2FB201B20A320808008E
:102000007634083400340034BB34093414341634C4
:102010001834163434341734103416340034003481
:102020000034003400340034003400340034003410
:102030000034003400340034003400340034003400
:1020400000340034003400340034003400340034F0
:102050009F341634AB34163400340034003400346A
:1020600092340834003400348F3409340434163484
:102070004734163416341734003416340034003420
:1020800000340034003400340034003400340034B0
:1020900000340034003400340034003400340034A0
:1020A0000034003400340034003400340034003490
:1020B000873416349334163400340034003400343A
:102BEA00080008000800080040016E0808000130CB
:102BFA004001EC0008004C01110C0139080074086E
:102C0A004C018D0008004C011A121A1608004C01DA
:102C1A001012101608004C011B0C01390800740828
:102C2A004C019700080041010F0E890C0139080078
:102C3A0075084201EC007408EB00080075084201AF
:102C4A00EA007408E900080075084201E8007408FF
:102C5A00E700080075084001E8007408E70008006A
:102C6A0075084201D6007408D50008006400800186
:102C7A000131890B3C2E0034FE0012001E00FE0BAF
:102C8A00422E003441010F0CF400F40C740C01398B
:102C9A0008004C01901C522E532E552E101210165D
:102CAA0008004001C301C30A12309731E627963162
:102CBA0008000534FF34013402340134143400347A
:102CCA000134003444018E018F01910105309300D3
:102CDA00900192019401080000304001B400B5004F
:102CEA00B601B60A16308F31062796310800F4006D
:102CFA0074084001E9007408031D842E852E862E6F
:102D0A00981208007408750403198C2E8D2E922EC1
:102D1A0075084101EE007408ED0008007408750496
:102D2A000319982E992E9E2E75084101EC007408FD
:102D3A00EB000800740875040319A42EA52EAA2E08
:102D4A0075084101EA007408E9000800740875046E
:102D5A000319B02EB12EB62E75084101E800740889
:102D6A00E700080048011F08FC3901389F0080303D
:102D7A008E007F308D00C0308C00080048011F088B
:102D8A00F33904389F00803091007F309000C030C2
:102D9A008F00080040014408B5004308B400B6019A
:102DAA00B60A12308F310627963108007D012A12A1
:102DBA00AA1200304001D500D60097314327963138
:102DCA00400192129812080042016B086C04031920
:102DDA00EF2EF02EF52E6C088A006B080A00963149
:102DEA007D0193110800420169086A040319FE2E45
:102DFA00FF2E042F6A088A0069080A0097317D01AC
:102E0A00A711080042016708680403190D2F0E2F45
:102E1A00132F68088A0067080A0097317D01271274
:102E2A000800F40141010F1D1B2F1C2F232F4C01F9
:102E3A00911E202F212F232FF401F40A7408080071
:102E4A00F500973116279731003A03192D2F2E2FA7
:102E5A00262F7508F4009631042697310800F401EC
:102E6A0041010F1E392F3A2F412F4C019B1E3E2F35
:102E7A003F2F412FF401F40A740808004001560854
:102E8A00F5005508F400973182279731400156081A
:102E9A00F5005508F40097319B2797310800013057
:102EAA00460190008F019101FF308D008C010030A6
:102EBA00F4000030F50096313526973141018D1323
:102ECA00803046018E0008007D01931D6D2F6E2F04
:102EDA00712F9631E92697317D01A71D752F762F1F
:102EEA00792F9631F82697317D01271E7D2F7E2F67
:102EFA00812F973107279731080075084001A100F3
:102F0A007408A000A136A00CA136A00C2008480124
:102F1A008D00740803394001A0000530A035FF3E3A
:102F2A00031D932F203548018C00080075084001C5
:102F3A00A1007408A000A136A00CA136A00C20089C
:102F4A0048019000740803394001A0000530A035FB
:102F5A00FF3E031DAC2F203548018F000800963133
:102F6A00672697318D313A259731883192209731EA
:102F7A008831762097319631B72697319631C32614
:102F8A0097319731542797318831002097310800BB
:102F9A007408D03E4001A000FF30753DA10000300A
:102FAA0021020A3003192002031CDC2FDE2F013014
:102FBA00DF2F0030A200A3012208F4002308F50045
:102FCA0008004001C6001A304602031CED2FEE2FFE
:102FDA00F02F1930C6004608EE004608C400C501A5
:102FEA004408B4004508B5004308B60006308F31DE
:102FFA000627973108000034FF34013400340134C5
:10300A0000340034FF34FF34003400340134003417
:10301A000134FF340034543417340034003400349B
:10302A0000340034003435341634003400340034AB
:10303A000034FF340034FF3400343A343A34003474
:020000040001F9
:04000E008F3FE73FFA
:04001400FF3FFF3F6C
:00000001FF
