:1000000080313128013400347E1480314101161EC4
:100010000A280B2813280C1E0E280F2813288A31B3
:10002000F62280312F280B1F162817282F28991FFA
:100030001A281B2823288F1F1E281F2823288B31AE
:10004000262380312F28191F262827282F280F1F05
:100050002A282B282F288B312A2380312F287E1005
:100060000900803133284101803102208031ED00C8
:10007000803103208031EE00903084008B30850089
:10008000583086000130870007308B31752380316E
:10009000F001F101F201F301F401F5015F30840098
:1000A0000030850010308B316F238031E701E8018B
:1000B000E901EA01EB01EC014201DF01E001E101AC
:1000C000E201E301A03084000130850040308B3133
:1000D0006F2380317E1040018331F12B4101DD001F
:1000E000083040013002031C762877287928003038
:1000F000A22A4101E60140013008023E4101D90037
:1001000040013108031985288628BC285530410153
:10011000C00001304001B50035084101E60766081E
:10012000C03E860087015530810001304001B50096
:1001300035084101E6076608C03E86008701810157
:1001400001304001B50035084101E6076608C03EB0
:1001500086008701810101304001B5003508410169
:10016000E6076608C03E8600870181010130400134
:10017000B50035084101E60741016608C03E86002A
:100180008701810101304001B50035084101E607D2
:100190006608C03E86008701810101304001B5003C
:1001A00035084101E6076608C03E86008701FF303A
:1001B000810001304001B50035084101E6076608BD
:1001C000C03E860087015908810001304001B5001A
:1001D00035084101E6076608C03E860087015908D8
:1001E000003C810001304001B50035084101E607BF
:1001F000D430E1006608C03E86008701D43081001B
:1002000001304001B50035084101E6076608C03EEF
:10021000860087015D08810001304001B500350886
:100220004101E60761085D07E100DE013A29660841
:10023000C03E860087015E0840012F07B5003508E3
:1002400084008501000881000130B50035084101B6
:10025000E6075E0840012F07B500350886008701D4
:10026000010841016107E10001304001B500350896
:100270004101DE074001300841015E02031C4129B3
:10028000422917296608C03E860087016108003CA4
:10029000810001304001B50035084101E6076608DC
:1002A000C03E86008701810101304001B50035085C
:1002B0004101E60766084001A100A030A2002030FD
:1002C000A300E830A4000330A500C03085317E25AE
:1002D00080314101E2000630620203187029712961
:1002E00072297728A0304001A0000030A10086309C
:1002F000A2009030A3000630A4000030A5008E318B
:10030000C626803140012008210403198829892943
:100310008A29772806304101E500B32941016508A3
:10032000A03E860087010108031D97299829AD2961
:100330006508013EA03E860087010108031DA12932
:10034000A229AD296508023EA03E86008701010A68
:10035000031DAB29AC29AD29BF2901304001B500EF
:1003600035084101E507023065074001B50041014C
:10037000620840013502031CBE29BF298E290230C4
:10038000410165074001B5004101620840013502A5
:10039000031CCB29CC29CD29772841016508053ECE
:1003A00062020318D429D529D62977286508033E87
:1003B000A03E860087010108E4006508043EA03ED7
:1003C000860087010108D700640857070319E92947
:1003D000EA29EB297728023064020318F029F12971
:1003E000F22977286408073ED50000300318013051
:1003F000D600650855074001B500410156080318AD
:10040000560A4001B600410162084001B700B80138
:1004100036083802031D0E2A350837020318112A40
:10042000122A132A772841016508053EE300630874
:10043000A03E86008701D53001060319202A212A13
:10044000222A77286308013EA03E860087015D0AC4
:10045000010603192C2A2D2A2E2A7728DB01DC011C
:10046000472AA0305C074001B50041016308400104
:100470003507B600360886008701010841015B0791
:10048000DB0001304001B50035084101DC0764089C
:100490005C02031C4C2A4D2A312A63086407DA00E7
:1004A0005A08A03E8600870101085B070319592AF4
:1004B0005A2A5B2A77285A08013ED8005808A03EDD
:1004C0008600870101080319662A672A682A7728A7
:1004D0006408FE3EDF005F08400133020318712A02
:1004E000722A752A33084101DF004101E001942A94
:1004F000600840013207B500350886008701A0304A
:10050000410160074001B600410163084001360720
:10051000B7003708023E84008501000881000130E1
:10052000B50035084101E0075F086002031C992A05
:100530009A2A782A400134088600870141015F0821
:100540008100013008004001C30003302A02031873
:10055000AA2AAB2AAD2A0030F02B430886000130CE
:1005600087000108BC003C080739B4003C1AB92ACE
:10057000BB2A0130BC2A0030B500BC19C02AC22AEF
:100580000130C32A0030B600C401C40A4308860003
:10059000013087000130413FBD000130AD002D0822
:1005A000C40735080319D52AD62AF02A2A08440296
:1005B000031CDB2ADC2ADD2AAB2A44084307AD00F2
:1005C0002D088600013087000108AE00AF012E081B
:1005D000BF002F08C0000130AD002D08C407272B35
:1005E0004408043EAD00003003180130AE002A0874
:1005F000AF00B0012E083002031D002B2D082F0282
:10060000031C032B042BAB2A44084307AD002D0821
:10061000033E8600013087000108AE00AF014408A8
:100620004307B0003008023E860001308700010811
:10063000B100B2013108B200B1012E083104BF008F
:100640002F083204C0000430AD002D08C407B901E2
:10065000360803192C2B2D2B412B2A084402031C8E
:10066000322B332B342BAB2A44084307AD002D0823
:100670008600013087000108B9000130AD002D0867
:10068000C40744083D07AD00AE01AE0D2A08AF0017
:10069000B0012E083002031D4F2B2D082F02031826
:1006A000522B532B542BAB2ABA013403031D592B65
:1006B0005A2B6E2B3D03031D5E2B5F2B6E2B4408C4
:1006C0004307AD002D088600013087005430010635
:1006D000031D6B2B6C2B6E2BBA01BA0A3A08031D53
:1006E000722B742B0130752B0030B70044083D0786
:1006F0003907C4003708031D7E2B7F2B802BAB2AC4
:1007000044083F07AD0040080318400AAE002A081D
:10071000AF00B0012E083002031D902B2D082F02D0
:100720000318932B942B952BAB2A43084407BB004B
:100730003B088600013087000108B80038083F39BF
:10074000BE003E08013EAD00003003180130AE008F
:100750002E084002031DAE2B2D083F020318B12BBB
:10076000B22BB32BAB2A4008AE003E083F02AD00CF
:10077000031CAE032D08FF3EC100FF302E3DC2001A
:100780002C08FF3EAD00FF3003180030AE004208D9
:100790002E02031DCD2B41082D020318D02BD12B87
:1007A000D82B2C08FF3EC100FF3003180030C200D8
:1007B0003B083E07013EA0000130A1004208A30013
:1007C0004108A2002B088D317F258231400141086C
:1007D0002B07AD002D088600013087008101013014
:1007E00008008C315524833140019210981429302F
:1007F0004201A1009630A0007F30890BFD2BA00B99
:10080000FD2BA10BFD2B8631A02683314201D600A2
:10081000560803190C2C0D2C462C4201D101332C07
:100820004001981409304201A1001E30A000E430BC
:10083000890B182CA00B182CA10B182C00004001C0
:10084000981009304201A1001E30A000E430890B4D
:10085000272CA00B272CA10B272C000001304201D4
:10086000A0002008D10756085102031C382C392C4F
:10087000102C29304201A1009630A0007F30890B56
:100880003F2CA00B3F2CA10B3F2C0D2C40019810AE
:100890008B314D2383314201D30157304001B900E0
:1008A0004930873115278331003A0319582C592CC8
:1008B000D22C400198144201D201D20A57085306A3
:1008C000031D632C642C842C49304001A0000130AE
:1008D000A1004230A2000130A30042015708A0004D
:1008E000A10120084001A400420121084001A50007
:1008F0008E31C6268331400120082104031D812C3E
:10090000822C842C4201D20142015208031D892C01
:100910008B2C01308C2C0030D00050080319912C06
:10092000922CD92C20304001D30022308431E9248C
:100930008331003A03199D2C9E2CBA2C22308D3124
:100940001E258331400131084201D50040013008A5
:100950004201D400540855040319AF2CB02CBA2C12
:1009600055084001B000420154084001AF008B31EE
:10097000B023833149304001A0000130A100420181
:100980005708A000A10120084001A200420121084F
:100990004001A30042308D317F2583314201570849
:1009A000D300D92C8B31A72383314201D3014001DD
:1009B000981007304201A1001730A0006A30890B5F
:1009C000DF2CA00BDF2CA10BDF2C00004D2C803185
:1009D00031284001D800DE010430DB00DD01662D46
:1009E0005E08A03EB9005B088E3104268431003ACF
:1009F000031DFB2CFC2CFE2C00307D2D40015E08DD
:100A0000103EDE005B08043EDB00602D5D08A03E6A
:100A10008600013087000108D9005908031D112DF7
:100A2000122D172D0130D4005408DD07602DFE3043
:100A30005906031D1C2D1D2D1E2DFC2C01305D079C
:100A4000D4005E085402031C262D272D282D662D68
:100A50005D08A13E8600013087000108DC005C0AC9
:100A6000031D332D342D352DFC2C5D08023EDA009C
:100A70005A085C07D400D501D50D5E08D600D70111
:100A800055085702031D462D540856020318492DD8
:100A90004A2D4B2D662D03305906031D502D512D27
:100AA0005D2D5C08AA005808AB005308AC005A083A
:100AB000A03E8231A32284317D2D5A085C07DD00DF
:100AC0005E085D02031C652D662D062D29305B0234
:100AD00003186B2D6C2DFC2C5E08103ED4000030EA
:100AE00003180130D500003055024130031954027B
:100AF000031C7B2D7C2DF02CFC2C08004001A70052
:100B0000AE01AB01AC01A801A901AA014C019A1CDC
:100B10008A2D8B2D912D1A121A16912D8D31A92502
:100B200085318B3152238531003A031D982D992D43
:100B30008E2D4001AD01B52D8C3143248531003A15
:100B40000319A32DA42D9C2D40012D082707A600D5
:100B50002608860087010108A0008731FB27853120
:100B600001304001A6002608AD0721082D02031C14
:100B7000BA2DBB2D9C2D8B312E238531003A0319C4
:100B8000C22DC32DBB2D072E8B3152238531003A48
:100B90000319CB2DCC2DE12D40012E082207A600F4
:100BA0002608860087018D31A92585318100013015
:100BB0004001A6002608AE07AA01AA0AAB01AC01B3
:100BC000072E1A30890BE22D003240012A08031D3E
:100BD000EA2DEB2DF92D0130A8070030A93D273073
:100BE0002902103003192802031CF72DF82D072EB7
:100BF0000E2E0130AB070030AC3D27302C021030F8
:100C000003192B02031C052E062E072E0E2E400163
:100C100023082E02031C0D2E0E2EC42D2E080800B4
:100C20004001AE00AC01AD01AA01AB011B2E0130A9
:100C3000A8002808AE072E08860001308700203063
:100C400001060319242E252E172E2E0886000130AA
:100C500087000108F73EA800FF3003180030A90004
:100C600000302902053003192802031C382E392EC2
:100C7000172E432E0130AA000030AB000130A8002F
:100C80002808AE07752E2E0886000130870001085F
:100C9000A800A9012908003A03194F2E752E28082B
:100CA0002B3A03193E2E063A03193A2E752E2E08BA
:100CB0008600013087002D08A1002C08A0000A3012
:100CC000A2000030A3008D313D258631400121086E
:100CD000A90001082002A800031CA9032808303E2F
:100CE000AC000030293DAD003E2E2E0886000130BC
:100CF00087000108D03EA800FF3003180030A9008B
:100D0000003029020A3003192802031C882E892E7C
:100D1000572E2A082B04031D8E2E8F2E9B2E2C0956
:100D2000A8002D09A900A80A0319A90A2808A600E5
:100D30002908A7009F2E2D08A7002C08A600080050
:100D400068304001B900E430890BA42EB90BA42E01
:100D5000000042015C084001CE0042015D084001F4
:100D6000CF0042015E084001D0004E30AF0003309A
:100D7000B000B101B10A3A30B2001030B3005130C6
:100D8000B400143080316E208631003A031DC92E24
:100D9000CA2ECC2E0130142F42015B084001CD0039
:100DA00042015A084001CC00420159084001CB00E1
:100DB000420158084001CA004A30AF000430B00078
:100DC000B1013A30B2001030B3005130B4003230CB
:100DD00080316E208631003A031DEF2EF02EF22E68
:100DE0000230142F4001AF01B001B1013A30B2001E
:100DF0001030B3005130B400023080316E208631A3
:100E0000003A0319042F052F112F4001510803192F
:100E10000A2F0B2F112F32303A060319102F112FE2
:100E2000132F0330142F003008004001D50041017A
:100E30006E084001D40041016D084001D3005330D9
:100E4000AF000230B000B1013B30B2001830B30047
:100E50005630B4004A3080316E208731003A031D8D
:100E6000322F332F352F0030772F400156080319CA
:100E70003A2F3B2F332F3B08031D3F2F402F412F8D
:100E8000332F4008D80058080319472F482F332F15
:100E90000830580203184D2F4E2F332F5808063EA6
:100EA00056020318542F552F562F332FD7016A2F70
:100EB00057085507BA003A088600013087005708DE
:100EC000063E3B3E84008501000881000130BA00E7
:100ED0003A08D70758085702031C6F2F702F582F56
:100EE0003908860001308700580881000130080069
:100EF00040019801990118309A009B019C01FD3036
:100F00009200E7309300FF309400FD3095000F30E1
:100F10009600FD307D018C00CF309600E730A000B8
:100F2000FB30AA000730B4008D019701A101AB018D
:100F3000B5018E019801A201AC01B601FF308F000E
:100F4000FF309900FF30A300FF30AD000730B7003D
:100F5000FF309000FF309A00FF30A400FF30AE0059
:100F60000F30B8001A307C01C3000D30C1001130C1
:100F70007B0197001130A5000E30980013307C01E2
:100F8000C70015307B019F0014307C01C80016306B
:100F90007B01A0007D019101920193019B019C01C5
:100FA0009D01A501A601A701B901BA01BB01080075
:100FB00006304001EC000330EB008A31F922873122
:100FC00040016C08FA00FB01FA35FB0D74307A071A
:100FD000840010307B3D80388500013F8A00003F4F
:100FE0000A0087314001EC0041016C088A006B085F
:100FF0000A0087310800400120084C0197000800D2
:1015EA00080008000800080041018F1308004101A3
:1015FA000F1308004D01111508004D010C080800D1
:10160A004D01911508004D01911008004D019114EA
:10161A0008004D019012901608004D019013101306
:10162A0008004D019112111608004D010F080139E9
:10163A0008004D019116111608004001DF0108301B
:10164A0008008731D8278B3108008E3183268B31E9
:10165A0008004C011B0C013908004C011A121A1619
:10166A0008004C01101210160800410119179917A9
:10167A000800F60076084D018C0008004D010F0E97
:10168A00890C01390800400120084C018D0008002E
:10169A000F308B31F4238B31080041010F0E890C76
:1016AA00013908008B319F238B31F6007608080038
:1016BA008B3182238B31F600760808004D01110E1A
:1016CA00890C890C0139080040012108F50020081D
:1016DA00F4000800640080010131890B702B00348A
:1016EA00FE0012001E00FE0B762B0034400160350E
:1016FA008B313E238B31033008008B310E238B3123
:10170A004001DF010030080003104D018F1E031451
:10171A000030093D08000534FF3401340234013435
:10172A001434003403144001600D8B313E238B3195
:10173A00043008008A31FF228B318C3168248B31C6
:10174A000030080000304001A200A30016308F319B
:10175A0056278B31080040013008A3002F08A20049
:10176A0012308F3156278B31080044018E018F01C8
:10177A009101053093009001920194010800400103
:10178A00200821040319CA2BCB2BCF2B2108F300E5
:10179A002008F20008004001200821040319D62B72
:1017AA00D72BDB2B2108F1002008F00008004001AC
:1017BA00200821040319E22BE32BE72B2108EE0072
:1017CA002008ED00080041010C100B140030400104
:1017DA00A0000030A1008B3169238B310800400141
:1017EA00B1003108AF00B0012F08A2003008A300F1
:1017FA0006308F3156278B3108004001200821041A
:10180A000319082C092C102C21084101E800400179
:10181A0020084101E70008004001200821040319BB
:10182A00172C182C1F2C21084101EC00400120081C
:10183A004101EB0008004001A1008C3131248C31B8
:10184A00003A0319292C2A2C222C40012108A00035
:10185A008B3148238C3108004001A00141010F1D42
:10186A00372C382C402C4C01911E3C2C3D2C402C02
:10187A004001A001A00A4001200808004001A0017F
:10188A0041010F1E492C4A2C522C4C019B1E4E2CF6
:10189A004F2C522C4001A001A00A40012008080048
:1018AA008B31BA238C31873178278C318C31FF24E4
:1018BA008C318C31E1248C318C317D248C318B310B
:1018CA00E8238C3108004001DF010030E100FF30DD
:1018DA00E000E201E301E601E701EC018A31FC22C2
:1018EA008C318A31F9228C318B3112238C310800E8
:1018FA0080304D018F0008309000910192014F30E5
:10190A008D008B313A238C31F5304001A0000A302A
:10191A00A1008C3111248C314D0190160800400130
:10192A002008D03EA200FF30213DA3000030230250
:10193A000A3003192202031CA32CA52C0130A62C61
:10194A000030A400A5012408A0002508A100080071
:10195A004001A20022088600013087000108200603
:10196A00031DB82CB92CBB2C2208C62C22088600D1
:10197A0001308700A20A0108031DC42CC52CAF2C14
:10198A000030080040012108A4002008A300D12C3F
:10199A000130A0070030A13D2008840021088500FD
:1019AA001200031DD92CDA2CCD2C23082002A0000A
:1019BA002408213BA100080048304C019C009030CB
:1019CA009A0026309B00443098009901F730400174
:1019DA00A0000A30A1008B31DC238C313230400167
:1019EA00A0000B30A1008C3102248C314201E201AB
:1019FA00E301080048304C019200903090002630F4
:101A0A00910040308E0003308F00F8304001A00072
:101A1A000A30A1008B31C4238C3136304001A0003A
:101A2A000B30A1008B31D0238C314101E901EA014D
:101A3A0008004001B2008C30A9009030AA00320898
:101A4A008F310A278D314001B3003308031D2E2D33
:101A5A002F2D322DB001B1013C2D3308023E8631C3
:101A6A0010268D3140012708B1002608B000080071
:101A7A004001A401A501201C432D442D482D220814
:101A8A00A4072308A53D0130A235A30D890B492DD2
:101A9A000130A136A00C890B4E2D20082104031D0C
:101AAA00572D582D402D2508A1002408A000080014
:101ABA004001A401A40A2030200621040319662D3E
:101ACA00672D772D2008F73EA200FF30213DA300A5
:101ADA0000302302053003192202031C752D762DCE
:101AEA00772DA4012408A200A3012208A00023083C
:101AFA00A10008004001A9002108A7002008A600AB
:101B0A002908A8009C2D26088600270887000108B6
:101B1A00A5000130A6070030A73D2808860001303D
:101B2A008700250881000130A4002408A807013095
:101B3A00A2020030A33B220A031DA72D230A031D7C
:101B4A00A72DA82D882D08004201E201E3014C01CE
:101B5A009A1CB02DB12DBF2D4201621541016708B3
:101B6A0068040319B92DBA2DBF2D68088A006708C1
:101B7A000A008D314C011A1DC32DC42DD22D4201EC
:101B8A00E21440016D086E040319CC2DCD2DD22D1F
:101B9A006E088A006D080A008D314C01160808008B
:101BAA004001640865040319DB2DDC2DF22D013098
:101BBA00E4020030E53B6308F8006208F700E20A35
:101BCA000319E30A770886007808870001088B3131
:101BDA003E238D310330F900022E6A080319F62DCF
:101BEA00F72DFE2DEA018B310B238D31F901F90A0C
:101BFA00022E8B319F238D31F900790808004001AC
:101C0A00CE000030CF000030D0000030D100CF012C
:101C1A00CF0A3030D0004E08D1004F30AF00033029
:101C2A00B000B1013A30B2001430B3005230B400FF
:101C3A00403080316E208E31003A031D252E262E2B
:101C4A00282E0030422E113040015202031C2E2E43
:101C5A002F2E262E3A080319332E342E352E262EF1
:101C6A003B30A0000030A1001030A2000030A300D9
:101C7A0039088D317F258E31013008000430F70094
:101C8A008B311A238E31003A03194C2E4D2E7E2E9B
:101C9A004001680869040319532E542E6B2E8B31A8
:101CAA0002238E31F60007305F3E86008701403FEF
:101CBA008400413F85007608800001304001E60734
:101CCA000030E73D0130E8020030E93B680869046A
:101CDA000319702E712E752E8B3116238E31812E9B
:101CEA008B3108238E318B311E238E310730F7005A
:101CFA00812E8B3105238E31770808008A31FC2228
:101D0A008E318B3189238E31003A03198D2E8E2E16
:101D1A009C2E8B3163238E31003A0319952E962E11
:101D2A009C2E05304001EC000130EB00B12E8B31C6
:101D3A0043238E31003A0319A32EA42EB12E8B31E0
:101D4A0063238E31003A0319AB2EAC2EB12E053027
:101D5A004001EC000230EB0040016C08FA00FB0184
:101D6A00FA35FB0D74307A07840010307B3D8038D9
:101D7A008500013F8A00003F0A008E314001EC00D5
:101D8A00080040012108A8002008A7002308AA008B
:101D9A002208A900DC2E0130A4020030A53B013044
:101DAA00A7070030A83D0130A9070030AA3D240842
:101DBA0025040319E12EE22EF22E290884002A08AE
:101DCA0085000008A6002708860028088700010861
:101DDA0026060319F12EF22ED02E24082504031DFF
:101DEA00F72EF82EFB2EA001A101092F2708860045
:101DFA0028088700290884002A08850000080102AB
:101E0A00A000A101031CA10308004001AF0029089A
:101E1A002A040319112F122F542F2A08A100290866
:101E2A00A0008C31C7248F3140012108AE00200860
:101E3A00AD00462F2A08A1002908A0002E08A300F9
:101E4A002D08A2002F088F31A6278F3140012008C4
:101E5A002104031D312F322F342F2F08552F290823
:101E6A0084002A0885000008AB00AC012B08A000FA
:101E7A002C08A1002F08013E8C31AD248F3140017E
:101E8A00AF002F0803194A2F4B2F542F2F08860013
:101E9A00013087000108031D532F542F1F2F0030D4
:101EAA0008004001AA002308AD002208AE002A0853
:101EBA00A400A501A409A509A40A0319A50A2508CD
:101ECA00A7002D082402A600031CA7032708A900BF
:101EDA002E082602A800031CA9032808FB3EAB0013
:101EEA00FE30293DAC007E308C3120248F31FF300A
:101EFA008C3120248F3106308C3120248F314001DF
:101F0A002A088C3120248F3100308C3120248F31E3
:101F1A0040012D088C3120248F3140012E088C314C
:101F2A0020248F3140012C088C3120248F3140012C
:101F3A002B088C3120248F31EF308C3120248F31C3
:101F4A0008004001A5002508A8002108A7002008CC
:101F5A00A6000130A2020030A33B220A031DB92FBA
:101F6A00230A031DB92FBA2FC92FA001A101FF2FE0
:101F7A000130A4002408A8070130A6070030A73DB5
:101F8A000130A2020030A33B2808860001308700F6
:101F9A0001080319D12FD22FF12F26088400270810
:101FAA00850012000319DA2FDB2FF12F22082304F0
:101FBA000319E02FE12FF12F260884002708850056
:101FCA000008A400280886000130870001082406BA
:101FDA000319F02FF12FBD2F280886000130870042
:101FEA00260884002708850000080102A000A10134
:101FFA00031CA1030800E1340C3400340034A93472
:10200A000D34FB34073452340B3443340C342E343D
:10201A000B3400340034003400340034003400340B
:10202A000034003400340034003400340034003406
:10203A0000340034003400340034003400340034F6
:10204A00003400340034DC340B3402340C340034F1
:10205A00003400340034FF340C34003400340034CB
:10206A00003448340B340034003431340C34003436
:10207A0000340034003400340034003400340034B6
:10208A0000340034003400340034003400340034A6
:10209A000034003400340034003400340034003496
:1020AA00003400340034C4340B34D0340B340034DC
:1020BA000034003400347D340C34003400340034ED
:1020CA000034003400340034003400340034003466
:1020DA0000340034003411340C3400340034223417
:1020EA000B3497340B347B340B34D5340D344334EE
:1020FA000E3457340B345D340B349F340B34823432
:10210A000B3400340034FF340034FF3400343A34E2
:04211A003A3400341F
:020000040001F9
:04000E008F3FE73FFA
:04001400FF3FFF3F6C
:00000001FF
