:1000000080311428033412347E1480314101161ECD
:100010000A280B2812280C1E0E280F2812289731A8
:10002000182780317E100900803116288731FF277C
:100030008031F900803102208031EE0080310320D0
:100040008031EF0000308400883085006830860001
:100050000130870005309531E7258031BA308400C2
:1000600095308500E73086000130870004309531F7
:10007000E7258031F601F701F801E901EA01EB011A
:10008000EC01ED01E7308400003085000830953147
:10009000E1258031513084000130850011309531E7
:1000A000E1258031A0308400013085004730953152
:1000B000E12580317E1040018231932A4101DD002B
:1000C000083040012E02031C66286728692800308A
:1000D000922A4101E60140012E08023E4101D90069
:1000E00040012F08031975287628AC2855304101A6
:1000F000C00001304001B30033084101E607660843
:10010000C03E860087015530810001304001B300B8
:1001100033084101E6076608C03E86008701810179
:1001200001304001B30033084101E6076608C03ED4
:1001300086008701810101304001B300330841018D
:10014000E6076608C03E8600870181010130400154
:10015000B30033084101E60741016608C03E86004E
:100160008701810101304001B30033084101E607F6
:100170006608C03E86008701810101304001B3005E
:1001800033084101E6076608C03E86008701FF305C
:10019000810001304001B30033084101E6076608E1
:1001A000C03E860087015908810001304001B3003C
:1001B00033084101E6076608C03E860087015908FA
:1001C000003C810001304001B30033084101E607E3
:1001D000D430E1006608C03E86008701D43081003B
:1001E00001304001B30033084101E6076608C03E14
:1001F000860087015D08810001304001B3003308AB
:100200004101E60761085D07E100DE012A29660871
:10021000C03E860087015E0840012D07B300330809
:1002200084008501000881000130B30033084101DA
:10023000E6075E0840012D07B300330886008701FA
:10024000010841016107E10001304001B3003308BA
:100250004101DE0740012E0841015E02031C3129E5
:10026000322907296608C03E860087016108003CE4
:10027000810001304001B30033084101E607660800
:10028000C03E86008701810101304001B300330880
:100290004101E60766084001A000A030A10020301F
:1002A000A200E830A3000330A400C03087310D273E
:1002B00080314101E20006306202031860296129A1
:1002C00062296728A0304001A0000030A1001C3046
:1002D000A2009830A3000630A4000030A5008B31A6
:1002E000022380314001200821040319782979294B
:1002F0007A29672806304101E500A32941016508F4
:10030000A03E860087010108031D872988299D29B1
:100310006508013EA03E860087010108031D912962
:1003200092299D296508023EA03E86008701010AA8
:10033000031D9B299C299D29AF2901304001B30051
:1003400033084101E507023065074001B300410170
:10035000620840013302031CAE29AF297E29023016
:10036000410165074001B3004101620840013302C9
:10037000031CBB29BC29BD29672841016508053E2E
:1003800062020318C429C529C62967286508033EE7
:10039000A03E860087010108E4006508043EA03EF7
:1003A000860087010108D700640857070319D92977
:1003B000DA29DB296728023064020318E029E129E1
:1003C000E22967286408073ED50000300318013091
:1003D000D600650855074001B300410156080318CF
:1003E000560A4001B400410162084001B500B6015F
:1003F00034083602031DFE29330835020318012A8A
:10040000022A032A672841016508053EE3006308C4
:10041000A03E86008701D53001060319102A112A53
:10042000122A67286308013EA03E860087015D0A04
:10043000010603191C2A1D2A1E2A6728DB01DC017C
:10044000372AA0305C074001B30041016308400136
:100450003307B400340886008701010841015B07B7
:10046000DB0001304001B30033084101DC076408C0
:100470005C02031C3C2A3D2A212A63086407DA0037
:100480005A08A03E8600870101085B070319492A24
:100490004A2A4B2A67285A08013ED8005808A03E2D
:1004A0008600870101080319562A572A582A672807
:1004B0006408FE3EDF005F08400131020318612A34
:1004C000622A652A31084101DF004101E001842AE6
:1004D000600840013007B300330886008701A03070
:1004E000410160074001B400410163084001340745
:1004F000B5003508023E8400850100088100013006
:10050000B30033084101E0075F086002031C892A39
:100510008A2A682A400132088600870141015F0863
:100520008100013008009731632782318B170B1748
:1005300040019210981429304001E8009630E700FD
:100540007F30890BA12AE70BA12AE80BA12A8D3164
:100550008C2582314201CE004E080319B02AB12AFF
:10056000EB2A4201C901D82A400198140930400100
:10057000E8001E30E700E430890BBC2AE70BBC2AF8
:10058000E80BBC2A00004001981009304001E80047
:100590001E30E700E430890BCB2AE70BCB2AE80BAF
:1005A000CB2A000001304001E70067084201C9077B
:1005B0004E084902031CDD2ADE2AB42A29304001F4
:1005C000E8009630E7007F30890BE42AE70BE42A45
:1005D000E80BE42AB12A400198107D0121179631D9
:1005E000032682317D304001A0000830A10089310E
:1005F000B721823196318A2682318E3101268231AD
:100600008A31C2228231031040010E1F03140030D0
:10061000031801304201CF004F0860060319112B67
:10062000122B1C2B4F08E0006008031D182B192B00
:100630001C2B95319A2582314201CA017908031990
:10064000222B232B2A2B6008031D272B282B2A2B38
:10065000CA01CA0A4A08031D2E2B302B0130312B48
:100660000030C70047080319362B372BCC2B5030EE
:100670004001B70040308C3147248231003A0319E1
:10068000422B432BCC2B400198144201CB01CB0AC7
:1006900050086106031D4D2B4E2B6C2B4030400142
:1006A000A0000130A100E030A2000130A30042010F
:1006B00050084001E700E8016708A4006808A500A9
:1006C0008B3102238231400120082104031D692B54
:1006D0006A2B6C2B4201CB0142014B08031D712B8D
:1006E000732B0130742B0030C80048080319792B94
:1006F0007A2BB92B20304001D1002030863178266A
:100700008231003A0319852B862BA22B20308831A9
:100710003E208231400130084201CD0040012F08C7
:100720004201CC004C084D040319972B982BA22BA7
:100730004D084001D80042014C084001D7008A31E1
:100740004E22823140304001A0000130A100420120
:1007500050084001E700E8016708A2006808A3000C
:10076000E0308831E020823142015008E100F80198
:10077000DF2B7808031DBD2BBE2BDF2B9531F42515
:100780008231003A031DC52BC62BDF2B8D31192575
:100790008231F801F80ADF2B420161080319D12BDD
:1007A000D22BDA2B7808031DD62BD72BDA2B8D31E1
:1007B000192582314201E101F8014001981007300A
:1007C0004001E8001730E7006A30890BE52BE70BA2
:1007D000E52BE80BE52B0000FD2A803114284001B1
:1007E000C200033029020318F62BF72BF92B003037
:1007F0003C2D42088600013087000108BB003B0801
:100800000739B3003B1A052C072C0130082C0030A7
:10081000B400BB190C2C0E2C01300F2C0030B5008D
:10082000C301C30A42088600013087000130413FFE
:10083000BC000130AC002C08C30734080319212C7C
:10084000222C3C2C29084302031C272C282C292C61
:10085000F72B43084207AC002C08860001308700C4
:100860000108AD00AE012D08BE002E08BF0001300A
:10087000AC002C08C307732C4308043EAC000030C6
:1008800003180130AD002908AE00AF012D082F027A
:10089000031D4C2C2C082E02031C4F2C502CF72B24
:1008A00043084207AC002C08033E86000130870055
:1008B0000108AD00AE0143084207AF002F08023E19
:1008C0008600013087000108B000B1013008B10096
:1008D000B0012D083004BE002E083104BF000430E2
:1008E000AC002C08C307B80135080319782C792C03
:1008F0008D2C29084302031C7E2C7F2C802CF72B87
:1009000043084207AC002C0886000130870001082C
:10091000B8000130AC002C08C30743083C07AC000A
:10092000AD01AD0D2908AE00AF012D082F02031D4A
:100930009B2C2C082E0203189E2C9F2CA02CF72BEE
:10094000B9013303031DA52CA62CBA2C3C03031DAF
:10095000AA2CAB2CBA2C43084207AC002C0886000A
:100960000130870054300106031DB72CB82CBA2C77
:10097000B901B90A3908031DBE2CC02C0130C12CA5
:100980000030B60043083C073807C3003608031D93
:10099000CA2CCB2CCC2CF72B43083E07AC003F08CD
:1009A00003183F0AAD002908AE00AF012D082F0241
:1009B000031DDC2C2C082E020318DF2CE02CE12C6C
:1009C000F72B42084307BA003A0886000130870037
:1009D0000108B70037083F39BD003D08013EAC00B3
:1009E000003003180130AD002D083F02031DFA2C22
:1009F0002C083E020318FD2CFE2CFF2CF72B3F0881
:100A0000AD003D083E02AC00031CAD032C08FF3EC8
:100A1000C000FF302D3DC1002B08FF3EAC00FF3071
:100A200003180030AD0041082D02031D192D4008A8
:100A30002C0203181C2D1D2D242D2B08FF3EC00059
:100A4000FF3003180030C1003A083D07013EA00006
:100A50000130A1004108A3004008A2002A08883103
:100A6000E0208331400140082A07AC002C088600B2
:100A7000013087008101013008004001D400540892
:100A8000C000C1014008A2004108A3005408C200F0
:100A9000C3014208A0004308A10088315D208531D0
:100AA00040012008C4002108C500C601C70147084D
:100AB000A7004608A6004508A5004408A40054085D
:100AC000C800C901CA01CB014B08AB004A08AA0003
:100AD0004908A9004808A8008931E521853140016D
:100AE0002708CF002608CE002508CD002408CC001A
:100AF0003E08C000C1014008A2004108A3003E0812
:100B0000C200C3014208A0004308A10088315D2053
:100B1000853140012008C4002108C500C601C70175
:100B20004708A7004608A6004508A5004408A400F9
:100B30003E08C800C901CA01CB014B08AB004A08F6
:100B4000AA004908A9004808A8008931E521853193
:100B500040012708D3002608D2002508D100240828
:100B6000D0005308B3005208B2005108B100500839
:100B7000B0004F08A7004E08A6004D08A5004C087D
:100B8000A4000030AB000030AA000330A900FF3001
:100B9000A8008931E521853140012708B7002608E2
:100BA000B6002508B5002408B4008B31EC2385314C
:100BB00040013108BF003008BE0008004001A40019
:100BC0002408A70022082304031DE72DE82DE92DA2
:100BD000772E270886000130870020088100220830
:100BE0002707F4007408FF3E8600013087002008C4
:100BF0008100003023020330031922020318012E62
:100C0000022E032E772E270A860001308700200847
:100C100081002708023E86000130870020088100FD
:100C200022082707F4007408FE3E86000130870082
:100C30002008810022082707F4007408FD3E860082
:100C4000013087002008810000302302073003199B
:100C5000220203182C2E2D2E2E2E772E2708033E2F
:100C60008600013087002008810022082707F40051
:100C70007408FC3E860001308700200881000030A7
:100C800023020930031922020318472E482E492E49
:100C9000772E2709F4002809F500F40A0319F50A4C
:100CA00003307405A50000307505A6002508F40082
:100CB0007408A7072508A2022608A33BFC30A2055A
:100CC000FF30A305712E2708860001308700200819
:100CD00081000130A2020030A33B0130F40074080F
:100CE000A70722082304031D762E772E632E080003
:100CF0004001D600DC010430D900DB01F52E5C0890
:100D0000A03EB70059088A3183228631003A031D7C
:100D10008A2E8B2E8D2E00300C2F40015C08103E49
:100D2000DC005908043ED900EF2E5B08A03E860087
:100D3000013087000108D7005708031DA02EA12EFF
:100D4000A62E0130D2005208DB07EF2EFE305706E8
:100D5000031DAB2EAC2EAD2E8B2E01305B07D200C7
:100D60005C085202031CB52EB62EB72EF52E5B087A
:100D7000A13E8600013087000108DA005A0A031DEF
:100D8000C22EC32EC42E8B2E5B08023ED8005808FC
:100D90005A07D200D301D30D5C08D400D501530803
:100DA0005502031DD52E520854020318D82ED92EF1
:100DB000DA2EF52E03305706031DDF2EE02EEC2E23
:100DC0005A08A9005608AA005108AB005808A03ECE
:100DD0008331EF2386310C2F58085A07DB005C085B
:100DE0005B02031CF42EF52E952E293059020318B0
:100DF000FA2EFB2E8B2E5C08103ED200003003181A
:100E00000130D30000305302413003195202031C59
:100E10000A2F0B2F7F2E8B2E08004001A500AC015E
:100E2000A901AA01A601A701A8014C019A1C192F2A
:100E30001A2F202F1A121A16202F893135218731A7
:100E40009531BE258731003A031D272F282F1D2FEE
:100E50004001AB01442F9631E3268731003A031954
:100E6000322F332F2B2F40012B082507F500750853
:100E7000860087010108F4009531B62587310130DD
:100E8000F50075084001AB0720082B02031C492F11
:100E90004A2F2B2F9531B2258731003A0319512F54
:100EA000522F4A2F962F9531BE258731003A0319CC
:100EB0005A2F5B2F702F40012C082107F500750871
:100EC0008600870189313521873181000130F500A5
:100ED00075084001AC07A801A80AA901AA01962F2C
:100EE0001A30890B712F003240012808031D792F19
:100EF0007A2F882F0130A6070030A73D2730270220
:100F0000103003192602031C862F872F962F9D2F42
:100F10000130A9070030AA3D27302A0210300319FA
:100F20002902031C942F952F962F9D2F40012208F4
:100F30002C02031C9C2F9D2F532F2C0808004001CE
:100F4000A501A11FA42FA52FAC2FA009A109A00ABC
:100F50000319A10AA501A50AA31FAF2FB02FB92F0E
:100F6000A209A309A20A0319A30A0130F400740814
:100F7000A506A601A701200821040319C02FC12F2F
:100F8000F02FA401A40ACD2F0130A035A10D890BAB
:100F9000C52F0130F4007408A407A11FD02FD12F52
:100FA000C42F0130A635A70D890BD22F21082302AB
:100FB000031DDC2F20082202031CDF2FE02FE52F6A
:100FC0002008A2022108A33B26140130A136A00C60
:100FD000890BE62F0130A402031DEF2FF02FD12F34
:100FE00025080319F42FF52FFA2FA609A709A60A39
:100FF0000319A70A2708A1002608A0000800013449
:101000000134143400340134003448304C019C0065
:1010100090309A0026309B00443098009901983017
:10102000F4001530F50096314E268831AA30F400D0
:101030001530F50096315A2688314201DC01DD0178
:10104000080048304C01920090309000263091000A
:1010500040308E0003308F009930F4001530F500D9
:10106000963136268831AE30F4001530F5009631D1
:10107000422688314201DE01DF0108004001B10053
:101080002230A8009830A90031088B3146238831DE
:101090004001B2003208031D4E284F285228AF01EC
:1010A000B0015C283208023E8F3170278831400140
:1010B0002508B0002408AF000800F401F501400144
:1010C000201C6328642868282208F4072308F53DBB
:1010D0000130A235A30D890B69280130A136A00C7F
:1010E000890B6E2820082104031D772878285F28A3
:1010F0007508A1007408A00008007808031D812865
:10110000822885288D311925883100304001A000C2
:10111000A1000730A2000030A300E0308531DE25B9
:1011200088314201E101F8017908031998289A28C9
:1011300001309B280030F9000800420155084001A9
:10114000A100420154084001A0005530A2006230C5
:10115000A30088315D20883140012008193E4201FA
:10116000D40036304001213D4201D50055084001F0
:10117000A500420154084001A40008004001A2015A
:10118000A20A2030740675040319C728C828D82875
:101190007408F73EA000FF30753DA1000030210229
:1011A000053003192002031CD628D728D828A2010D
:1011B0002208A000A1012008F4002108F500080081
:1011C0004001A8002108A6002008A5002808A700C3
:1011D000FD2825088600260887000108A4000130A4
:1011E000A5070030A63D27088600013087002408A7
:1011F00081000130F4007408A7070130A20200301A
:10120000A33B220A031D0829230A031D08290929D3
:10121000E928080040010E0E0139F0000E0CF10023
:10122000F10C710C013909077004F3006D08F0002E
:101230000130F035FF3E031D192970357304F200AB
:101240007208003E840098300318013E85000008B3
:10125000F000F101F01BF10376087007F600770843
:10126000713DF7007308ED0008004201DC01DD016B
:101270004C019A1C3C293D294A2942015C155A0817
:101280005B040319442945294A295B088A005A0846
:101290000A0089314C011A1D4E294F295D2942014E
:1012A000DC144101670868040319572958295D298E
:1012B00068088A0067080A0089314C01160808008E
:1012C0004001C8006F084807C900CA010318CA0ACC
:1012D000C81F6B29CA034001CA1F6F2970297229D0
:1012E000C901CA014A08803AC70080304702031D7D
:1012F0007B291A304902031C7E297F298429193051
:101300004001C9000030CA004001C30149089731BB
:101310009527893108004201DE01DF014C01901C54
:1013200092299329A12942015E15410169086A04A5
:1013300003199B299C29A1296A088A0069080A00C7
:1013400089314C01101DA529A629B4294201DE14BA
:1013500041016B086C040319AE29AF29B4296C084C
:101360008A006B080A0089314C010C080800400112
:1013700021084201D900400120084201D8007D0126
:10138000A11521168D1540010E0E0139A2000E0C7B
:10139000A300A30C230C013909072204ED000A3035
:1013A000F4000930F5009531C92589310A30F4007F
:1013B0000930F5009531CF2589319E30F400153084
:1013C000F5009531C3258931080000304001AF0098
:1013D0000030AE000030AD000030AC00241CF1291C
:1013E000F229FA292808AC072908AD3D2A08AE3DA4
:1013F0002B08AF3D0130A835A90DAA0DAB0D890B07
:10140000FB290130A736A60CA50CA40C890B022AD7
:101410002708260425042404031D0F2A102AEE2978
:101420002F08A7002E08A6002D08A5002C08A40050
:10143000080040012608270403191F2A202A492AE8
:10144000AB01AB0A2C2A0130A635A70D890B242A43
:101450000130AA002A08AB07A71F2F2A302A232A07
:1014600027082902031D362A26082802031C392AC8
:101470003A2A3E2A2608A8022708A93B0130A736A7
:10148000A60C890B3F2A0130AB02031D482A492ACA
:10149000302A2908A7002808A6000800400158089B
:1014A000C4005708C30096317E268A314001DB0113
:1014B000DB0A1E30BE005B0885313D258A314001C4
:1014C0003F08D6003E08D5009631F2268A31033017
:1014D0004001DA000830D9007730890B6D2AD90B2A
:1014E0006D2ADA0B6D2A01304001D9005908DB075B
:1014F0001F305B02031C7D2A7E2A592A0130963157
:1015000020268A3108004001CC000030CD00003098
:10151000CE000030CF00CD01CD0A3030CE004C08D7
:10152000CF004D30AD000330AE00AF013830B00019
:101530001430B1005030B200403080315E208A312A
:10154000003A031DA42AA52AA72A0030C12A113077
:1015500040015002031CAD2AAE2AA52A38080319FF
:10156000B22AB32AB42AA52A3930A0000030A1003B
:101570001030A2000030A30037088831E0208A3103
:101580000130080040016908031DC72AC82AC92A7A
:10159000012B6A08031DCD2ACE2AE12A46010C0838
:1015A000013E4001B100003003180130B2003108A3
:1015B0004201D400400132084201D5004001EA0155
:1015C000EA0A6E080319E52AE62AE92A0130EE0242
:1015D000012B981609304001B2001E30B100E430F2
:1015E000890BF02AB10BF02AB20BF02A000040015F
:1015F00098120F30AC0003309731E4278A31400154
:10160000EE00080040012108A7002008A6002308DA
:10161000A9002208A800182B0130A4020030A53B25
:101620000130A6070030A73D0130A8070030A93DD2
:101630002408250403191D2B1E2B2E2B280884009B
:10164000290885000008F40026088600270887007E
:101650000108740603192D2B2E2B0C2B24082504AE
:10166000031D332B342B372BA001A101452B26085A
:1016700086002708870028088400290885000008BC
:101680000102A000A101031CA10308004001AE005B
:101690002808290403194D2B4E2B902B2908F500FF
:1016A0002808F4009731C9278B3175084001AD0037
:1016B0007408AC00822B2908A1002808A0002D087E
:1016C000A3002C08A2002E088B3192238B314001FD
:1016D00020082104031D6D2B6E2B702B2E08912BDF
:1016E00028088400290885000008AA00AB012A0800
:1016F000F4002B08F5002E08013E9731AF278B31FF
:101700004001AE002E080319862B872B902B2E0844
:101710008600013087000108031D8F2B902B5B2B67
:10172000003008004001A4002408A7002108A600FA
:101730002008A5000130A2020030A33B220A031DAD
:10174000A52B230A031DA52BA62BB52BA001A101B8
:10175000EB2B0130F4007408A7070130A507003017
:10176000A63D0130A2020030A33B270886000130CD
:10177000870001080319BD2BBE2BDD2B2508840033
:101780002608850012000319C62BC72BDD2B220863
:1017900023040319CC2BCD2BDD2B25088400260830
:1017A00085000008F4002708860001308700010842
:1017B00074060319DC2BDD2BA92B270886000130CA
:1017C0008700250884002608850000080102A00083
:1017D000A101031CA103080000304001BC0000303F
:1017E000BB000030BA000030B900330832043104C5
:1017F00030040319FC2BFD2B3E2CBD01BD0A0B2C24
:101800000130B035B10DB20DB30D890B012C013093
:10181000B8003808BD07B31F0E2C0F2C002C013068
:10182000B935BA0DBB0DBC0D890B102C330837022E
:10183000031D242C32083602031D242C31083502E6
:10184000031D242C30083402031C272C282C312C97
:101850003008B4023108B53B3208B63B3308B73B19
:1018600039140130B336B20CB10CB00C890B322CE8
:101870000130BD02031D3D2C3E2C0F2C3C08B30053
:101880003B08B2003A08B1003908B0000800400136
:10189000D30042016C084001D20042016B084001B4
:1018A000D1005130AD000230AE00AF013930B00090
:1018B0001830B1005430B2004A3080315E208C3193
:1018C000003A031D642C652C672C0030A92C4001C4
:1018D000540803196C2C6D2C652C3908031D712CD0
:1018E000722C732C652C3E08D60056080319792CEF
:1018F0007A2C652C0830560203187F2C802C652C1E
:101900005608063E54020318862C872C882C652C1A
:10191000D5019C2C55085307B800380886000130C3
:1019200087005508063E393E840085010008810085
:101930000130B8003808D50756085502031CA12C01
:10194000A22C8A2C370886000130870056088100B7
:10195000013008004001980199019A019B019C0106
:10196000DD309200EF309300FF309400CD309500D1
:101970000F309600D5307D018C00CD309600A73019
:10198000A000CB30AA000730B4008D019701A1015F
:10199000AB01B5018E019801A201AC01B601FF3087
:1019A0008F00FF309900FF30A300FF30AD000730FB
:1019B000B700FF309000FF309A00FF30A400FF30E6
:1019C000AE000F30B8001A307C01C3000D30C100EA
:1019D0000B307B01A8000C30A9001130A5000E309F
:1019E00098007D0191010830920093019B019C01B8
:1019F0009D011830A5001830A600A701B901BA0151
:101A0000BB019530F4001530F5009531C3258C31BC
:101A10009730F4001530F5009531C9258C3196309A
:101A2000F4001530F5009531CF258C3141011616A3
:101A300008000030963120268D3195319B258D315F
:101A40004001E2001430E4006408FF3EE30014307B
:101A5000BE00630885313D258D3140013F08E0001F
:101A60003E08DF000030B3000030B2000030B100AB
:101A70001430B0006308D700D8015708A2005808F6
:101A8000A3006208D900DA015908A0005A08A10091
:101A900088315D208D3140012008DB002108DC0009
:101AA000DD01DE015E08B7005D08B6005C08B50028
:101AB0005B08B4008B31EC238D3140013008E1002C
:101AC0006008D6005F08D5009631F2268D314001BE
:101AD000C3016108973195278D3103304001D8004B
:101AE0000830D7007730890B732DD70B732DD80BA7
:101AF000732D01304001E4026408031D802D812D07
:101B0000242D963115268D314001C301C30A620888
:101B1000973195278D31080068304001B700E430D7
:101B2000890B902DB70B902D0000420168084001F1
:101B3000CC00420169084001CD0042016A08400121
:101B4000CE004C30AD000330AE00AF01AF0A3830EC
:101B5000B0001030B1004F30B200143080315E2040
:101B60008D31003A031DB52DB62DB82D0130002E54
:101B700043016A084001CB00430169084001CA00E3
:101B8000430168084001C900430167084001C800DB
:101B90004830AD000430AE00AF013830B000103036
:101BA000B1004F30B200323080315E208D31003ACA
:101BB000031DDB2DDC2DDE2D0230002E4001AD019A
:101BC000AE01AF013830B0001030B1004F30B2007C
:101BD000023080315E208D31003A0319F02DF12D55
:101BE000FD2D40014F080319F62DF72DFD2D323044
:101BF00038060319FC2DFD2DFF2D0330002E00307B
:101C00000800410116127708A1007608A0000430F0
:101C10004001A0000030A100410121084001A300C3
:101C2000410120084001A20087319F278E314001E9
:101C300020084101A20022084001E500E601E51B61
:101C4000E603E535E60DE535E60D650841012002C0
:101C5000F600400166084101213BF70016162208F4
:101C60000319332E342E382E2208893160218E310B
:101C700040016C0803193D2E3E2E6A2E41011612BA
:101C80004001EC014101161640016B08031D492E6D
:101C90004A2E6A2E02304001E6003830E500AD30B1
:101CA000890B502EE50B502EE60B502E40018C195F
:101CB0005A2E5B2E6A2EEB01EB0A4201580859049A
:101CC0000319632E642E6A2E59088A0058080A00E8
:101CD0008E316A2E40016B0803196F2E702E752EFF
:101CE0008C1D732E742E752EEB0108004001BD0073
:101CF0003508C0003408C100C201C20A3D08B7005F
:101D0000B801B709B809B70A0319B80A3808BA0000
:101D100040083702B900031CBA033A08BC00410866
:101D20003902BB00031CBC033B08FA3EBE00FE3078
:101D30003C3DBF009E2E89318B218E319531ED25A2
:101D40008E31003A031DA52EA62E9B2E7E30963195
:101D5000D4268E31FF309631D4268E31063096311E
:101D6000D4268E3140013D089631D4268E31400173
:101D700042089631D4268E31400140089631D4264F
:101D80008E31400141089631D4268E3140013F0802
:101D90009631D4268E3140013E089631D4268E31BC
:101DA000EF309631D4268E319531A2258E31003A0E
:101DB0000319DB2EDC2ED42E40013608031DE12E44
:101DC000E22EE32EEE2E0030A3000030A200C3303E
:101DD000A1005030A0008E31EF268E3108009531E1
:101DE000FB258E314001B301432F9531ED258E3116
:101DF000003A0319FC2EFD2E0C2F40013308283E1B
:101E00008600870189318B218E31810001304001AC
:101E1000A4002408B307432F3530890B0D2F000091
:101E200040012308031D1F2F2208031D1F2F210817
:101E3000031D1F2F1530200203181F2F202F2A2FBC
:101E400000304001A3000030A2000030A1000030AB
:101E5000A000432FEC304001A400FF30A500FF306C
:101E6000A600FF30A7002008A4072108A53D2208EE
:101E7000A63D2308A73D2708A3002608A2002508A1
:101E8000A1002408A0000A3033020318482F492F6C
:101E9000512F2308220421042004031D502F512F09
:101EA000F52E0A3033020318562F572F592F0030C2
:101EB0006F2FB2017E302806031D5F2F602F6E2F1B
:101EC00041302B06031D652F662F6E2FEF30310634
:101ED000031D6B2F6C2F6E2FB201B20A320808005F
:101EE0004001AC00AA01AB01A801A9017B2F013080
:101EF000A6002608AC072C08860001308700203099
:101F000001060319842F852F772F2C0886000130B6
:101F100087000108F73EA600FF3003180030A70035
:101F200000302702053003192602031C982F992F31
:101F3000772FA32F0130A8000030A9000130A600A0
:101F40002608AC07D52F2C08860001308700010831
:101F5000A600A7012708003A0319AF2FD52F26089E
:101F60002B3A03199E2F063A03199A2FD52F2C08C6
:101F70008600013087002B08A1002A08A0000A3043
:101F8000A2000030A30088315D208F31400121087C
:101F9000A70001082002A600031CA7032608303E64
:101FA000AA000030273DAB009E2F2C088600013090
:101FB00087000108D03EA600FF3003180030A700BC
:101FC000003027020A3003192602031CE82FE92FEC
:101FD000B72F28082904031DEE2FEF2FFB2F2A0906
:101FE000A6002B09A700A60A0319A70A2608A40021
:101FF0002708A500FF2F2B08A5002A08A400080029
:10200000053408340034003435340934B63415341A
:10201000BE341534E3341634B2341534003400348D
:102020000034003400340034003400340034003410
:102030000034003400340034003400340034003400
:1020400000340034003400340034003400340034F0
:102050004E3416345A34163400340034003400340C
:1020600021340834003400348B340934A634153458
:10207000ED341534C5341634A2341534003400342C
:1020800000340034003400340034003400340034B0
:1020900000340034003400340034003400340034A0
:1020A0000034003400340034003400340034003490
:1020B00036341634423416340034003400340034DC
:102B2A0008000800080008000800080040016F08B3
:102B3A00080001304001EC0008004C01110C013979
:102B4A00080074084C018D0008004C011A121A166C
:102B5A0008004C011012101608004C011B0C013918
:102B6A00080074084C01970008000534FF3401344A
:102B7A00023441010F0E890C01390800750842011F
:102B8A00E7007408E600080075084201E5007408C9
:102B9A00E400080075084201E3007408E200080036
:102BAA0075084101EE007408ED000800750842013D
:102BBA00D7007408D6000800640080010131890B2F
:102BCA00E22D0034FE0012001E00FE0BE82D003438
:102BDA0041010F0CF400F40C740C013908000310C5
:102BEA0040018D1C03140030093D08004C01901C63
:102BFA00FF2D002E022E1012101608004001C301EC
:102C0A00C30A1230973195279631080044018E0184
:102C1A008F019101053093009001920194010800FF
:102C2A0000304001B400B500B601B60A16308E3144
:102C3A00762696310800F40074084001E900740809
:102C4A00031D282E292E2A2E9812080041010C1045
:102C5A000B140030F4000030F5009531D52596317B
:102C6A0008007408750403193B2E3C2E412E750882
:102C7A004101EC007408EB0008007408750403199C
:102C8A00472E482E4D2E75084101EA007408E900C6
:102C9A000800740875040319532E542E592E75080A
:102CAA004101E8007408E700080074087504031974
:102CBA005F2E602E652E75084201DB007408DA006B
:102CCA00080048011F08FC3901389F0080308E0037
:102CDA007F308D00C0308C00080048011F08F3398E
:102CEA0004389F00803091007F309000C0308F0000
:102CFA00080040014408B5004308B400B601B60A0A
:102D0A0012308E317626963108007D012A12AA12D7
:102D1A0000304001D500D6009631F22696314001A6
:102D2A0092129812080042016608670403199E2E3F
:102D3A009F2EA42E67088A0066080A0096317D0134
:102D4A00931108004201640865040319AD2EAE2EE2
:102D5A00B32E65088A0064080A0096317D01A7111E
:102D6A0008004201620863040319BC2EBD2EC22E5C
:102D7A0063088A0062080A0096317D01271208005A
:102D8A00F40141010F1DCA2ECB2ED22E4C01911EE9
:102D9A00CF2ED02ED22EF401F40A74080800F500C2
:102DAA009631C5269631003A0319DC2EDD2ED52E32
:102DBA007508F4009531A62596310800F401410101
:102DCA000F1EE82EE92EF02E4C019B1EED2EEE2E44
:102DDA00F02EF401F40A7408080040015608F500C0
:102DEA005508F40097313127963140015608F5000D
:102DFA005508F40097314A279631080001304601F8
:102E0A0090008F019101FF308D008C010030F40099
:102E1A000030F5009531DB25973141018D13803063
:102E2A0046018E0008007D01931D1C2F1D2F202FA7
:102E3A009631982697317D01A71D242F252F282FFB
:102E4A009631A72697317D01271E2C2F2D2F302F43
:102E5A009631B6269731080075084001A10074081A
:102E6A00A000A136A00CA136A00C200848018D00B4
:102E7A00740803394001A0000530A035FF3E031D48
:102E8A00422F203548018C00080075084001A10036
:102E9A007408A000A136A00CA136A00C2008480195
:102EAA009000740803394001A0000530A035FF3EA8
:102EBA00031D5B2F203548018F00080096310B2631
:102ECA0097318C31AA249731883121209731883162
:102EDA0005209731963166269731963172269731B9
:102EEA0097310327973196312B26973108007408BA
:102EFA00D03E4001A000FF30753DA1000030210204
:102F0A000A3003192002031C8B2F8D2F01308E2FBC
:102F1A000030A200A3012208F4002308F5000800EB
:102F2A004001C6001A304602031C9C2F9D2F9F2F7A
:102F3A001930C6004608EF004608C400C501440817
:102F4A00B4004508B5004308B60006308E3176262F
:102F5A00973108004001A000200886000130870050
:102F6A0001087406031DBA2FBB2FBD2F2008C82FD6
:102F7A002008860001308700A00A0108031DC62F19
:102F8A00C72FB12F0030080075084001A20074084D
:102F9A00A100D32F0130F4070030F53D74088400F6
:102FAA00750885001200031DDB2FDC2FCF2F40018F
:102FBA0021087402F4002208753BF500080040015C
:102FCA00B00030082C02013EAF002F08AD00AE0160
:102FDA002D08A6002E08A70088319D2097314001B0
:102FEA002508A9002408A8008A311922973140012E
:102FFA002608300708000034FF3401340034013455
:10300A0000340034FF34FF34003400340134003417
:10301A000134FF34003403341734003400340034EC
:10302A00003400340034DB34153400340034003406
:10303A000034FF340034FF3400343A343A34003474
:020000040001F9
:04000E008F3FE73FFA
:04001400FF3FFF3F6C
:00000001FF
