:1000000080313128013400347E1480314101161EC4
:100010000A280B2813280C1E0E280F2813288B31B2
:10002000212380312F280B1F162817282F28991FCE
:100030001A281B2823288F1F1E281F2823288B31AE
:10004000502380312F28191F262827282F280F1FDB
:100050002A282B282F288B31542380312F287E10DB
:100060000900803133284101803102208031ED00C8
:10007000803103208031EE00BA3084008B3085005F
:10008000583086000130870007308B319F23803144
:10009000F001F101F201F301F401F5015F30840098
:1000A0000030850010308B3199238031E701E80161
:1000B000E901EA01EB01EC014201DF01E001E101AC
:1000C000E201E301A03084000130850040308B3133
:1000D000992380317E1040018331F12B4101DD00F5
:1000E000083040013002031C762877287928003038
:1000F000A22A4101E60140013008023E4101D90037
:1001000040013108031985288628BC285530410153
:10011000C00001304001B50035084101E60766081E
:10012000C03E860087015530810001304001B50096
:1001300035084101E6076608C03E86008701810157
:1001400001304001B50035084101E6076608C03EB0
:1001500086008701810101304001B5003508410169
:10016000E6076608C03E8600870181010130400134
:10017000B50035084101E60741016608C03E86002A
:100180008701810101304001B50035084101E607D2
:100190006608C03E86008701810101304001B5003C
:1001A00035084101E6076608C03E86008701FF303A
:1001B000810001304001B50035084101E6076608BD
:1001C000C03E860087015908810001304001B5001A
:1001D00035084101E6076608C03E860087015908D8
:1001E000003C810001304001B50035084101E607BF
:1001F000D430E1006608C03E86008701D43081001B
:1002000001304001B50035084101E6076608C03EEF
:10021000860087015D08810001304001B500350886
:100220004101E60761085D07E100DE013A29660841
:10023000C03E860087015E0840012F07B5003508E3
:1002400084008501000881000130B50035084101B6
:10025000E6075E0840012F07B500350886008701D4
:10026000010841016107E10001304001B500350896
:100270004101DE074001300841015E02031C4129B3
:10028000422917296608C03E860087016108003CA4
:10029000810001304001B50035084101E6076608DC
:1002A000C03E86008701810101304001B50035085C
:1002B0004101E60766084001A100A030A2002030FD
:1002C000A300E830A4000330A500C03085317925B3
:1002D00080314101E2000630620203187029712961
:1002E00072297728A0304001A0000030A10097308B
:1002F000A2009030A3000630A4000030A5008E318B
:10030000C626803140012008210403198829892943
:100310008A29772806304101E500B32941016508A3
:10032000A03E860087010108031D97299829AD2961
:100330006508013EA03E860087010108031DA12932
:10034000A229AD296508023EA03E86008701010A68
:10035000031DAB29AC29AD29BF2901304001B500EF
:1003600035084101E507023065074001B50041014C
:10037000620840013502031CBE29BF298E290230C4
:10038000410165074001B5004101620840013502A5
:10039000031CCB29CC29CD29772841016508053ECE
:1003A00062020318D429D529D62977286508033E87
:1003B000A03E860087010108E4006508043EA03ED7
:1003C000860087010108D700640857070319E92947
:1003D000EA29EB297728023064020318F029F12971
:1003E000F22977286408073ED50000300318013051
:1003F000D600650855074001B500410156080318AD
:10040000560A4001B600410162084001B700B80138
:1004100036083802031D0E2A350837020318112A40
:10042000122A132A772841016508053EE300630874
:10043000A03E86008701D53001060319202A212A13
:10044000222A77286308013EA03E860087015D0AC4
:10045000010603192C2A2D2A2E2A7728DB01DC011C
:10046000472AA0305C074001B50041016308400104
:100470003507B600360886008701010841015B0791
:10048000DB0001304001B50035084101DC0764089C
:100490005C02031C4C2A4D2A312A63086407DA00E7
:1004A0005A08A03E8600870101085B070319592AF4
:1004B0005A2A5B2A77285A08013ED8005808A03EDD
:1004C0008600870101080319662A672A682A7728A7
:1004D0006408FE3EDF005F08400133020318712A02
:1004E000722A752A33084101DF004101E001942A94
:1004F000600840013207B500350886008701A0304A
:10050000410160074001B600410163084001360720
:10051000B7003708023E84008501000881000130E1
:10052000B50035084101E0075F086002031C992A05
:100530009A2A782A400134088600870141015F0821
:100540008100013008004001C30003302A02031873
:10055000AA2AAB2AAD2A0030F02B430886000130CE
:1005600087000108BC003C080739B4003C1AB92ACE
:10057000BB2A0130BC2A0030B500BC19C02AC22AEF
:100580000130C32A0030B600C401C40A4308860003
:10059000013087000130413FBD000130AD002D0822
:1005A000C40735080319D52AD62AF02A2A08440296
:1005B000031CDB2ADC2ADD2AAB2A44084307AD00F2
:1005C0002D088600013087000108AE00AF012E081B
:1005D000BF002F08C0000130AD002D08C407272B35
:1005E0004408043EAD00003003180130AE002A0874
:1005F000AF00B0012E083002031D002B2D082F0282
:10060000031C032B042BAB2A44084307AD002D0821
:10061000033E8600013087000108AE00AF014408A8
:100620004307B0003008023E860001308700010811
:10063000B100B2013108B200B1012E083104BF008F
:100640002F083204C0000430AD002D08C407B901E2
:10065000360803192C2B2D2B412B2A084402031C8E
:10066000322B332B342BAB2A44084307AD002D0823
:100670008600013087000108B9000130AD002D0867
:10068000C40744083D07AD00AE01AE0D2A08AF0017
:10069000B0012E083002031D4F2B2D082F02031826
:1006A000522B532B542BAB2ABA013403031D592B65
:1006B0005A2B6E2B3D03031D5E2B5F2B6E2B4408C4
:1006C0004307AD002D088600013087005430010635
:1006D000031D6B2B6C2B6E2BBA01BA0A3A08031D53
:1006E000722B742B0130752B0030B70044083D0786
:1006F0003907C4003708031D7E2B7F2B802BAB2AC4
:1007000044083F07AD0040080318400AAE002A081D
:10071000AF00B0012E083002031D902B2D082F02D0
:100720000318932B942B952BAB2A43084407BB004B
:100730003B088600013087000108B80038083F39BF
:10074000BE003E08013EAD00003003180130AE008F
:100750002E084002031DAE2B2D083F020318B12BBB
:10076000B22BB32BAB2A4008AE003E083F02AD00CF
:10077000031CAE032D08FF3EC100FF302E3DC2001A
:100780002C08FF3EAD00FF3003180030AE004208D9
:100790002E02031DCD2B41082D020318D02BD12B87
:1007A000D82B2C08FF3EC100FF3003180030C200D8
:1007B0003B083E07013EA0000130A1004208A30013
:1007C0004108A2002B088D31AB2582314001410840
:1007D0002B07AD002D088600013087008101013014
:1007E00008008C315E248331400192109814293026
:1007F0004201A1009630A0007F30890BFD2BA00B99
:10080000FD2BA10BFD2B86319B2683314201D600A7
:10081000560803190C2C0D2C462C4201D101332C07
:100820004001981409304201A1001E30A000E430BC
:10083000890B182CA00B182CA10B182C00004001C0
:10084000981009304201A1001E30A000E430890B4D
:10085000272CA00B272CA10B272C000001304201D4
:10086000A0002008D10756085102031C382C392C4F
:10087000102C29304201A1009630A0007F30890B56
:100880003F2CA00B3F2CA10B3F2C0D2C40019810AE
:100890004201D30157304001B90049308731102758
:1008A0008331003A0319552C562CD02C4001981452
:1008B0004201D201D20A57085306031D602C612C55
:1008C000812C49304001A0000130A1004230A2003B
:1008D0000130A30042015708A000A10120084001F7
:1008E000A400420121084001A5008E31C6268331B3
:1008F000400120082104031D7E2C7F2C812C420105
:10090000D20142015208031D862C882C0130892C0B
:100910000030D000500803198E2C8F2CD42C20309E
:100920004001D30022308431E4248331003A03199A
:100930009A2C9B2CB82C22308D31272583314001F5
:1009400031084201D500400130084201D40054086A
:1009500055040319AC2CAD2CB82C55084001A3004C
:10096000420154084001A20012308F3156278331D2
:1009700049304001A0000130A10042015708A00009
:10098000A10120084001A200420121084001A3006A
:1009900042308D31AB25833142015708D300D42C2E
:1009A0004201D3014001981007304201A1001730E5
:1009B000A0006A30890BDA2CA00BDA2CA10BDA2C00
:1009C00000004A2C803131284001D800DE0104307B
:1009D000DB00DD01612D5E08A03EB9005B088E31B1
:1009E00004268431003A031DF62CF72CF92C003034
:1009F000782D40015E08103EDE005B08043EDB00FF
:100A00005B2D5D08A03E8600013087000108D900FB
:100A10005908031D0C2D0D2D122D0130D400540842
:100A2000DD075B2DFE305906031D172D182D192DDE
:100A3000F72C01305D07D4005E085402031C212D01
:100A4000222D232D612D5D08A13E860001308700F7
:100A50000108DC005C0A031D2E2D2F2D302DF72CF4
:100A60005D08023EDA005A085C07D400D501D50DB6
:100A70005E08D600D70155085702031D412D5408C2
:100A800056020318442D452D462D612D033059067D
:100A9000031D4B2D4C2D582D5C08AA005808AB00A7
:100AA0005308AC005A08A03E8231A3228431782D2D
:100AB0005A085C07DD005E085D02031C602D612D95
:100AC000012D29305B020318662D672DF72C5E0877
:100AD000103ED400003003180130D500003055021C
:100AE000413003195402031C762D772DEB2CF72C83
:100AF00008004001A700AE01AB01AC01A801A901AB
:100B0000AA014C019A1C852D862D8C2D1A121A16BD
:100B10008C2D8731D32785318B3172238531003A73
:100B2000031D932D942D892D4001AD01B02D8C31E5
:100B30003A248531003A03199E2D9F2D972D4001AF
:100B40002D082707A6002608860087010108A000B7
:100B50008B317723853101304001A6002608AD078F
:100B600021082D02031CB52DB62D972D8B3158234E
:100B70008531003A0319BD2DBE2DB62D022E8B31C5
:100B800072238531003A0319C62DC72DDC2D400193
:100B90002E082207A6002608860087018731D32762
:100BA0008531810001304001A6002608AE07AA0168
:100BB000AA0AAB01AC01022E1A30890BDD2D0032DE
:100BC00040012A08031DE52DE62DF42D0130A8076C
:100BD0000030A93D27302902103003192802031CD8
:100BE000F22DF32D022E092E0130AB070030AC3D63
:100BF00027302C02103003192B02031C002E012E6B
:100C0000022E092E400123082E02031C082E092E55
:100C1000BF2D2E0808004001AE00AC01AD01AA01B5
:100C2000AB01162E0130A8002808AE072E0886005A
:100C3000013087002030010603191F2E202E122EAE
:100C40002E088600013087000108F73EA800FF301B
:100C500003180030A90000302902053003192802CA
:100C6000031C332E342E122E3E2E0130AA000030EB
:100C7000AB000130A8002808AE07702E2E088600B1
:100C8000013087000108A800A9012908003A0319CA
:100C90004A2E702E28082B3A0319392E063A0319CA
:100CA000352E702E2E088600013087002D08A100F9
:100CB0002C08A0000A30A2000030A3008D31462588
:100CC000863140012108A90001082002A800031C68
:100CD000A9032808303EAC000030293DAD00392E74
:100CE0002E088600013087000108D03EA800FF30A2
:100CF00003180030A900003029020A300319280225
:100D0000031C832E842E522E2A082B04031D892EA9
:100D10008A2E962E2C09A8002D09A900A80A0319CD
:100D2000A90A2808A6002908A7009A2E2D08A700BE
:100D30002C08A600080068304001B900E430890B97
:100D40009F2EB90B9F2E000042015C084001CE008F
:100D500042015D084001CF0042015E084001D00021
:100D60004E30AF000330B000B101B10A3A30B200EA
:100D70001030B3005130B400143080316E20863111
:100D8000003A031DC42EC52EC72E01300F2F42017D
:100D90005B084001CD0042015A084001CC004201ED
:100DA00059084001CB00420158084001CA004A30AE
:100DB000AF000430B000B1013A30B2001030B300DF
:100DC0005130B400323080316E208631003A031D3C
:100DD000EA2EEB2EED2E02300F2F4001AF01B001B5
:100DE000B1013A30B2001030B3005130B4000230DB
:100DF00080316E208631003A0319FF2E002F0C2F10
:100E0000400151080319052F062F0C2F32303A06E6
:100E100003190B2F0C2F0E2F03300F2F003008005B
:100E20004001D50041016E084001D40041016D0828
:100E30004001D3005330AF000230B000B1013B306D
:100E4000B2001830B3005630B4004A3080316E2002
:100E50008731003A031D2D2F2E2F302F0030722F97
:100E6000400156080319352F362F2E2F3B08031D3E
:100E70003A2F3B2F3C2F2E2F4008D800580803193B
:100E8000422F432F2E2F083058020318482F492F86
:100E90002E2F5808063E560203184F2F502F512F61
:100EA0002E2FD701652F57085507BA003A0886003C
:100EB000013087005708063E3B3E8400850100084C
:100EC00081000130BA003A08D70758085702031CBE
:100ED0006A2F6B2F532F390886000130870058087E
:100EE00081000130080040019801990118309A00F2
:100EF0009B019C01FD309200E7309300FF3094008D
:100F0000FD3095000F309600FD307D018C00CF3014
:100F10009600E730A000FB30AA000730B4008D0136
:100F20009701A101AB01B5018E019801A201AC01AD
:100F3000B601FF308F00FF309900FF30A300FF3073
:100F4000AD000730B700FF309000FF309A00FF304F
:100F5000A400FF30AE000F30B8001A307C01C3008F
:100F60000D30C10011307B0197001130A5000E300B
:100F7000980013307C01C70015307B019F001430AE
:100F80007C01C80016307B01A0007D019101920117
:100F900093019B019C019D01A501A601A701B90137
:100FA000BA01BB0108004201E201E3014C019A1CB5
:100FB000DA2FDB2FE92F420162154101670868042F
:100FC0000319E32FE42FE92F68088A0067080A0055
:100FD00087314C011A1DED2FEE2FFC2F4201E21438
:100FE00040016D086E040319F62FF72FFC2F6E08D1
:100FF0008A006D080A0087314C01160808000800B5
:1016400008000800080041018F13080041010F1332
:1016500008004D01111508004D010C0808004D014E
:10166000911508004D01911008004D0191140800DA
:101670004D019012901608004D01901310130800B0
:101680004D019112111608004D010F080139080093
:101690004D019116111608004001DF0108300800C5
:1016A0008D3188258B3108008E3183268B310800DF
:1016B0004C011B0C013908004C011A121A160800C3
:1016C0004C01101210160800410119179917080053
:1016D000F60076084D018C0008004D010F0E890CB4
:1016E0000139080041010F0E890C01390800400141
:1016F00020084C0197000800400120084C018D0093
:1017000008008B31C9238B31F600760808008B3135
:10171000AC238B31F600760808004D01110E890CC0
:10172000890C0139080040012108F5002008F40067
:101730000800640080010131890B9A2B0034FE00FF
:1017400012001E00FE0BA02B0034400160358B31CF
:1017500068238B31033008008B3138238B314001F3
:10176000DF010030080003104D018F1E031400300C
:10177000093D08000534FF340134023401341434C7
:10178000003403144001600D8B3168238B31043029
:1017900008008B3129238B318C3171248B3100303F
:1017A000080044018E018F019101053093009001E2
:1017B0009201940108004001200821040319E12B43
:1017C000E22BE62B2108F3002008F200080040017C
:1017D000200821040319ED2BEE2BF22B2108F10038
:1017E0002008F00008004001200821040319F92B0B
:1017F000FA2BFE2B2108EE002008ED000800410125
:101800000C100B1400304001A0000030A1008B31FF
:1018100093238B3108004001200821040319112C67
:10182000122C192C21084101E80040012008410137
:10183000E70008004001200821040319202C212C76
:10184000282C21084101EC00400120084101EB0057
:1018500008004001A1008C314C248C31003A03195E
:10186000322C332C2B2C40012108A0008B317C23FF
:101870008C3108004001A00141010F1E402C412C79
:10188000492C4C019B1E452C462C492C4001A001A3
:10189000A00A4001200808004001A00141010F1DDD
:1018A000522C532C5B2C4C01911E572C582C5B2C2A
:1018B0004001A001A00A4001200808008B31D1237B
:1018C0008C31873173278C318D3108258C318C31E7
:1018D000EA248C318C3186248C318B31FF238C317E
:1018E00008004001DF010030E100FF30E000E201CC
:1018F000E301E601E701EC018B3126238C318B31CA
:1019000023238C318B313C238C31080080304D01F6
:101910008F0008309000910192014F308D008B3183
:1019200064238C3120304001A0000B30A1008C31A9
:101930001A248C314D019016080040012008D03E39
:10194000A200FF30213DA300003023020A3003191A
:101950002202031CAC2CAE2C0130AF2C0030A400B2
:10196000A5012408A0002508A10008004001A2004C
:10197000220886000130870001082006031DC12CC3
:10198000C22CC42C2208CF2C2208860001308700EC
:10199000A20A0108031DCD2CCE2CB82C0030080063
:1019A00040012108A4002008A300DA2C0130A00780
:1019B0000030A13D20088400210885001200031D8D
:1019C000E22CE32CD62C23082002A0002408213B83
:1019D000A100080048304C019C0090309A0026304D
:1019E0009B0044309800990122304001A0000B3048
:1019F000A1008B31F3238C315C304001A0000B300F
:101A0000A1008C310B248C314201E201E30108007A
:101A100048304C01920090309000263091004030C8
:101A20008E0003308F00FF304001A0000730A1007E
:101A30008B31DB238D3160304001A0000B30A100E1
:101A40008B31E7238D314101E901EA0108004001B2
:101A5000B2009D30A9009030AA0032088F310A27C9
:101A60008D314001B3003308031D372D382D3B2D38
:101A7000B001B101452D3308023E86310B268D3170
:101A800040012708B1002608B00008004001A40169
:101A9000A501201C4C2D4D2D512D2208A4072308F3
:101AA000A53D0130A235A30D890B522D0130A13681
:101AB000A00C890B572D20082104031D602D612DDA
:101AC000492D2508A1002408A00008004001A40118
:101AD000A40A20302006210403196F2D702D802DBB
:101AE0002008F73EA200FF30213DA3000030230272
:101AF000053003192202031C7E2D7F2D802DA401A9
:101B00002408A200A3012208A0002308A1000800C5
:101B100006304001EC000330EB008B3123238D3184
:101B200040016C08FA00FB01FA35FB0D74307A07AE
:101B3000840010307B3D80388500013F8A00003FE3
:101B40000A008D314001EC0041016C088A006B08ED
:101B50000A008D3108004001A9002108A7002008D3
:101B6000A6002908A800C82D260886002708870097
:101B70000108A5000130A6070030A73D280886000F
:101B800001308700250881000130A4002408A8073F
:101B90000130A2020030A33B220A031DD32D230AE9
:101BA000031DD32DD42DB42D080040016408650415
:101BB0000319DB2DDC2DF22D0130E4020030E53B72
:101BC0006308F8006208F700E20A0319E30A7708DD
:101BD00086007808870001088B3168238D31033037
:101BE000F900022E6A080319F62DF72DFE2DEA01E1
:101BF0008B3135238D31F901F90A022E8B31C9233E
:101C00008D31F900790808004001CE000030CF0086
:101C10000030D0000030D100CF01CF0A3030D000EA
:101C20004E08D1004F30AF000330B000B1013A3060
:101C3000B2001430B3005230B400403080316E2016
:101C40008E31003A031D252E262E282E0030422EDE
:101C5000113040015202031C2E2E2F2E262E3A0840
:101C60000319332E342E352E262E3B30A0000030A3
:101C7000A1001030A2000030A30039088D31AB253F
:101C80008E31013008000430F7008B3144238E314F
:101C9000003A03194C2E4D2E7E2E4001680869042F
:101CA0000319532E542E6B2E8B312C238E31F600BC
:101CB00007305F3E86008701403F8400413F85003A
:101CC0007608800001304001E6070030E73D013032
:101CD000E8020030E93B680869040319702E712E90
:101CE000752E8B3140238E31812E8B3132238E31F4
:101CF0008B3148238E310730F700812E8B312F2313
:101D00008E31770808008B3126238E318B31B32337
:101D10008E31003A03198D2E8E2E9C2E8B318D2301
:101D20008E31003A0319952E962E9C2E05304001D7
:101D3000EC000130EB00B12E8B316D238E31003A77
:101D40000319A32EA42EB12E8B318D238E31003A90
:101D50000319AB2EAC2EB12E05304001EC00023041
:101D6000EB0040016C08FA00FB01FA35FB0D743002
:101D70007A07840010307B3D80388500013F8A005F
:101D8000003F0A008E314001EC00080040012108AC
:101D9000A8002008A7002308AA002208A900DC2E1A
:101DA0000130A4020030A53B0130A7070030A83D58
:101DB0000130A9070030AA3D240825040319E12EAB
:101DC000E22EF22E290884002A0885000008A600C9
:101DD0002708860028088700010826060319F12E27
:101DE000F22ED02E24082504031DF72EF82EFB2EEC
:101DF000A001A101092F27088600280887002908CB
:101E000084002A08850000080102A000A101031C2B
:101E1000A10308004001AF0029082A040319112F6B
:101E2000122F542F2A08A1002908A0008C31D02499
:101E30008F3140012108AE002008AD00462F2A084E
:101E4000A1002908A0002E08A3002D08A2002F0839
:101E50008F31A6278F31400120082104031D312F27
:101E6000322F342F2F08552F290884002A08850087
:101E70000008AB00AC012B08A0002C08A1002F0823
:101E8000013E8C31B6248F314001AF002F08031979
:101E90004A2F4B2F542F2F0886000130870001084E
:101EA000031D532F542F1F2F003008004001AA009C
:101EB0002308AD002208AE002A08A400A501A40949
:101EC000A509A40A0319A50A2508A7002D082402BC
:101ED000A600031CA7032708A9002E082602A800B5
:101EE000031CA9032808FB3EAB00FE30293DAC00D3
:101EF0007E308C3129248F31FF308C3129248F3171
:101F000006308C3129248F3140012A088C31292454
:101F10008F3100308C3129248F3140012D088C31D4
:101F200029248F3140012E088C3129248F31400122
:101F30002C088C3129248F3140012B088C31292425
:101F40008F31EF308C3129248F3108004001A500FA
:101F50002508A8002108A7002008A6000130A20239
:101F60000030A33B220A031DB92F230A031DB92FFA
:101F7000BA2FC92FA001A101FF2F0130A40024080E
:101F8000A8070130A6070030A73D0130A2020030AB
:101F9000A33B280886000130870001080319D12FD0
:101FA000D22FF12F2608840027088500120003197C
:101FB000DA2FDB2FF12F220823040319E02FE12F62
:101FC000F12F26088400270885000008A4002808AF
:101FD000860001308700010824060319F02FF12F35
:101FE000BD2F2808860001308700260884002708B6
:101FF000850000080102A000A101031CA103080044
:10200000EA340C3400340034D334073477340B34DE
:1020100072340B343A340C3458340B3400340034FA
:102020000034003400340034003400340034003410
:102030000034003400340034003400340034003400
:1020400000340034003400340034003400340034F0
:10205000F3340B340B340C340034003400340034CB
:1020600008340D3400340034003400347C340B3434
:10207000003400344C340C34003400340034003468
:1020800000340034003400340034003400340034B0
:1020900000340034003400340034003400340034A0
:1020A0000034003400340034003400340034003490
:1020B000DB340B34E7340B340034003400340034A8
:1020C00086340C34003400340034003400340034DE
:1020D0000034003400340034003400340034003460
:1020E0001A340C34003400344C340B34C1340B3407
:1020F000A5340B34D5340D3443340E3481340B34D1
:1021000087340B34C9340B34AC340B345534553468
:1021100000340034003400340034FF340534FB3420
:10212000D43414340134143400340334003400340F
:102130000034FF340034FF3400343A343A3400348D
:020000040001F9
:04000E008F3FE73FFA
:04001400FF3FFF3F6C
:00000001FF
