:1000000080311428080008007E1480314101161E3A
:100010000A280B2812280C1E0E280F2812289631A9
:100020003F2680317E10090080311628BB308400C5
:10003000943085006C3086000030870003309531A5
:1000400014258031EB308400943085006B308600BD
:10005000013087000530953114258031E23084006D
:1000600094308500E73086000130870004309531F8
:1000700014258031F601F701F801F901E701E801E3
:10008000E901EA01EB01E730840000308500083027
:1000900095310E25803153308400013085001230B7
:1000A00095310E258031A030840001308500473025
:1000B00095310E2580317E1040018231942A410114
:1000C000DD00083040012E02031C672868286A28DA
:1000D0000030932A4101E60140012E08023E410111
:1000E000D90040012F08031976287728AD2855300C
:1000F0004101C00001304001B30033084101E6076F
:100100006608C03E860087015530810001304001FD
:10011000B30033084101E6076608C03E8600870148
:10012000810101304001B30033084101E607660850
:10013000C03E86008701810101304001B3003308D1
:100140004101E6076608C03E860087018101013053
:100150004001B30033084101E60741016608C03E93
:1001600086008701810101304001B300330841015D
:10017000E6076608C03E8600870181010130400124
:10018000B30033084101E6076608C03E86008701D8
:10019000FF30810001304001B30033084101E60720
:1001A0006608C03E86008701590881000130400181
:1001B000B30033084101E6076608C03E86008701A8
:1001C0005908003C810001304001B300330841016F
:1001D000E607D430E1006608C03E86008701D430CF
:1001E000810001304001B30033084101E607660891
:1001F000C03E860087015D08810001304001B300E8
:1002000033084101E60761085D07E100DE012B29A3
:100210006608C03E860087015E0840012D07B300D6
:10022000330884008501000881000130B3003308E1
:100230004101E6075E0840012D07B3003308860040
:100240008701010841016107E10001304001B3006D
:1002500033084101DE0740012E0841015E02031C04
:100260003229332908296608C03E860087016108C3
:10027000003C810001304001B30033084101E60732
:100280006608C03E86008701810101304001B3004D
:1002900033084101E60766084001A000A030A10034
:1002A0002030A200E830A3000330A400C030873122
:1002B000442780314101E2000630620203186129BF
:1002C000622963296828A0304001A0000030A10005
:1002D0001C30A2009830A3000630A4000030A50016
:1002E0008A315522803140012008210403197929DF
:1002F0007A297B29682806304101E500A4294101BB
:100300006508A03E860087010108031D8829892908
:100310009E296508013EA03E860087010108031D55
:10032000922993299E296508023EA03E86008701F6
:10033000010A031D9C299D299E29B02901304001F5
:10034000B30033084101E507023065074001B300FF
:100350004101620840013302031CAF29B0297F2903
:100360000230410165074001B300410162084001CC
:100370003302031CBC29BD29BE2968284101650838
:10038000053E62020318C529C629C72968286508E1
:10039000033EA03E860087010108E4006508043E94
:1003A000A03E860087010108D7006408570703199B
:1003B000DA29DB29DC296828023064020318E129E4
:1003C000E229E32968286408073ED50000300318B5
:1003D0000130D600650855074001B30041015608B9
:1003E0000318560A4001B400410162084001B500FB
:1003F000B60134083602031DFF29330835020318FD
:10040000022A032A042A682841016508053EE30000
:100410006308A03E86008701D53001060319112A22
:10042000122A132A68286308013EA03E860087012D
:100430005D0A010603191D2A1E2A1F2A6828DB01EE
:10044000DC01382AA0305C074001B3004101630899
:1004500040013307B40034088600870101084101D8
:100460005B07DB0001304001B30033084101DC07CA
:1004700064085C02031C3D2A3E2A222A63086407A2
:10048000DA005A08A03E8600870101085B070319BD
:100490004A2A4B2A4C2A68285A08013ED800580894
:1004A000A03E8600870101080319572A582A592AB5
:1004B00068286408FE3EDF005F084001310203182F
:1004C000622A632A662A31084101DF004101E00106
:1004D000852A600840013007B30033088600870191
:1004E000A030410160074001B400410163084001B0
:1004F0003407B5003508023E8400850100088100FC
:100500000130B30033084101E0075F086002031CBB
:100510008A2A8B2A692A4001320886008701410114
:100520005F0881000130080096318A2682318B17DE
:100530000B1740019210981429304201A100963007
:10054000A0007F30890BA22AA00BA22AA10BA22A0D
:100550008D318C2582314201CF004F080319B12A19
:10056000B22AEB2A4201CA01D82A40019814093064
:100570004201A1001E30A000E430890BBD2AA00B6F
:10058000BD2AA10BBD2A000040019810093042018C
:10059000A1001E30A000E430890BCC2AA00BCC2A8D
:1005A000A10BCC2A000001304201A0002008CA079C
:1005B0004F084A02031CDD2ADE2AB52A29304201EF
:1005C000A1009630A0007F30890BE42AA00BE42A1A
:1005D000A10BE42AB22A400198107D012117953120
:1005E0003725823113304001A0000930A100893144
:1005F0003F21823196312A2682318E310126823185
:100600008A3115228231031040010E1F031400307D
:10061000031801304201D000500862060319112B63
:10062000122B1C2B5008E2006208031D182B192BFB
:100630001C2B9731602782314201CB0140016E08AB
:100640000319232B242B2C2B42016208031D292B79
:100650002A2B2C2BCB01CB0A42014B08031D312B3B
:10066000332B0130342B0030D10051080319392BC2
:100670003A2BDD2B42304001B7000130B800523038
:10068000B9000130BA008C3141248231003A03199B
:100690004A2B4B2BDD2B400198144201CC01CC0A94
:1006A00052086406031D552B562B762B4230400111
:1006B000A0000130A100E030A2000130A3004201FF
:1006C0005208A000A10120084001A4004201210815
:1006D0004001A5008A3155228231400120082104C1
:1006E000031D732B742B762B4201CC0142014C0865
:1006F000031D7B2B7D2B01307E2B0030C900490868
:100700000319832B842BC82B20304001D1002230C9
:100710008631AF268231003A03198F2B902BAF2BF5
:10072000223097317E278231400130084201CE00CD
:1007300040012F084201CD004D084E040319A12BA2
:10074000A22BAF2B4E084001D80042014D084001BA
:10075000D7008A3199228231F901F90AF801423031
:100760004001A0000130A10042015208A000A101F7
:1007700020084001A200420121084001A300E0300E
:100780008731D627823142015208E400E301162C5A
:100790006308031DCC2BCD2B162C953121258231DE
:1007A000003A031DD42BD52B162C8D3119258231FF
:1007B000F9014201E301E30A162C42015108031931
:1007C000E22BE32BF82B64080319E72BE82BF82B1B
:1007D00079080319EC2BED2BF12B9531282582316B
:1007E000F42B9431DE248231F901F801F80A112C3E
:1007F0005108031DFC2BFD2B112C79080319012C2A
:10080000022C072C8D3119258231F901112C780821
:1008100003190B2C0C2C112C9431DA248231F801A1
:10082000112C4201E401E30140019810073042011C
:10083000A1001730A0006A30890B1C2CA00B1C2CC7
:10084000A10B1C2C0000FD2A803114284001C2009D
:100850000330290203182D2C2E2C302C0030732D40
:1008600042088600013087000108BB003B080739B9
:10087000B3003B1A3C2C3E2C01303F2C0030B4001E
:10088000BB19432C452C0130462C0030B500C30168
:10089000C30A42088600013087000130413FBC0096
:1008A0000130AC002C08C30734080319582C592C0C
:1008B000732C29084302031C5E2C5F2C602C2E2C09
:1008C00043084207AC002C0886000130870001086D
:1008D000AD00AE012D08BE002E08BF000130AC00F7
:1008E0002C08C307AA2C4308043EAC0000300318B0
:1008F0000130AD002908AE00AF012D082F02031D05
:10090000832C2C082E02031C862C872C2E2C4308AB
:100910004207AC002C08033E860001308700010826
:10092000AD00AE0143084207AF002F08023E86002B
:10093000013087000108B000B1013008B100B001FA
:100940002D083004BE002E083104BF000430AC0076
:100950002C08C307B80135080319AF2CB02CC42CE0
:1009600029084302031CB52CB62CB72C2E2C4308A7
:100970004207AC002C088600013087000108B8004F
:100980000130AC002C08C30743083C07AC00AD01A4
:10099000AD0D2908AE00AF012D082F02031DD22C8A
:1009A0002C082E020318D52CD62CD72C2E2CB901AE
:1009B0003303031DDC2CDD2CF12C3C03031DE12C47
:1009C000E22CF12C43084207AC002C0886000130D1
:1009D000870054300106031DEE2CEF2CF12CB901D9
:1009E000B90A3908031DF52CF72C0130F82C00301A
:1009F000B60043083C073807C3003608031D012D25
:100A0000022D032D2E2C43083E07AC003F0803188F
:100A10003F0AAD002908AE00AF012D082F02031DCB
:100A2000132D2C082E020318162D172D182D2E2CE1
:100A300042084307BA003A088600013087000108DF
:100A4000B70037083F39BD003D08013EAC0000301B
:100A500003180130AD002D083F02031D312D2C0875
:100A60003E020318342D352D362D2E2C3F08AD00B7
:100A70003D083E02AC00031CAD032C08FF3EC00045
:100A8000FF302D3DC1002B08FF3EAC00FF300318A6
:100A90000030AD0041082D02031D502D40082C02EE
:100AA0000318532D542D5B2D2B08FF3EC000FF3043
:100AB00003180030C1003A083D07013EA000013094
:100AC000A1004108A3004008A2002A088731D627C8
:100AD0008431400140082A07AC002C088600013010
:100AE00087008101013008004001D4005408C00093
:100AF000C1014008A2004108A3005408C200C3017C
:100B00004208A0004308A10097319D27853140018C
:100B10002008C4002108C500C601C7014708A70076
:100B20004608A6004508A5004408A4005408C800CB
:100B3000C901CA01CB014B08AB004A08AA00490809
:100B4000A9004808A80089316D2185314001270896
:100B5000CF002608CE002508CD002408CC003E0892
:100B6000C000C1014008A2004108A3003E08C20025
:100B7000C3014208A0004308A10097319D27853199
:100B800040012008C4002108C500C601C70147086C
:100B9000A7004608A6004508A5004408A4003E0892
:100BA000C800C901CA01CB014B08AB004A08AA0022
:100BB0004908A9004808A80089316D218531400104
:100BC0002708D3002608D2002508D1002408D00029
:100BD0005308B3005208B2005108B1005008B000E9
:100BE0004F08A7004E08A6004D08A5004C08A40019
:100BF0000030AB000030AA000330A900FF30A8008D
:100C000089316D21853140012708B7002608B600DB
:100C10002508B5002408B4008B31862385314001B6
:100C20003108BF003008BE0008004001A4002408BD
:100C3000A70022082304031D1E2E1F2E202EAE2ED9
:100C40002708860001308700200881002208270736
:100C5000F4007408FF3E8600013087002008810000
:100C6000003023020330031922020318382E392ED4
:100C70003A2EAE2E270A8600013087002008810018
:100C80002708023E860001308700200881002208E4
:100C90002707F4007408FE3E860001308700200814
:100CA000810022082707F4007408FD3E8600013009
:100CB0008700200881000030230207300319220238
:100CC0000318632E642E652EAE2E2708033E860081
:100CD000013087002008810022082707F4007408EB
:100CE000FC3E86000130870020088100003023028E
:100CF00009300319220203187E2E7F2E802EAE2E7D
:100D00002709F4002809F500F40A0319F50A03304D
:100D10007405A50000307505A6002508F4007408C8
:100D2000A7072508A2022608A33BFC30A205FF3036
:100D3000A305A82E2708860001308700200881001F
:100D40000130A2020030A33B0130F4007408A70771
:100D500022082304031DAD2EAE2E9A2E080040015A
:100D6000D600DC010430D900DB012C2F5C08A03E4A
:100D7000B70059088931D6218631003A031DC12EAA
:100D8000C22EC42E0030432F40015C08103EDC0010
:100D90005908043ED900262F5B08A03E860001308A
:100DA00087000108D7005708031DD72ED82EDD2E47
:100DB0000130D2005208DB07262FFE305706031DF4
:100DC000E22EE32EE42EC22E01305B07D2005C0837
:100DD0005202031CEC2EED2EEE2E2C2F5B08A13EB2
:100DE0008600013087000108DA005A0A031DF92E37
:100DF000FA2EFB2EC22E5B08023ED80058085A0776
:100E0000D200D301D30D5C08D400D501530855029C
:100E1000031D0C2F5208540203180F2F102F112FEF
:100E20002C2F03305706031D162F172F232F5A0878
:100E3000A9005608AA005108AB005808A03E84310A
:100E400026248631432F58085A07DB005C085B02D2
:100E5000031C2B2F2C2FCC2E293059020318312F95
:100E6000322FC22E5C08103ED20000300318013031
:100E7000D30000305302413003195202031C412FAA
:100E8000422FB62EC22E08004001A500AC01A901D8
:100E9000AA01A601A701A8014C019A1C502F512FAD
:100EA000572F1A121A16572F8831912087319431F3
:100EB000E6248731003A031D5E2F5F2F542F400137
:100EC000AB017B2F96311B268731003A0319692F1E
:100ED0006A2F622F40012B082507F5007508860050
:100EE00087010108F4009431D62487310130F500E0
:100EF00075084001AB0720082B02031C802F812FAF
:100F0000622F9431D2248731003A0319882F892F18
:100F1000812FCD2F9431E6248731003A0319912F88
:100F2000922FA72F40012C082107F5007508860095
:100F3000870188319120873181000130F5007508E3
:100F40004001AC07A801A80AA901AA01CD2F1A30B7
:100F5000890BA82F003240012808031DB02FB12FA4
:100F6000BF2F0130A6070030A73D273027021030E1
:100F700003192602031CBD2FBE2FCD2FD42F013005
:100F8000A9070030AA3D27302A0210300319290290
:100F9000031CCB2FCC2FCD2FD42F400122082C02A5
:100FA000031CD32FD42F8A2F2C0808004001A8003F
:100FB0002108A6002008A5002808A700F32F25086F
:100FC0008600260887000108A4000130A50700302C
:100FD000A63D2708860001308700240881000130E3
:100FE000F4007408A7070130A2020030A33B220AD4
:100FF000031DFE2F230A031DFE2FFF2FDF2F0800E6
:1010000008000130460190008F019101FF308D00F2
:101010008C010030F4000030F5009531082588314E
:1010200041018D13803046018E0008001E304001C2
:10103000D9001E30BE005908FF3E85317425883125
:1010400040013F08D6003E08D50095313F25883144
:1010500003304001D8000830D7007730890B2E28A4
:10106000D70B2E28D80B2E2801304001D902590861
:10107000031D3B283C28192808004001D901D90A42
:101080001E30BE00590885317425883140013F0863
:10109000D6003E08D50095313F2588310330400108
:1010A000D8000830D7007730890B5428D70B542844
:1010B000D80B542801304001D7005708D9071F30FA
:1010C0005902031C642865284028080040010E0EC0
:1010D0000139F0000E0CF100F10C710C0139090717
:1010E0007004F3006B08F0000130F035FF3E031D83
:1010F000752870357304F2007208003E8400983041
:101100000318013E85000008F000F101F01BF10317
:1011100076087007F6007708713DF7007308EB005A
:1011200008004201DE01DF014C019A1C9828992831
:10113000A62842015E155C085D040319A028A128B9
:10114000A6285D088A005C080A0088314C011A1D37
:10115000AA28AB28B9284201DE14410167086804B7
:101160000319B328B428B92868088A0067080A0058
:1011700088314C01160808004001C8006D08480776
:10118000C900CA010318CA0AC81FC728CA034001F8
:10119000CA1FCB28CC28CE28C901CA014A08803AE8
:1011A000C70080304702031DD7281A304902031CAC
:1011B000DA28DB28E02819304001C9000030CA00D5
:1011C0004001C30149089631BC268831080042011C
:1011D000E001E1014C01901CEE28EF28FD284201BE
:1011E0006015410169086A040319F728F828FD28E9
:1011F0006A088A0069080A0088314C01101D01291B
:10120000022910294201E01441016B086C04031902
:101210000A290B2910296C088A006B080A008931F9
:101220004C010C08080079080319172918291D29F1
:101230008D3119258931F9012629780803192129C9
:10124000222926299431DA248931F801003040011D
:10125000A000A1000730A2000030A300E0308631DA
:10126000152689314201E401E30140016E080319AA
:101270003A293C2901303D290030EE0008004001A8
:1012800021084201DB00400120084201DA007D0113
:10129000A11521168D1540010E0E0139A2000E0C6C
:1012A000A300A30C230C013909072204EB006630CC
:1012B000F4000830F5009431F62489316630F400EA
:1012C0000830F5009431FC248931BE30F40014302C
:1012D000F5009431F0248931080000304001AF005E
:1012E0000030AE000030AD000030AC00241C792985
:1012F0007A2982292808AC072908AD3D2A08AE3D85
:101300002B08AF3D0130A835A90DAA0DAB0D890BF7
:1013100083290130A736A60CA50CA40C890B8A29B9
:101320002708260425042404031D972998297629D3
:101330002F08A7002E08A6002D08A5002C08A40041
:1013400008004001260827040319A729A829D12944
:10135000AB01AB0AB4290130A635A70D890BAC2926
:101360000130AA002A08AB07A71FB729B829AB2963
:1013700027082902031DBE2926082802031CC129AB
:10138000C229C6292608A8022708A93B0130A7368A
:10139000A60C890BC7290130AB02031DD029D12926
:1013A000B8292908A7002808A60008004001CC0099
:1013B0000030CD000030CE000030CF00CD01CD0A8E
:1013C0003030CE004C08CF004D30AD000330AE00C1
:1013D000AF013830B0001430B1005030B2004030AE
:1013E00080315F208931003A031DF729F829FA2955
:1013F0000030142A113040015002031C002A012A37
:10140000F82938080319052A062A072AF829393045
:10141000A0000030A1001030A2000030A300370867
:101420008731D62789310130080040016708031D44
:101430001A2A1B2A1C2A542A6808031D202A212A3A
:10144000342A46010C08013E4001B1000030031867
:101450000130B20031084201D60040013208420199
:10146000D7004001E801E80A6C080319382A392A34
:101470003C2A0130EC02542A981609304001B2008F
:101480001E30B100E430890B432AB10B432AB20B62
:10149000432A0000400198120F30AC00033097310E
:1014A0000B278A314001EC00080040012108A70009
:1014B0002008A6002308A9002208A8006B2A0130F2
:1014C000A4020030A53B0130A6070030A73D013043
:1014D000A8070030A93D240825040319702A712AA1
:1014E000812A28088400290885000008F4002608BD
:1014F000860027088700010874060319802A812ABC
:101500005F2A24082504031D862A872A8A2AA00127
:10151000A101982A26088600270887002808840049
:101520002908850000080102A000A101031CA103F5
:10153000080040015808C4005708C3009531C4256D
:101540008A314001DC01DC0A5C081E3CDB001E30F5
:10155000BE005B08853174258A3140013F08D60002
:101560003E08D50095313F258A311E304001BE002E
:101570005C08853174258A3140013F08D6003E0859
:10158000D500953148258A3103304001DA00083012
:10159000D9007730890BCA2AD90BCA2ADA0BCA2A92
:1015A00001304001D9005908DC071F305C02031CE0
:1015B000DA2ADB2AA42A0130953166258A3108000F
:1015C0004001AE00280829040319E72AE82A2A2B3B
:1015D0002908F5002808F4009631F0268A317508AC
:1015E0004001AD007408AC001C2B2908A10028089C
:1015F000A0002D08A3002C08A2002E088B312C235C
:101600008A31400120082104031D072B082B0A2BD7
:101610002E082B2B28088400290885000008AA0022
:10162000AB012A08F4002B08F5002E08013E963184
:10163000D6268A314001AE002E080319202B212B1B
:101640002A2B2E088600013087000108031D292B54
:101650002A2BF52A003008004001A4002408A70026
:101660002108A6002008A5000130A2020030A33BFB
:10167000220A031D3F2B230A031D3F2B402B4F2B18
:10168000A001A101852B0130F4007408A7070130E7
:10169000A5070030A63D0130A2020030A33B270879
:1016A00086000130870001080319572B582B772B30
:1016B000250884002608850012000319602B612B81
:1016C000772B220823040319662B672B772B250819
:1016D0008400260885000008F400270886000130F1
:1016E0008700010874060319762B772B432B2708F4
:1016F0008600013087002508840026088500000840
:101700000102A000A101031CA10308000030400158
:10171000BC000030BB000030BA000030B900330814
:101720003204310430040319962B972BD82BBD01BA
:10173000BD0AA52B0130B035B10DB20DB30D890B2B
:101740009B2B0130B8003808BD07B31FA82BA92B6D
:101750009A2B0130B935BA0DBB0DBC0D890BAA2BE4
:1017600033083702031DBE2B32083602031DBE2B81
:1017700031083502031DBE2B30083402031CC12B77
:10178000C22BCB2B3008B4023108B53B3208B63B34
:101790003308B73B39140130B336B20CB10CB00C7E
:1017A000890BCC2B0130BD02031DD72BD82BA92BC5
:1017B0003C08B3003B08B2003A08B1003908B00059
:1017C00008004001A501A11FE62BE72BEE2BA00985
:1017D000A109A00A0319A10AA501A50AA31FF12BBB
:1017E000F22BFB2BA209A309A20A0319A30A0130B9
:1017F000F4007408A506A601A70120082104031916
:10180000022C032C322CA401A40A0F2C0130A03589
:10181000A10D890B072C0130F4007408A407A11F47
:10182000122C132C062C0130A635A70D890B142C75
:1018300021082302031D1E2C20082202031C212C38
:10184000222C272C2008A2022108A33B26140130B9
:10185000A136A00C890B282C0130A402031D312CC9
:10186000322C132C25080319362C372C3C2CA609B6
:10187000A709A60A0319A70A2708A1002608A0009D
:10188000080042016F084001D90042016E08400182
:10189000D8005830AD000230AE00AF014030B0008B
:1018A0001830B1005A30B2004A3080315F208C319C
:1018B000003A031D5C2C5D2C5F2C0030A92C4001EC
:1018C0005A080319642C652C5D2C4008031D692CF3
:1018D0006A2C6B2C5D2C4508DC005C080319712C0C
:1018E000722C5D2C08305C020318772C782C5D2C50
:1018F0005C08063E5A0203187E2C7F2C802C5D2C3F
:10190000DB019C2C5B08063E403E860087010108F7
:10191000BB005B08BC00BD013C083707BE003D08AA
:10192000383DBF003E0886003F0887003B08810025
:101930000130BB003B08DB075C085B02031CA12CE9
:10194000A22C822C390886003A0887005C088100A6
:10195000013008004001980199019A019B019C0106
:10196000DD309200EF309300FF309400CD309500D1
:101970000F309600D5307D018C00CD309600A73019
:10198000A000CB30AA000730B4008D019701A1015F
:10199000AB01B5018E019801A201AC01B601FF3087
:1019A0008F00FF309900FF30A300FF30AD000730FB
:1019B000B700FF309000FF309A00FF30A400FF30E6
:1019C000AE000F30B8001A307C01C3000D30C100EA
:1019D0000B307B01A8000C30A9001130A5000E309F
:1019E00098007D0191010830920093019B019C01B8
:1019F0009D011830A5001830A600A701B901BA0151
:101A0000BB01B630F4001430F5009431F0248C3171
:101A10000030F4000830F5009431F6248C31B730F2
:101A2000F4001430F5009431FC248C314101161679
:101A300008000030953166258D319431B8248D3100
:101A40004001E2001430E4006408FF3EE30014307B
:101A5000BE006308853174258D3140013F08E000E8
:101A60003E08DF000030B3000030B2000030B100AB
:101A70001430B0006308D700D8015708A2005808F6
:101A8000A3006208D900DA015908A0005A08A10091
:101A900097319D278D3140012008DB002108DC00B3
:101AA000DD01DE015E08B7005D08B6005C08B50028
:101AB0005B08B4008B3186238D3140013008E10092
:101AC0006008D6005F08D500953148258D3140016A
:101AD000C30161089631BC268D3103304001D80026
:101AE0000830D7007730890B732DD70B732DD80BA7
:101AF000732D01304001E4026408031D802D812D07
:101B0000242D95315B258D314001C301C30A620844
:101B10009631BC268D31080068304001B700E430B2
:101B2000890B902DB70B902D000042016B084001EE
:101B3000CC0042016C084001CD0042016D0840011B
:101B4000CE004C30AD000330AE00AF01AF0A3830EC
:101B5000B0001030B1004F30B200143080315F203F
:101B60008D31003A031DB52DB62DB82D0130002E54
:101B700043016A084001CB00430169084001CA00E3
:101B8000430168084001C900430167084001C800DB
:101B90004830AD000430AE00AF013830B000103036
:101BA000B1004F30B200323080315F208D31003AC9
:101BB000031DDB2DDC2DDE2D0230002E4001AD019A
:101BC000AE01AF013830B0001030B1004F30B2007C
:101BD000023080315F208D31003A0319F02DF12D54
:101BE000FD2D40014F080319F62DF72DFD2D323044
:101BF00038060319FC2DFD2DFF2D0330002E00307B
:101C00000800410116127708A1007608A0000430F0
:101C10004001A0000030A100410121084001A300C3
:101C2000410120084001A2008B31E1238E314001A7
:101C300020084101A20022084001E500E601E51B61
:101C4000E603E535E60DE535E60D650841012002C0
:101C5000F600400166084101213BF70016162208F4
:101C60000319332E342E382E22088831BC208E31B1
:101C700040016A0803193D2E3E2E6A2E41011612BC
:101C80004001EA014101161640016908031D492E71
:101C90004A2E6A2E02304001E6003830E500AD30B1
:101CA000890B502EE50B502EE60B502E40018C195F
:101CB0005A2E5B2E6A2EE901E90A42015A085B049A
:101CC0000319632E642E6A2E5B088A005A080A00E4
:101CD0008E316A2E4001690803196F2E702E752E01
:101CE0008C1D732E742E752EE90108004001BD0075
:101CF0003508C0003408C100C201C20A3D08B7005F
:101D0000B801B709B809B70A0319B80A3808BA0000
:101D100040083702B900031CBA033A08BC00410866
:101D20003902BB00031CBC033B08FA3EBE00FE3078
:101D30003C3DBF009E2E8831E7208E3195311A251B
:101D40008E31003A031DA52EA62E9B2E7E30963195
:101D50000C268E31FF3096310C268E3106309631AE
:101D60000C268E3140013D0896310C268E31400103
:101D7000420896310C268E314001400896310C26DF
:101D80008E314001410896310C268E3140013F08CA
:101D900096310C268E3140013E0896310C268E314C
:101DA000EF3096310C268E319431C2248E31003AB8
:101DB0000319DB2EDC2ED42E40013608031DE12E44
:101DC000E22EE32EEE2E0030A3000030A200C3303E
:101DD000A1005030A0008E31EF268E3108009531E1
:101DE0002F258E314001B301432F95311A258E31B5
:101DF000003A0319FC2EFD2E0C2F40013308283E1B
:101E0000860087018831E7208E3181000130400152
:101E1000A4002408B307432F3530890B0D2F000091
:101E200040012308031D1F2F2208031D1F2F210817
:101E3000031D1F2F1530200203181F2F202F2A2FBC
:101E400000304001A3000030A2000030A1000030AB
:101E5000A000432FEC304001A400FF30A500FF306C
:101E6000A600FF30A7002008A4072108A53D2208EE
:101E7000A63D2308A73D2708A3002608A2002508A1
:101E8000A1002408A0000A3033020318482F492F6C
:101E9000512F2308220421042004031D502F512F09
:101EA000F52E0A3033020318562F572F592F0030C2
:101EB0006F2FB2017E302806031D5F2F602F6E2F1B
:101EC00041302B06031D652F662F6E2FEF30310634
:101ED000031D6B2F6C2F6E2FB201B20A320808005F
:101EE0004001AC00AA01AB01A801A9017B2F013080
:101EF000A6002608AC072C08860001308700203099
:101F000001060319842F852F772F2C0886000130B6
:101F100087000108F73EA600FF3003180030A70035
:101F200000302702053003192602031C982F992F31
:101F3000772FA32F0130A8000030A9000130A600A0
:101F40002608AC07D52F2C08860001308700010831
:101F5000A600A7012708003A0319AF2FD52F26089E
:101F60002B3A03199E2F063A03199A2FD52F2C08C6
:101F70008600013087002B08A1002A08A0000A3043
:101F8000A2000030A30097319D278F314001210826
:101F9000A70001082002A600031CA7032608303E64
:101FA000AA000030273DAB009E2F2C088600013090
:101FB00087000108D03EA600FF3003180030A700BC
:101FC000003027020A3003192602031CE82FE92FEC
:101FD000B72F28082904031DEE2FEF2FFB2F2A0906
:101FE000A6002B09A700A60A0319A70A2608A40021
:101FF0002708A500FF2F2B08A5002A08A400080029
:10200000273417340034003491340834D63414346F
:10201000E63414341B341634D2341434003400340F
:102020000034003400340034003400340034003410
:102030000034003400340034003400340034003400
:1020400000340034003400340034003400340034F0
:1020500094341534A0341534003400340034003482
:102060004334173400340034E7340834C6341434AD
:102070001A341534FD341534C234143400340034A9
:1020800000340034003400340034003400340034B0
:1020900000340034003400340034003400340034A0
:1020A0000034003400340034003400340034003490
:1020B0007C34153488341534003400340034003452
:10296C000800080040016D080800033412340134DB
:10297C0001304001EA0008004C01110C013908003B
:10298C0074084C018D0008004C011A121A1608002C
:10299C004C011012101608004C011B0C01390800D8
:1029AC0074084C01970008008831162094310800F7
:1029BC0088313D20943108000534FF340134023451
:1029CC0041010F0E890C0139080001341434003414
:1029DC000134003475084201EA007408E90008006B
:1029EC0075084201E8007408E70008007508420108
:1029FC00E6007408E500080075084101EE00740853
:102A0C00ED00080075084201D9007408D8000800D0
:102A1C00640080010131890B0F2D0034FE0012007F
:102A2C001E00FE0B152D003441010F0CF400F40CAC
:102A3C00740C01390800031040018D1C0314003084
:102A4C00093D08008D311925953188313D2095318E
:102A5C0008004C01901C332D342D362D10121016FD
:102A6C0008004001C301C30A12309631BC269531CF
:102A7C00080040015608F5005508F4009631582618
:102A8C009531080040015608F5005508F4009631C0
:102A9C0071269531080044018E018F01910105309A
:102AAC009300900192019401080000304001B400A1
:102ABC00B500B601B60A16308E317626953108006F
:102ACC00F40074084001E7007408031D6E2D6F2D8F
:102ADC00702D9812080041010C100B140030F400FA
:102AEC000030F50095310225953108007408750405
:102AFC000319812D822D872D75084101EC00740876
:102B0C00EB0008007408750403198D2D8E2D932D80
:102B1C0075084101EA007408E9000800740875049E
:102B2C000319992D9A2D9F2D75084101E800740801
:102B3C00E7000800740875040319A52DA62DAB2D0C
:102B4C0075084201DD007408DC00080048011F080C
:102B5C00FC3901389F0080308E007F308D00C030F2
:102B6C008C00080048011F08F33904389F0080309E
:102B7C0091007F309000C0308F0008004001440865
:102B8C00B5004308B400B601B60A12308E31762671
:102B9C0095310800420169086A040319D62DD72D16
:102BAC00DC2D6A088A0069080A0095317D019311B1
:102BBC0008004201670868040319E52DE62DEB2D8A
:102BCC0068088A0067080A0095317D01A711080082
:102BDC004201650866040319F42DF52DFA2D6608DB
:102BEC008A0065080A0095317D0127120800F4015E
:102BFC0041010F1D022E032E0A2E4C01911E072E91
:102C0C00082E0A2EF401F40A74080800F500953118
:102C1C00FD259631003A0319142E152E0D2E75082C
:102C2C00F4009431C62496310800F40141010F1EC2
:102C3C00202E212E282E4C019B1E252E262E282E92
:102C4C00F401F40A740808007D012A12AA1200305B
:102C5C004001D500D60095313F259631003040011A
:102C6C00D500D60095314825963140019212981224
:102C7C0008007D01931D432E442E472E9531D025FF
:102C8C0096317D01A71D4B2E4C2E4F2E9531DF25F5
:102C9C0096317D01271E532E542E572E9531EE253D
:102CAC009631080075084001A1007408A000A136F7
:102CBC00A00CA136A00C200848018D007408033923
:102CCC004001A0000530A035FF3E031D692E2035C4
:102CDC0048018C00080075084001A1007408A00090
:102CEC00A136A00CA136A00C200848019000740855
:102CFC0003394001A0000530A035FF3E031D822E94
:102D0C00203548018F0008009531512596318C31C2
:102D1C00AA2496319731432796319731272796313C
:102D2C009531AC2596319531B825963188310120F5
:102D3C00963195317125963108007408D03E4001CA
:102D4C00A000FF30753DA100003021020A300319AC
:102D5C002002031CB22EB42E0130B52E0030A2007E
:102D6C00A3012208F4002308F50008004001C60066
:102D7C001A304602031CC32EC42EC62E1930C600B0
:102D8C004608ED004608C400C5014408B4004508D7
:102D9C00B5004308B60006308E3176269631080011
:102DAC004001A0002008860001308700010874064D
:102DBC00031DE12EE22EE42E2008EF2E20088600C3
:102DCC0001308700A00A0108031DED2EEE2ED82E2F
:102DDC000030080075084001A2007408A100FA2E0A
:102DEC000130F4070030F53D740884007508850047
:102DFC001200031D022F032FF62E4001210874022E
:102E0C00F4002208753BF50008004001B0003008C2
:102E1C002C02013EAF002F08AD00AE012D08A6001C
:102E2C002E08A7009731BD27973140012508A9002E
:102E3C002408A8008931A1219731400126083007C8
:102E4C00080048304C019C0090309A0026309B00C2
:102E5C004430980099010230F4000030F5009531AF
:102E6C0094259731CA30F4001430F5009531A02523
:102E7C0097314201DE01DF01080048304C0192001D
:102E8C00903090002630910040308E0003308F003F
:102E9C000330F4000030F50095317C259731CE30AD
:102EAC00F4001430F5009531882597314201E0018A
:102EBC00E101080040016E08031D652F662F672F86
:102ECC007D2F5D30B7000030B8006430B9000030A1
:102EDC00BA008C3141249731003A0319762F772FA1
:102EEC00782F7D2F9431DE249731F801F80A0800F1
:102EFC004001B1002230A8009830A90031088A3175
:102F0C00E02297314001B2003208031D8E2F8F2F23
:102F1C00922FAF01B0019C2F3208023E8F317027E7
:102F2C00973140012508B0002408AF000800F401D7
:102F3C00F5014001201CA32FA42FA82F2208F40771
:102F4C002308F53D0130A235A30D890BA92F0130C3
:102F5C00A136A00C890BAE2F20082104031DB72F1E
:102F6C00B82F9F2F7508A1007408A000080042011B
:102F7C0057084001A100420156084001A0005530FD
:102F8C00A2006230A30097319D27973140012008A1
:102F9C00193E4201D60036304001213D4201D70096
:102FAC0057084001A500420156084001A400080042
:102FBC004001A201A20A2030740675040319E72F00
:102FCC00E82FF82F7408F73EA000FF30753DA100E4
:102FDC0000302102053003192002031CF62FF72FB5
:102FEC00F82FA2012208A000A1012008F40021085A
:102FFC00F50008000034FF3401340034013400348F
:10300C000034FF34FF340034003401340034013414
:10301C00FF340034013408340034003400340034FC
:10302C0000340034083415340034003400340034D7
:0E303C00FF340034FF3400343A343A340034A8
:020000040001F9
:04000E008F3FE73FFA
:04001400FF3FFF3F6C
:00000001FF
