:1000000080311428080008007E1480314101161E3A
:100010000A280B2812280C1E0E280F2812289531AA
:10002000462580317E1009008031162895308400E5
:10003000933085006C3086000030870003309331A8
:10004000E923803100308400883085006B308600E1
:100050000130870005309331E9238031BC308400C2
:1000600093308500E73086000130870004309331FB
:10007000E9238031F601F701F801F901E701E80110
:10008000E901EA01EB01E730840000308500083027
:100090009331E323803153308400013085001230E6
:1000A0009331E3238031A030840001308500473054
:1000B0009331E32380317E1040018231942A410143
:1000C000DD00083040012E02031C672868286A28DA
:1000D0000030932A4101E60140012E08023E410111
:1000E000D90040012F08031976287728AD2855300C
:1000F0004101C00001304001B30033084101E6076F
:100100006608C03E860087015530810001304001FD
:10011000B30033084101E6076608C03E8600870148
:10012000810101304001B30033084101E607660850
:10013000C03E86008701810101304001B3003308D1
:100140004101E6076608C03E860087018101013053
:100150004001B30033084101E60741016608C03E93
:1001600086008701810101304001B300330841015D
:10017000E6076608C03E8600870181010130400124
:10018000B30033084101E6076608C03E86008701D8
:10019000FF30810001304001B30033084101E60720
:1001A0006608C03E86008701590881000130400181
:1001B000B30033084101E6076608C03E86008701A8
:1001C0005908003C810001304001B300330841016F
:1001D000E607D430E1006608C03E86008701D430CF
:1001E000810001304001B30033084101E607660891
:1001F000C03E860087015D08810001304001B300E8
:1002000033084101E60761085D07E100DE012B29A3
:100210006608C03E860087015E0840012D07B300D6
:10022000330884008501000881000130B3003308E1
:100230004101E6075E0840012D07B3003308860040
:100240008701010841016107E10001304001B3006D
:1002500033084101DE0740012E0841015E02031C04
:100260003229332908296608C03E860087016108C3
:10027000003C810001304001B30033084101E60732
:100280006608C03E86008701810101304001B3004D
:1002900033084101E60766084001A000A030A10034
:1002A0002030A200E830A3000330A400C030873122
:1002B000442780314101E2000630620203186129BF
:1002C000622963296828A0304001A0000030A10005
:1002D0001C30A2009830A3000630A4000030A50016
:1002E00089316C21803140012008210403197929CA
:1002F0007A297B29682806304101E500A4294101BB
:100300006508A03E860087010108031D8829892908
:100310009E296508013EA03E860087010108031D55
:10032000922993299E296508023EA03E86008701F6
:10033000010A031D9C299D299E29B02901304001F5
:10034000B30033084101E507023065074001B300FF
:100350004101620840013302031CAF29B0297F2903
:100360000230410165074001B300410162084001CC
:100370003302031CBC29BD29BE2968284101650838
:10038000053E62020318C529C629C72968286508E1
:10039000033EA03E860087010108E4006508043E94
:1003A000A03E860087010108D7006408570703199B
:1003B000DA29DB29DC296828023064020318E129E4
:1003C000E229E32968286408073ED50000300318B5
:1003D0000130D600650855074001B30041015608B9
:1003E0000318560A4001B400410162084001B500FB
:1003F000B60134083602031DFF29330835020318FD
:10040000022A032A042A682841016508053EE30000
:100410006308A03E86008701D53001060319112A22
:10042000122A132A68286308013EA03E860087012D
:100430005D0A010603191D2A1E2A1F2A6828DB01EE
:10044000DC01382AA0305C074001B3004101630899
:1004500040013307B40034088600870101084101D8
:100460005B07DB0001304001B30033084101DC07CA
:1004700064085C02031C3D2A3E2A222A63086407A2
:10048000DA005A08A03E8600870101085B070319BD
:100490004A2A4B2A4C2A68285A08013ED800580894
:1004A000A03E8600870101080319572A582A592AB5
:1004B00068286408FE3EDF005F084001310203182F
:1004C000622A632A662A31084101DF004101E00106
:1004D000852A600840013007B30033088600870191
:1004E000A030410160074001B400410163084001B0
:1004F0003407B5003508023E8400850100088100FC
:100500000130B30033084101E0075F086002031CBB
:100510008A2A8B2A692A4001320886008701410114
:100520005F088100013008009631312682318B1737
:100530000B1740019210981429304201A100963007
:10054000A0007F30890BA22AA00BA22AA10BA22A0D
:100550008C31FC2482314201CF004F080319B12AAB
:10056000B22AEB2A4201CA01D82A40019814093064
:100570004201A1001E30A000E430890BBD2AA00B6F
:10058000BD2AA10BBD2A000040019810093042018C
:10059000A1001E30A000E430890BCC2AA00BCC2A8D
:1005A000A10BCC2A000001304201A0002008CA079C
:1005B0004F084A02031CDD2ADE2AB52A29304201EF
:1005C000A1009630A0007F30890BE42AA00BE42A1A
:1005D000A10BE42AB22A400198107D012117943121
:1005E0000C24823131304001A0000830A100883154
:1005F0005D20823195311C2582318D31712582310A
:100600008A3143228231031040010E1F031400304F
:10061000031801304201D000500862060319112B63
:10062000122B1C2B5008E2006208031D182B192BFB
:100630001C2B96316A2682314201CB0140016E08A3
:100640000319232B242B2C2B42016208031D292B79
:100650002A2B2C2BCB01CB0A42014B08031D312B3B
:10066000332B0130342B0030D10051080319392BC2
:100670003A2BDD2B42304001B7000130B800523038
:10068000B9000130BA008B31B1238231003A03192D
:100690004A2B4B2BDD2B400198144201CC01CC0A94
:1006A00052086406031D552B562B762B4230400111
:1006B000A0000130A100E030A2000130A3004201FF
:1006C0005208A000A10120084001A4004201210815
:1006D0004001A50089316C218231400120082104AC
:1006E000031D732B742B762B4201CC0142014C0865
:1006F000031D7B2B7D2B01307E2B0030C900490868
:100700000319832B842BC82B20304001D1002230C9
:100710008631AF268231003A03198F2B902BAF2BF5
:100720002230963188268231400130084201CE00C5
:1007300040012F084201CD004D084E040319A12BA2
:10074000A22BAF2B4E084001D80042014D084001BA
:10075000D7008931B0218231F901F90AF80142301C
:100760004001A0000130A10042015208A000A101F7
:1007700020084001A200420121084001A300E0300E
:100780008731D627823142015208E400E301162C5A
:100790006308031DCC2BCD2B162C9331F62382310D
:1007A000003A031DD42BD52B162C8C318924823191
:1007B000F9014201E301E30A162C42015108031931
:1007C000E22BE32BF82B64080319E72BE82BF82B1B
:1007D00079080319EC2BED2BF12B9331FD2382319A
:1007E000F42B9331B8238231F901F801F80A112C66
:1007F0005108031DFC2BFD2B112C79080319012C2A
:10080000022C072C8C3189248231F901112C7808B3
:1008100003190B2C0C2C112C9331B4238231F801C9
:10082000112C4201E401E30140019810073042011C
:10083000A1001730A0006A30890B1C2CA00B1C2CC7
:10084000A10B1C2C0000FD2A803114284001C2009D
:100850000330290203182D2C2E2C302C0030732D40
:1008600042088600013087000108BB003B080739B9
:10087000B3003B1A3C2C3E2C01303F2C0030B4001E
:10088000BB19432C452C0130462C0030B500C30168
:10089000C30A42088600013087000130413FBC0096
:1008A0000130AC002C08C30734080319582C592C0C
:1008B000732C29084302031C5E2C5F2C602C2E2C09
:1008C00043084207AC002C0886000130870001086D
:1008D000AD00AE012D08BE002E08BF000130AC00F7
:1008E0002C08C307AA2C4308043EAC0000300318B0
:1008F0000130AD002908AE00AF012D082F02031D05
:10090000832C2C082E02031C862C872C2E2C4308AB
:100910004207AC002C08033E860001308700010826
:10092000AD00AE0143084207AF002F08023E86002B
:10093000013087000108B000B1013008B100B001FA
:100940002D083004BE002E083104BF000430AC0076
:100950002C08C307B80135080319AF2CB02CC42CE0
:1009600029084302031CB52CB62CB72C2E2C4308A7
:100970004207AC002C088600013087000108B8004F
:100980000130AC002C08C30743083C07AC00AD01A4
:10099000AD0D2908AE00AF012D082F02031DD22C8A
:1009A0002C082E020318D52CD62CD72C2E2CB901AE
:1009B0003303031DDC2CDD2CF12C3C03031DE12C47
:1009C000E22CF12C43084207AC002C0886000130D1
:1009D000870054300106031DEE2CEF2CF12CB901D9
:1009E000B90A3908031DF52CF72C0130F82C00301A
:1009F000B60043083C073807C3003608031D012D25
:100A0000022D032D2E2C43083E07AC003F0803188F
:100A10003F0AAD002908AE00AF012D082F02031DCB
:100A2000132D2C082E020318162D172D182D2E2CE1
:100A300042084307BA003A088600013087000108DF
:100A4000B70037083F39BD003D08013EAC0000301B
:100A500003180130AD002D083F02031D312D2C0875
:100A60003E020318342D352D362D2E2C3F08AD00B7
:100A70003D083E02AC00031CAD032C08FF3EC00045
:100A8000FF302D3DC1002B08FF3EAC00FF300318A6
:100A90000030AD0041082D02031D502D40082C02EE
:100AA0000318532D542D5B2D2B08FF3EC000FF3043
:100AB00003180030C1003A083D07013EA000013094
:100AC000A1004108A3004008A2002A088731D627C8
:100AD0008431400140082A07AC002C088600013010
:100AE00087008101013008004001D4005408C00093
:100AF000C1014008A2004108A3005408C200C3017C
:100B00004208A0004308A1009631A7268531400184
:100B10002008C4002108C500C601C7014708A70076
:100B20004608A6004508A5004408A4005408C800CB
:100B3000C901CA01CB014B08AB004A08AA00490809
:100B4000A9004808A80088318B208531400127087A
:100B5000CF002608CE002508CD002408CC003E0892
:100B6000C000C1014008A2004108A3003E08C20025
:100B7000C3014208A0004308A1009631A726853191
:100B800040012008C4002108C500C601C70147086C
:100B9000A7004608A6004508A5004408A4003E0892
:100BA000C800C901CA01CB014B08AB004A08AA0022
:100BB0004908A9004808A80088318B2085314001E8
:100BC0002708D3002608D2002508D1002408D00029
:100BD0005308B3005208B2005108B1005008B000E9
:100BE0004F08A7004E08A6004D08A5004C08A40019
:100BF0000030AB000030AA000330A900FF30A8008D
:100C000088318B20853140012708B7002608B600BF
:100C10002508B5002408B4008A31F6228531400148
:100C20003108BF003008BE0008004001A4002408BD
:100C3000A70022082304031D1E2E1F2E202EAE2ED9
:100C40002708860001308700200881002208270736
:100C5000F4007408FF3E8600013087002008810000
:100C6000003023020330031922020318382E392ED4
:100C70003A2EAE2E270A8600013087002008810018
:100C80002708023E860001308700200881002208E4
:100C90002707F4007408FE3E860001308700200814
:100CA000810022082707F4007408FD3E8600013009
:100CB0008700200881000030230207300319220238
:100CC0000318632E642E652EAE2E2708033E860081
:100CD000013087002008810022082707F4007408EB
:100CE000FC3E86000130870020088100003023028E
:100CF00009300319220203187E2E7F2E802EAE2E7D
:100D00002709F4002809F500F40A0319F50A03304D
:100D10007405A50000307505A6002508F4007408C8
:100D2000A7072508A2022608A33BFC30A205FF3036
:100D3000A305A82E2708860001308700200881001F
:100D40000130A2020030A33B0130F4007408A70771
:100D500022082304031DAD2EAE2E9A2E080040015A
:100D6000D600DC010430D900DB012C2F5C08A03E4A
:100D7000B700590889312D218631003A031DC12E53
:100D8000C22EC42E0030432F40015C08103EDC0010
:100D90005908043ED900262F5B08A03E860001308A
:100DA00087000108D7005708031DD72ED82EDD2E47
:100DB0000130D2005208DB07262FFE305706031DF4
:100DC000E22EE32EE42EC22E01305B07D2005C0837
:100DD0005202031CEC2EED2EEE2E2C2F5B08A13EB2
:100DE0008600013087000108DA005A0A031DF92E37
:100DF000FA2EFB2EC22E5B08023ED80058085A0776
:100E0000D200D301D30D5C08D400D501530855029C
:100E1000031D0C2F5208540203180F2F102F112FEF
:100E20002C2F03305706031D162F172F232F5A0878
:100E3000A9005608AA005108AB005808A03E84310A
:100E400026248631432F58085A07DB005C085B02D2
:100E5000031C2B2F2C2FCC2E293059020318312F95
:100E6000322FC22E5C08103ED20000300318013031
:100E7000D30000305302413003195202031C412FAA
:100E8000422FB62EC22E08004001A500AC01A901D8
:100E9000AA01A601A701A8014C019A1C502F512FAD
:100EA000572F1A121A16572F9731AA2787319331C5
:100EB000C0238731003A031D5E2F5F2F542F40015E
:100EC000AB017B2F9431FD248731003A0319692F40
:100ED0006A2F622F40012B082507F5007508860050
:100EE00087010108F4009331B02387310130F50008
:100EF00075084001AB0720082B02031C802F812FAF
:100F0000622F9331AC238731003A0319882F892F40
:100F1000812FCD2F9331C0238731003A0319912FB0
:100F2000922FA72F40012C082107F5007508860095
:100F300087019731AA27873181000130F5007508B4
:100F40004001AC07A801A80AA901AA01CD2F1A30B7
:100F5000890BA82F003240012808031DB02FB12FA4
:100F6000BF2F0130A6070030A73D273027021030E1
:100F700003192602031CBD2FBE2FCD2FD42F013005
:100F8000A9070030AA3D27302A0210300319290290
:100F9000031CCB2FCC2FCD2FD42F400122082C02A5
:100FA000031CD32FD42F8A2F2C0808004001A8003F
:100FB0002108A6002008A5002808A700F32F25086F
:100FC0008600260887000108A4000130A50700302C
:100FD000A63D2708860001308700240881000130E3
:100FE000F4007408A7070130A2020030A33B220AD4
:100FF000031DFE2F230A031DFE2FFF2FDF2F0800E6
:10100000013414340034013400344201E001E101C0
:101010004C01901C0C280D281B2842016015410131
:1010200069086A040319152816281B286A088A000B
:1010300069080A0088314C01101D1F2820282E281D
:101040004201E01441016B086C0403192828292887
:101050002E286C088A006B080A0088314C010C08A5
:10106000080079080319352836283B288C31892453
:101070008831F9014428780803193F28402844287A
:101080009331B4238831F80100304001A000A10061
:101090000730A2000030A300E030863115268831E9
:1010A0004201E401E30140016E08031958285A285F
:1010B00001305B280030EE000800400121084201A9
:1010C000DB00400120084201DA007D01A115211654
:1010D0008D1540010E0E0139A2000E0CA300A30CC9
:1010E000230C013909072204EB007F30F40017308C
:1010F000F5009331CB2388317F30F4001730F500B1
:101100009331D12388319830F4001330F5009331B6
:10111000C5238831080000304001AF000030AE0028
:101120000030AD000030AC00241C97289828A0287F
:101130002808AC072908AD3D2A08AE3D2B08AF3D75
:101140000130A835A90DAA0DAB0D890BA1280130DE
:10115000A736A60CA50CA40C890BA82827082604E2
:1011600025042404031DB528B62894282F08A700B9
:101170002E08A6002D08A5002C08A4000800400198
:10118000260827040319C528C628EF28AB01AB0A97
:10119000D2280130A635A70D890BCA280130AA0034
:1011A0002A08AB07A71FD528D628C928270829024F
:1011B000031DDC2826082802031CDF28E028E42879
:1011C0002608A8022708A93B0130A736A60C890BE0
:1011D000E5280130AB02031DEE28EF28D6282908A8
:1011E000A7002808A60008004001C70047083F02E2
:1011F000C500C601031CC6030030B3000030B200B6
:101200000030B100FF30B0004508A4004608A5003A
:10121000890D893B8909A600A7004008C100C201C9
:10122000C301C4014408AB004308AA004208A90056
:101230004108A80088318B20883140012708B70079
:101240002608B6002508B5002408B4008E31E02633
:10125000883140013008470708004001CC000030C9
:10126000CD000030CE000030CF00CD01CD0A3030AF
:10127000CE004C08CF004D30AD000330AE00AF01C2
:101280003830B0001430B1005030B20040308031FE
:101290005F208931003A031D4E294F295129003022
:1012A0006B29113040015002031C572958294F293E
:1012B000380803195C295D295E294F293930A000BF
:1012C0000030A1001030A2000030A30037088731A1
:1012D000D62789310130080040012108A7002008E5
:1012E000A6002308A9002208A80082290130A40230
:1012F0000030A53B0130A6070030A73D0130A8070C
:101300000030A93D24082504031987298829982934
:1013100028088400290885000008F40026088600B3
:101320002708870001087406031997299829762948
:1013300024082504031D9D299E29A129A001A1019E
:10134000AF29260886002708870028088400290876
:10135000850000080102A000A101031CA1030800F0
:1013600040015808C4005708C300943199248931BA
:101370004001DC01DC0A5C081E3CDB001E30BE00C4
:101380005B0885317425893140013F08D6003E084D
:10139000D5009431142489311E304001BE005C0810
:1013A00085317425893140013F08D6003E08D500BB
:1013B00094311D24893103304001DA000830D9000E
:1013C0007730890BE129D90BE129DA0BE1290130CA
:1013D0004001D9005908DC071F305C02031CF129C9
:1013E000F229BB29013094313B24893108004001A6
:1013F000AE00280829040319FE29FF29412A2908DB
:10140000F5002808F4009531DE2589317508400182
:10141000AD007408AC00332A2908A1002808A000F8
:101420002D08A3002C08A2002E088A319C228931A5
:10143000400120082104031D1E2A1F2A212A2E08EC
:10144000422A28088400290885000008AA00AB0168
:101450002A08F4002B08F5002E08013E9531C4251A
:1014600089314001AE002E080319372A382A412A53
:101470002E088600013087000108031D402A412AFA
:101480000C2A0030080040016708031D482A492A39
:101490004A2A9B2A6808031D4E2A4F2A622A4601BF
:1014A0000C08013E4001C800003003180130C9009B
:1014B00048084201D600400149084201D7004001D6
:1014C000E801E80A6C080319662A672A6A2A0130CB
:1014D000EC029B2A981609304001C9001E30C80052
:1014E000E430890B712AC80B712AC90B712A0000DC
:1014F000400198129431A5248A314001CC00BF01EB
:10150000BF0A4C08C00008308831F4208A314001FD
:10151000CA000330BF004C08C00014308831F420EA
:101520008A314001CB004B08AC004A089531F925BF
:101530008A314001EC0008004001A4002408A70003
:101540002108A6002008A5000130A2020030A33B1C
:10155000220A031DAF2A230A031DAF2AB02ABF2A7D
:10156000A001A101F52A0130F4007408A707013099
:10157000A5070030A63D0130A2020030A33B27089A
:1015800086000130870001080319C72AC82AE72A04
:10159000250884002608850012000319D02AD12AC4
:1015A000E72A220823040319D62AD72AE72A25087E
:1015B0008400260885000008F40027088600013012
:1015C0008700010874060319E62AE72AB32A2708C8
:1015D0008600013087002508840026088500000861
:1015E0000102A000A101031CA1030800003040017A
:1015F000BC000030BB000030BA000030B900330836
:101600003204310430040319062B072B482BBD018B
:10161000BD0A152B0130B035B10DB20DB30D890BDC
:101620000B2B0130B8003808BD07B31F182B192B3E
:101630000A2B0130B935BA0DBB0DBC0D890B1A2B25
:1016400033083702031D2E2B32083602031D2E2BC2
:1016500031083502031D2E2B30083402031C312BB8
:10166000322B3B2B3008B4023108B53B3208B63B75
:101670003308B73B39140130B336B20CB10CB00C9F
:10168000890B3C2B0130BD02031D472B482B192B26
:101690003C08B3003B08B2003A08B1003908B0007A
:1016A00008004001A501A11F562B572B5E2BA00956
:1016B000A109A00A0319A10AA501A50AA31F612B6C
:1016C000622B6B2BA209A309A20A0319A30A0130FA
:1016D000F4007408A506A601A70120082104031937
:1016E000722B732BA22BA401A40A7F2B0130A035EF
:1016F000A10D890B772B0130F4007408A407A11FFA
:10170000822B832B762B0130A635A70D890B842BDA
:1017100021082302031D8E2B20082202031C912B7B
:10172000922B972B2008A2022108A33B26140130FC
:10173000A136A00C890B982B0130A402031DA12B0C
:10174000A22B832B25080319A62BA72BAC2BA609AC
:10175000A709A60A0319A70A2708A1002608A000BE
:10176000080042016F084001D90042016E084001A3
:10177000D8005830AD000230AE00AF014030B000AC
:101780001830B1005A30B2004A3080315F208B31BE
:10179000003A031DCC2BCD2BCF2B0030192C400150
:1017A0005A080319D42BD52BCD2B4008031DD92B58
:1017B000DA2BDB2BCD2B4508DC005C080319E12B71
:1017C000E22BCD2B08305C020318E72BE82BCD2B46
:1017D0005C08063E5A020318EE2BEF2BF02BCD2BA4
:1017E000DB010C2C5B08063E403E860087010108A9
:1017F000BB005B08BC00BD013C083707BE003D08CC
:10180000383DBF003E0886003F0887003B08810046
:101810000130BB003B08DB075C085B02031C112C9A
:10182000122CF22B390886003A0887005C088100E8
:10183000013008004001980199019A019B019C0127
:10184000DD309200EF309300FF309400CD309500F2
:101850000F309600D5307D018C00CD309600A7303A
:10186000A000CB30AA000730B4008D019701A10180
:10187000AB01B5018E019801A201AC01B601FF30A8
:101880008F00FF309900FF30A300FF30AD0007301C
:10189000B700FF309000FF309A00FF30A400FF3007
:1018A000AE000F30B8001A307C01C3000D30C1000B
:1018B0000B307B01A8000C30A9001130A5000E30C0
:1018C00098007D0191010830920093019B019C01D9
:1018D0009D011830A5001830A600A701B901BA0172
:1018E000BB018F30F4001330F5009331C5238C31E8
:1018F0009130F4001330F5009331CB238C319030CC
:10190000F4001330F5009331D1238C3141011616C8
:101910000800003094313B248C31933192238C3178
:101920004001E2001430E4006408FF3EE30014309C
:10193000BE006308853174258C3140013F08E0000A
:101940003E08DF000030B3000030B2000030B100CC
:101950001430B0006308D700D8015708A200580817
:10196000A3006208D900DA015908A0005A08A100B2
:101970009631A7268C3140012008DB002108DC00CD
:10198000DD01DE015E08B7005D08B6005C08B50049
:101990005B08B4008A31F6228C3140013008E10046
:1019A0006008D6005F08D50094311D248C314001B9
:1019B000C30161089531AA258C3103304001D8005C
:1019C0000830D7007730890BE32CD70BE32CD80BEA
:1019D000E32C01304001E4026408031DF02CF12CDB
:1019E000942C943130248C314001C301C30A620825
:1019F0009531AA258C31080068304001B700E430E9
:101A0000890B002DB70B002D000042016B0840012F
:101A1000CC0042016C084001CD0042016D0840013C
:101A2000CE004C30AD000330AE00AF01AF0A38300D
:101A3000B0001030B1004F30B200143080315F2060
:101A40008C31003A031D252D262D282D0130702DB7
:101A500043016A084001CB00430169084001CA0004
:101A6000430168084001C900430167084001C800FC
:101A70004830AD000430AE00AF013830B000103057
:101A8000B1004F30B200323080315F208C31003AEB
:101A9000031D4B2D4C2D4E2D0230702D4001AD01FC
:101AA000AE01AF013830B0001030B1004F30B2009D
:101AB000023080315F208C31003A0319602D612D96
:101AC0006D2D40014F080319662D672D6D2D3230A5
:101AD000380603196C2D6D2D6F2D0330702D0030DD
:101AE0000800410116127708A1007608A000043012
:101AF0004001A0000030A100410121084001A300E5
:101B0000410120084001A2008B3151238D31400159
:101B100020084101A20022084001E500E601E51B82
:101B2000E603E535E60DE535E60D650841012002E1
:101B3000F600400166084101213BF7001616220815
:101B40000319A32DA42DA82D22089731D5278D3157
:101B500040016A080319AD2DAE2DDA2D4101161290
:101B60004001EA014101161640016908031DB92D23
:101B7000BA2DDA2D02304001E6003830E500AD30F4
:101B8000890BC02DE50BC02DE60BC02D40018C1933
:101B9000CA2DCB2DDA2DE901E90A42015A085B046E
:101BA0000319D32DD42DDA2D5B088A005A080A00B8
:101BB0008D31DA2D400169080319DF2DE02DE52D67
:101BC0008C1DE32DE42DE52DE90108004001BD0049
:101BD0003508C0003408C100C201C20A3D08B70080
:101BE000B801B709B809B70A0319B80A3808BA0022
:101BF00040083702B900031CBA033A08BC00410888
:101C00003902BB00031CBC033B08FA3EBE00FE3099
:101C10003C3DBF000E2E883105208D319331EF23DE
:101C20008D31003A031D152E162E0B2E7E30943169
:101C3000EE248D31FF309431EE248D310630943115
:101C4000EE248D3140013D089431EE248D31400168
:101C500042089431EE248D31400140089431EE2445
:101C60008D31400141089431EE248D3140013F080F
:101C70009431EE248D3140013E089431EE248D31B3
:101C8000EF309431EE248D3193319C238D31003A25
:101C900003194B2E4C2E442E40013608031D512EA5
:101CA000522E532E5E2E0030A3000030A200C3300F
:101CB000A1005030A0008E315F268D310800943194
:101CC00004248E314001B301B32E9331EF238E31C2
:101CD000003A03196C2E6D2E7C2E40013308283EED
:101CE00086008701883105208E3181000130400156
:101CF000A4002408B307B32E3530890B7D2E0000D5
:101D000040012308031D8F2E2208031D8F2E21085A
:101D1000031D8F2E1530200203188F2E902E9A2E21
:101D200000304001A3000030A2000030A1000030CC
:101D3000A000B32EEC304001A400FF30A500FF301E
:101D4000A600FF30A7002008A4072108A53D22080F
:101D5000A63D2308A73D2708A3002608A2002508C2
:101D6000A1002408A0000A3033020318B82EB92EAF
:101D7000C12E2308220421042004031DC02EC12EDD
:101D8000652E0A3033020318C62EC72EC92E003026
:101D9000DF2EB2017E302806031DCF2ED02EDE2E80
:101DA00041302B06031DD52ED62EDE2EEF30310608
:101DB000031DDB2EDC2EDE2EB201B20A3208080033
:101DC0004001BA01B31FE52EE62EF32EB009B1098A
:101DD000B209B309B00A0319B10A0319B20A031907
:101DE000B30ABA01BA0AB71FF62EF72E062FB409A6
:101DF000B509B609B709B40A0319B50A0319B60A31
:101E00000319B70A0130B8003808BA060030BE001E
:101E10000030BD000030BC000030BB00330832048D
:101E2000310430040319152F162F572FB901B90AA1
:101E3000242F0130B035B10DB20DB30D890B1A2F1F
:101E40000130B8003808B907B31F272F282F192FE2
:101E50000130BB35BC0DBD0DBE0D890B292F3308DC
:101E60003702031D3D2F32083602031D3D2F310876
:101E70003502031D3D2F30083402031C402F412F33
:101E80004A2F3008B4023108B53B3208B63B33085C
:101E9000B73B3B140130B336B20CB10CB00C890B1C
:101EA0004B2F0130B902031D562F572F282F3A0808
:101EB00003195B2F5C2F672FBB09BC09BD09BE0945
:101EC000BB0A0319BC0A0319BD0A0319BE0A3E085E
:101ED000B3003D08B2003C08B1003B08B000080068
:101EE0004001AC00AA01AB01A801A9017B2F013080
:101EF000A6002608AC072C08860001308700203099
:101F000001060319842F852F772F2C0886000130B6
:101F100087000108F73EA600FF3003180030A70035
:101F200000302702053003192602031C982F992F31
:101F3000772FA32F0130A8000030A9000130A600A0
:101F40002608AC07D52F2C08860001308700010831
:101F5000A600A7012708003A0319AF2FD52F26089E
:101F60002B3A03199E2F063A03199A2FD52F2C08C6
:101F70008600013087002B08A1002A08A0000A3043
:101F8000A2000030A3009631A7268F31400121081E
:101F9000A70001082002A600031CA7032608303E64
:101FA000AA000030273DAB009E2F2C088600013090
:101FB00087000108D03EA600FF3003180030A700BC
:101FC000003027020A3003192602031CE82FE92FEC
:101FD000B72F28082904031DEE2FEF2FFB2F2A0906
:101FE000A6002B09A700A60A0319A70A2608A40021
:101FF0002708A500FF2F2B08A5002A08A400080029
:102000001534163400340034AA341734B034133481
:10201000C0341334FD341434AC341334003400347D
:102020000034003400340034003400340034003410
:102030000034003400340034003400340034003400
:1020400000340034003400340034003400340034F0
:1020500069341434753414340034003400340034DA
:102060004D3416340034003405340834A0341334AD
:10207000EF341334DF3414349C341334003400341C
:1020800000340034003400340034003400340034B0
:1020900000340034003400340034003400340034A0
:1020A0000034003400340034003400340034003490
:1020B000513414345D3414340034003400340034AA
:10271E0008000800080040016D0808000834123453
:10272E00013401304001EA0008004C01110C01395E
:10273E00080074084C018D0008004C011A121A167C
:10274E0008004C011012101608004C011B0C013928
:10275E00080074084C019700080097312F27933119
:10276E00080097315627933108000534FF340134A1
:10277E00023441010F0E890C01390800750842011F
:10278E00EA007408E900080075084201E8007408C0
:10279E00E700080075084201E6007408E50008002D
:1027AE0075084101EE007408ED000800750842013D
:1027BE00D9007408D8000800640080010131890B2B
:1027CE00E42B0034FE0012001E00FE0BEA2B003438
:1027DE0041010F0CF400F40C740C013908000310C5
:1027EE0040018D1C03140030093D08008C318924F2
:1027FE00933197315627933108004C01901C082CC9
:10280E00092C0B2C1012101608004001C301C30A2C
:10281E0012309531AA259431080040015608F50072
:10282E005508F40095315F25943108004001560893
:10283E00F5005508F40095317825943108004401CF
:10284E008E018F0191010530930090019201940148
:10285E00080000304001B400B500B601B60A1630CB
:10286E008D31E62594310800F40074084001E7002C
:10287E007408031D432C442C452C9812080041016A
:10288E000C100B140030F4000030F5009331D723F8
:10289E0094310800740875040319562C572C5C2CBF
:1028AE0075084101EC007408EB000800740875040B
:1028BE000319622C632C682C75084101EA00740818
:1028CE00E90008007408750403196E2C6F2C742C23
:1028DE0075084101E8007408E700080074087504E3
:1028EE0003197A2C7B2C802C75084201DD007408AC
:1028FE00DC00080048011F08FC3901389F008030B9
:10290E008E007F308D00C0308C00080048011F08FB
:10291E00F33904389F00803091007F309000C03032
:10292E008F00080040014408B5004308B400B6010A
:10293E00B60A12308D31E6259431080012309531E9
:10294E000C25943175084001A2007408A1002208DC
:10295E00A30023090800420169086A040319B82C70
:10296E00B92CBE2C6A088A0069080A0094317D01D0
:10297E00931108004201670868040319C72CC82C7C
:10298E00CD2C68088A0067080A0094317D01A711D2
:10299E0008004201650866040319D62CD72CDC2CDE
:1029AE0066088A0065080A0094317D012712080026
:1029BE00F40141010F1DE42CE52CEC2C4C01911E71
:1029CE00E92CEA2CEC2CF401F40A74080800F5004A
:1029DE009431DF249431003A0319F62CF72CEF2CA6
:1029EE007508F4009331A02394310800F4014101DD
:1029FE000F1E022D032D0A2D4C019B1E072D082D97
:102A0E000A2DF401F40A740808004001A000200801
:102A1E007A019F00261326142618162D172D132D16
:102A2E001E08F5001D08F40008007D012A12AA12E6
:102A3E0000304001D500D600943114249531003079
:102A4E004001D500D60094311D24953140019212DB
:102A5E00981208000130460190008F019101FF305D
:102A6E008D008C010030F4000030F5009331DD2331
:102A7E00953141018D13803046018E0008007D0195
:102A8E00931D4A2D4B2D4E2D9431B22495317D013F
:102A9E00A71D522D532D562D9431C12495317D01F4
:102AAE00271E5A2D5B2D5E2D9431D02495310800B2
:102ABE0075084001A1007408A000A136A00CA13633
:102ACE00A00C200848018D00740803394001A000B5
:102ADE000530A035FF3E031D702D203548018C00BA
:102AEE00080075084001A1007408A000A136A00CD2
:102AFE00A136A00C2008480190007408033940014B
:102B0E00A0000530A035FF3E031D892D203548015C
:102B1E008F0008007408D03E4001A000FF30753DC4
:102B2E00A100003021020A3003192002031CA02D3F
:102B3E00A22D0130A32D0030A200A3012208F40023
:102B4E002308F50008004001C6001A304602031C97
:102B5E00B12DB22DB42D1930C6004608ED00460831
:102B6E00C400C5014408B4004508B5004308B600CA
:102B7E0006308D31E625953108004001A000200871
:102B8E0086000130870001087406031DCF2DD02D5D
:102B9E00D22D2008DD2D2008860001308700A00AE6
:102BAE000108031DDB2DDC2DC62D00300800750835
:102BBE004001A2007408A100E82D0130F407003096
:102BCE00F53D74088400750885001200031DF02D74
:102BDE00F12DE42D400121087402F4002208753B0A
:102BEE00F50008004001B00030082C02013EAF0095
:102BFE002F08AD00AE012D08A6002E08A7009631B5
:102C0E00C726953140012508A9002408A80088315F
:102C1E00BF209531400126083007080048304C018E
:102C2E009C0090309A0026309B0044309800990109
:102C3E000230F4000030F500943169249631A4304E
:102C4E00F4001330F5009431752496314201DE0103
:102C5E00DF0108009431262496318C311A249631E6
:102C6E0097310A27963196314D2696319631152693
:102C7E00963194318124963194318D24963195314B
:102C8E0031259631943146249631080048304C0156
:102C9E009200903090002630910040308E0003302C
:102CAE008F000330F4000030F5009431512496313A
:102CBE00A830F4001330F50094315D2496314201B2
:102CCE00E001E101080040016E08031D6F2E702E19
:102CDE00712E872E5D30B7000030B8006430B90019
:102CEE000030BA008B31B1239631003A0319802E91
:102CFE00812E822E872E9331B8239631F801F80A51
:102D0E0008004001B1002230A8009830A900310817
:102D1E008931F72196314001B2003208031D982EF9
:102D2E00992E9C2EAF01B001A62E3208023E8F3195
:102D3E007027963140012508B0002408AF00080026
:102D4E00F401F5014001201CAD2EAE2EB22E22084C
:102D5E00F4072308F53D0130A235A30D890BB32EE0
:102D6E000130A136A00C890BB82E20082104031DBA
:102D7E00C12EC22EA92E7508A1007408A00008004D
:102D8E00420157084001A100420156084001A0002F
:102D9E005530A2006230A3009631A726963140012D
:102DAE002008193E4201D60036304001213D420135
:102DBE00D70057084001A500420156084001A40063
:102DCE0008004001A201A20A2030740675040319FE
:102DDE00F12EF22E022F7408F73EA000FF30753D43
:102DEE00A10000302102053003192002031C002F20
:102DFE00012F022FA2012208A000A1012008F40039
:102E0E002108F50008007A01A7011030A800A901D9
:102E1E00AC01980197019601AA010F30AD00AB01EC
:102E2E00A301A401A5018030A100A2019F019A0176
:102E3E008C018D018E018F0192019301AE01AF01C4
:102E4E00B00141019011101281307A01A6000800E4
:102E5E001E304001D9001E30BE005908FF3E85319C
:102E6E007425973140013F08D6003E08D5009431B5
:102E7E001424973103304001D8000830D700773042
:102E8E00890B472FD70B472FD80B472F0130400107
:102E9E00D9025908031D542F552F322F0800400117
:102EAE00D901D90A1E30BE005908853174259731D3
:102EBE0040013F08D6003E08D500943114249731C6
:102ECE0003304001D8000830D7007730890B6D2FC2
:102EDE00D70B6D2FD80B6D2F01304001D70057083F
:102EEE00D9071F305902031C7D2F7E2F592F080042
:102EFE0040010E0E0139F0000E0CF100F10C710CB8
:102F0E00013909077004F3006B08F0000130F03549
:102F1E00FF3E031D8E2F70357304F2007208003EC3
:102F2E00840098300318013E85000008F000F1017E
:102F3E00F01BF10376087007F6007708713DF70075
:102F4E007308EB0008004201DE01DF014C019A1C00
:102F5E00B12FB22FBF2F42015E155C085D0403191D
:102F6E00B92FBA2FBF2F5D088A005C080A0097316F
:102F7E004C011A1DC32FC42FD22F4201DE14410162
:102F8E00670868040319CC2FCD2FD22F68088A004A
:102F9E0067080A0097314C01160808004001C80066
:102FAE006D084807C900CA010318CA0AC81FE02FD6
:102FBE00CA034001CA1FE42FE52FE72FC901CA013A
:102FCE004A08803AC70080304702031DF02F1A309E
:102FDE004902031CF32FF42FF92F19304001C900B9
:102FEE000030CA004001C30149089531AA25973126
:102FFE0008000034FF34013400340134003400344E
:10300E00FF34FF3400340034013400340134FF3413
:10301E0000343134153400340034003400340034BC
:10302E000034DD3413340034003400340034FF3403
:0C303E000034FF3400343A343A340034DB
:020000040001F9
:04000E008F3FE73FFA
:04001400FF3FFF3F6C
:00000001FF
